:100000000C9440190C9471190C9471190C94711979
:100010000C9471190C9471190C9471190C94711938
:100020000C9471190C9471190C9471190C94711928
:100030000C9471190C9471190C9471190C94711918
:100040000C9471190C9405AA0C9471190C947119E3
:100050000C9471190C9471190C94A06B0C94436B53
:100060000C9471190C9417C20C9471190C94711999
:100070000C9471190C9471190C9471190C947119D8
:100080000C9471190C9471190C9471190C947119C8
:100090000C9471190C9471190C9471190C940540FD
:1000A0000C9471190C9471190C9471190C947119A8
:1000B0000C9471190C9471190C9471190C94711998
:1000C0000C9471190C9471190C9471190C94711988
:1000D0000C9471190C9471190C9471190C94711978
:1000E0000C9471190F33123316331A331E33223323
:1000F000183426332A332F33183434333A333E330B
:10010000423346334A3318344E335233583318345B
:100110005E33743376338433863388338A33903353
:10012000923394339633A033A233A433A633AC3343
:10013000AE331834183418341834183418341834CA
:10014000183418341834183418341834183418344F
:10015000183418341834183418341834183418343F
:10016000183418341834183418341834183418342F
:10017000183418341834183418341834183418341F
:10018000183418341834183418341834183418340F
:1001900018341834183418341834183418341834FF
:1001A000183418341834183418341834B833D93390
:1001B000C169C469B369B769BB69FB69C869CC69BE
:1001C000D269D669DA69E069E469E869FB69EE69D0
:1001D000F269F669726A776A7C6A866A906A096B64
:1001E0009A6AA26AAA6AB46ABE6AC86AD76AE16AE7
:1001F000096BEB6AF56AFF6A7396739681968F9620
:10020000AB96B996C796D596E6969D96084AD73B83
:100210003BCE016E84BCBFFDC12F3D6C74319ABDD5
:1002200056833DDA3D00C77F11BED9E4BB4C3E91F9
:100230006BAAAABE000000803F05A84CCDB2D44EE8
:10024000B93836A9020C50B9918688083CA6AAAAEA
:100250002ABE000000803F00436172642065727214
:100260006F723A004E6F74205344207072696E743E
:10027000696E67002F005344207072696E74696E56
:1002800067206279746520002E0044656C6574698E
:100290006F6E206661696C65642C2046696C653AF6
:1002A000200046696C652064656C657465643A007D
:1002B0002E006F70656E206661696C65642C204647
:1002C000696C653A2000504944204175746F74751B
:1002D0006E652066696E6973686564212050757467
:1002E00020746865204B702C204B6920616E64205F
:1002F0004B6420636F6E7374616E747320696E74E7
:100300006F20436F6E66696775726174696F6E2ED8
:100310006800504944204175746F74756E6520669D
:1003200061696C6564212074696D656F7574002066
:10033000403A006F6B20543A006F6B20423A0050F5
:100340004944204175746F74756E65206661696CEF
:100350006564212054656D706572617475726520E5
:10036000746F6F206869676800204B643A20002032
:100370004B693A2000204B703A200020436C617397
:1003800069632050494420002054753A2000204BD6
:10039000753A2000206D61783A2000206D696E3A30
:1003A000200020643A200020626961733A200050E6
:1003B0004944204175746F74756E65207374617261
:1003C0007400504944204175746F74756E652066E1
:1003D00061696C65642E2042616420657874727571
:1003E000646572206E756D6265722E000D0A003FA5
:1003F0000056657273696F6E20444556000D0A0001
:10040000556E6B6E6F776E20636F6D6D616E643AC3
:100410002000544553540D0A002200556E6B6E6F38
:10042000776E20636F6D6D616E643A202200456CBB
:10043000656374726F6E6963735F74657374004192
:1004400063746976652045787472756465723A20C4
:1004500000496E76616C69642065787472756465B4
:100460007200540020423A300020423A31006F6B53
:1004700020523A0020633A0020643A0020693A0092
:1004800020703A006F6B002200556E6B6E6F776EB6
:1004900020636F6D6D616E643A2022006F70656E2F
:1004A00000545249474745524544007A5F6D617890
:1004B0003A20006F70656E005452494747455245D7
:1004C0004400795F6D61783A20006F70656E00546A
:1004D000524947474552454400785F6D696E3A205E
:1004E000005265706F7274696E6720656E64737414
:1004F0006F7020737461747573005A3A00593A0032
:1005000020436F756E7420583A2000453A005A3ADD
:1005100000593A00583A004649524D574152455FFA
:100520004E414D453A4D61726C696E20556C74694F
:100530006D616B6572323B20537072696E746572C7
:100540002F6772626C206D617368757020666F72C0
:100550002067656E36204649524D574152455F55DA
:10056000524C3A687474703A2F2F676974687562D8
:100570002E636F6D2F556C74696D616B65722050C1
:10058000524F544F434F4C5F56455253494F4E3A8A
:10059000312E30204D414348494E455F5459504516
:1005A0003A556C74696D616B6572204558545255AB
:1005B0004445525F434F554E543A310A0020423A67
:1005C0000020453A00543A003F0020573A002045A9
:1005D0003A00543A002042403A0020403A00202F8E
:1005E0000020423A00202F006F6B20543A0025690A
:1005F000206D696E2C2025692073656300456E644B
:100600002066696C65206C69737400426567696E69
:100610002066696C65206C69737400435045004323
:100620005045004350450055504554002020506C23
:10063000616E6E6572427566666572427974657345
:100640003A20002046726565204D656D6F72793ADB
:100650002000536570203236203230313600436F2F
:100660006D70696C65643A200056657273696F6ECF
:100670002044455600207C20417574686F723A20F2
:100680000053657020323620323031362031343A12
:1006900033303A343900204C6173742055706461F2
:1006A0007465643A2000312E302E30004D61726C3A
:1006B000696E200020536F66747761726520526501
:1006C00073657400205761746368646F67205265B6
:1006D000736574002042726F776E206F75742052BC
:1006E00065736574002045787465726E616C205284
:1006F0006573657400506F7765725570007374612F
:100700007274004D383420582059205A2045006515
:1007100063686F3A00256920686F757273202569D8
:10072000206D696E7574657300446F6E652070721C
:10073000696E74696E672066696C65005072696ED7
:100740007465722073746F707065642064756520C1
:10075000746F206572726F72732E204669782074F0
:100760006865206572726F7220616E6420757365B2
:10077000204D39393920746F207265737461727439
:100780002E202854656D70657261747572652069DC
:10079000732072657365742E20536574206974200C
:1007A00061667465722072657374617274696E67D4
:1007B00029006F6B004E6F204C696E65204E756D81
:1007C000626572207769746820636865636B73750E
:1007D0006D2C204C617374204C696E653A20004E7C
:1007E0006F20436865636B73756D2077697468204B
:1007F0006C696E65206E756D6265722C204C61733C
:1008000074204C696E653A2000636865636B73758C
:100810006D206D69736D617463682C204C61737415
:10082000204C696E653A20004C696E65204E756DEE
:10083000626572206973206E6F74204C617374203E
:100840004C696E65204E756D6265722B312C204CA3
:10085000617374204C696E653A20004572726F7244
:100860003A004D313130006572726F7220777269D3
:1008700074696E6720746F2066696C6500205A3A4F
:100880000020593A0020583A00656E6473746F7006
:1008900073206869743A20006563686F3A00446F9A
:1008A0006E6520736176696E672066696C652E00DF
:1008B0006F6B004D32390043414E43454C0050723E
:1008C00065763A2000000000000000005F00000094
:1008D00007000700147F147F14242A7F2A12231391
:1008E00008646236495522500005030000001C22AE
:1008F00041000041221C00082A1C2A0808083E0862
:100900000800503000000808080808006060000077
:1009100020100804023E5149453E00427F400042FB
:10092000615149462141454B311814127F1027452A
:100930004545393C4A494930017109050336494961
:100940004936064949291E00363600000056360051
:100950000000081422411414141414412214080035
:100960000201510906324979413E7E1111117E7F03
:10097000494949363E414141227F4141221C7F493C
:100980004949417F090901013E414151327F08082F
:10099000087F00417F41002040413F017F08142231
:1009A000417F404040407F0204027F7F0408107F67
:1009B0003E4141413E7F090909063E4151215E7F8A
:1009C00009192946464949493101017F01013F4042
:1009D00040403F1F2040201F7F2018207F631408C5
:1009E00014630304780403615149454300007F41C7
:1009F00041020408102041417F000004020102046A
:100A00004040404040000102040020545454787F8C
:100A1000484444383844444420384444487F385497
:100A2000545418087E090102081454543C7F0804E9
:100A3000047800447D40002040443D00007F1028A1
:100A40004400417F40007C041804787C080404784A
:100A500038444444387C14141408081414187C7C5A
:100A6000080404084854545420043F4440203C40A7
:100A700040207C1C2040201C3C4030403C4428103E
:100A800028440C5050503C4464544C4400083641B7
:100A90000000007F0000004136080008082A1C08FA
:100AA000081C2A08086469616D6574657200666CCB
:100AB0006F770066616E5F73706565640062656480
:100AC0005F74656D70657261747572650074656DD3
:100AD0007065726174757265006E616D65005B6D45
:100AE0006174657269616C5D00466F756E64206F3C
:100AF0006E20636172642E004E6F206578706F7295
:100B0000742066696C650052656164696E67206374
:100B10006172642E2E2E00506C6561736520696EC3
:100B2000736572742063617264004E6F2053442DAC
:100B30004341524421004578706F727420746F20D5
:100B4000534400496D706F72742066726F6D20534C
:100B50004400437573746F6D697A65003C2052459B
:100B60005455524E00250046616E3A200043004322
:100B7000002500466C6F773A006D6D004C6F616424
:100B80007320616C6C206D6174657269616C7300B7
:100B9000536176657320616C6C206D617465726958
:100BA000616C73004D6F64696679207468652073A9
:100BB000657474696E6773004D4154455249414CE8
:100BC0000053656C6563746564206D61746572695A
:100BD000616C3A004F4B00466C6F772025003F3F19
:100BE0003F0053746F726520617320707265736586
:100BF000740046616E004469616D657465720048F9
:100C00006561746564206275696C64706C6174659B
:100C10000054656D7065726174757265003C205298
:100C2000455455524E00250025006D6D004300438C
:100C30000025004D6174657269616C20666C6F7788
:100C400000250046616E207370656564006D6D005F
:100C50004D6174657269616C204469616D6574658C
:100C6000720043004275696C64706C617465205455
:100C7000656D702E00430054656D7065726174750A
:100C80007265004D4154455249414C003C2052454B
:100C90005455524E004E657720707265736574002E
:100CA0005052455345545300435045004142530070
:100CB000504C41004D38340047323800473238201C
:100CC0005A30004732382058302059300047312000
:100CD0004625692045300047393220452569004DB9
:100CE0003430310000002110422063308440A55090
:100CF000C660E770088129914AA16BB18CC1ADD162
:100D0000CEE1EFF13112100273325222B552944209
:100D1000F772D662399318837BB35AA3BDD39CC3B1
:100D2000FFF3DEE36224433420040114E664C77455
:100D3000A44485546AA54BB528850995EEE5CFF501
:100D4000ACC58DD55336722611163006D776F666A9
:100D50009556B4465BB77AA719973887DFF7FEE751
:100D60009DD7BCC7C448E5588668A7784008611875
:100D700002282338CCC9EDD98EE9AFF948896999A1
:100D80000AA92BB9F55AD44AB77A966A711A500A49
:100D9000333A122AFDDBDCCBBFFB9EEB799B588BF1
:100DA0003BBB1AABA66C877CE44CC55C222C033C95
:100DB000600C411CAEED8FFDECCDCDDD2AAD0BBD41
:100DC000688D499D977EB66ED55EF44E133E322EE9
:100DD000511E700E9FFFBEEFDDDFFCCF1BBF3AAF91
:100DE000599F788F8891A981CAB1EBA10CD12DC1EF
:100DF0004EF16FE18010A100C230E3200450254085
:100E000046706760B9839893FBA3DAB33DC31CD3E4
:100E10007FE35EF3B1029012F322D23235421452D4
:100E200077625672EAB5CBA5A89589856EF54FE530
:100E30002CD50DC5E234C324A01481046674476424
:100E400024540544DBA7FAB79987B8975FE77EF784
:100E50001DC73CD7D326F2369106B0165766767674
:100E6000154634564CD96DC90EF92FE9C899E98950
:100E70008AB9ABA94458654806782768C018E108C4
:100E80008238A3287DCB5CDB3FEB1EFBF98BD89B24
:100E9000BBAB9ABB754A545A376A167AF10AD01A14
:100EA000B32A923A2EFD0FED6CDD4DCDAABD8BAD70
:100EB000E89DC98D267C076C645C454CA23C832C64
:100EC000E01CC10C1FEF3EFF5DCF7CDF9BAFBABFC4
:100ED000D98FF89F176E367E554E745E932EB23EB4
:100EE000D10EF01E7C3C3E5E2B3D3F2F5B5D3B2CCC
:100EF0002A225C005072696E7465722068616C749D
:100F000065642E206B696C6C28292063616C6C65AC
:100F10006421005072696E7465722073746F707012
:100F200065642064756520746F206572726F7273DA
:100F30002E2046697820746865206572726F722071
:100F4000616E6420757365204D39393920746F20C6
:100F5000726573746172742E202854656D706572A9
:100F600061747572652069732072657365742E20D3
:100F700053657420697420616674657220726573AC
:100F800074617274696E6729004D32313820496E80
:100F900076616C696420657874727564657220008E
:100FA0004D31303920496E76616C69642065787402
:100FB000727564657220004D31303520496E76615E
:100FC0006C696420657874727564657220004D31B7
:100FD000303420496E76616C69642065787472756E
:100FE0006465722000456E6473746F702073746959
:100FF0006C6C2070726573736564206166746572D1
:10100000206261636B696E67206F66662E20456E95
:101010006473746F7020737475636B3F000000E03D
:10102000400000E0400000E040456E6473746F7063
:10103000206E6F74207072657373656420616674CE
:10104000657220686F6D696E6720646F776E2E2001
:10105000456E6473746F702062726F6B656E3F00D3
:10106000456E6473746F70206E6F74207072657358
:1010700073656420616674657220686F6D696E6760
:1010800020646F776E2E20456E6473746F702062DB
:10109000726F6B656E3F00FF010100005743000057
:1010A000524300006643746F20696E73657274204A
:1010B0006D6174657269616C2E00746865206E657F
:1010C0007874207374657020697300746865206299
:1010D00075696C64706C617465004E6F772074681C
:1010E0006174207765206C6576656C6564003131CC
:1010F0002F323100434F4E54494E554500556C74C4
:10110000696D616B6572322E00696E736572742051
:10111000696E2074686973006D6174657269616CD1
:1011200020796F752077696C6C004E6578742C207F
:1011300073656C656374207468650031322F3231D9
:101140000052454144590053656C656374207468CE
:1011500065206D6174657269616C00206173206D3A
:101160006174657269616C2C0031332F3231004D2E
:101170004154455249414C00697320746869732099
:1011800072696768743F00596F75206861766520E1
:1011900063686F73656E0031342F3231004E4F003B
:1011A000594553006974206973207573696E672E01
:1011B000006F66206D6174657269616C006B6E6FA3
:1011C00077732077686174206B696E64004E6F7767
:1011D00020796F757220556C74696D616B65723220
:1011E0000031352F323100434F4E54494E554500A2
:1011F0006D6174657269616C206C6F6164696E67A2
:10120000007072696E7468656164206865617469F4
:101210006E6720666F7200506C6561736520776140
:1012200069742C0031362F32310061626F7665208F
:10123000746865206172726F772E00796F75722005
:10124000556C74696D616B6572322C0066726F6DDE
:10125000207468652072656172206F6600496E7344
:10126000657274206E6577206D6174657269616C5A
:101270000031372F323100434F4E54494E5545000F
:101280004C6F6164696E67206D6174657269616C31
:101290002E2E2E0031382F32310066726F6D206E87
:1012A0006F7A7A6C652E2E2E006D6174657269619D
:1012B0006C2065786974730050757368206275746A
:1012C000746F6E207768656E0031392F32310043BC
:1012D0004F4E54494E5545006D616B65206120337A
:1012E00044205072696E74210049276D2072656137
:1012F0006479206C657427730032302F32310041DD
:10130000524520594F552052454144593F00746F72
:10131000207072696E742069742100616E6420709F
:10132000726573732074686520627574746F6E00E3
:101330006F6E207468652053442D6361726400539E
:10134000656C6563742061207072696E74206669D3
:101350006C650032312F3231004C455427532050F8
:1013600052494E540052656164696E672063617230
:10137000642E2E2E0032312F323100796F7572209B
:10138000556C74696D616B6572322E2E2E00746817
:1013900061742063616D65207769746800506C65C5
:1013A00061736520696E736572742053442D6361A7
:1013B00072640032312F32310052455455524E0082
:1013C000414456414E434544004255494C442D7CCE
:1013D000504C415445003F3F3F00466163746F727B
:1013E000792072657365740052756E74696D65203D
:1013F00073746174730056657273696F6E004D6F1C
:1014000074696F6E2073657474696E6773005265DA
:101410007472616374696F6E2073657474696E674A
:1014200073005365742066616E2073706565640097
:101430004D6F7665206D6174657269616C00496EEF
:1014400073657274206D6174657269616C005261BC
:10145000697365206275696C64706C617465004CB9
:101460006F776572206275696C64706C6174650079
:10147000486F6D65206865616400486561747570CA
:10148000206275696C64706C617465004865617494
:101490007570206E6F7A7A6C65004C4544207365D8
:1014A0007474696E6773003C2052455455524E0067
:1014B00056657273696F6E204445560025004300DF
:1014C000432F004300432F00250047323820583077
:1014D00020593000250046616E20737065656400F8
:1014E000473120462569205825692059256900473C
:1014F0003238205830205930004731205A343000DB
:10150000473238205A3000473238205A30004732AC
:101510003820583020593000473238205A300041A6
:101520004456414E434544004300432F00436C69F9
:10153000636B20746F2072657475726E004E6F7AE3
:101540007A6C652074656D70657261747572653A48
:10155000004300432F00436C69636B20746F20725B
:10156000657475726E00526F7461746520746F20BB
:1015700065787472756465004E6F7A7A6C65207454
:10158000656D70657261747572653A00202D204931
:101590006E76616C6964206578747275646572201A
:1015A0006E756D6265722021000000000018070151
:1015B00000A807140030082800B8083C003809507B
:1015C00000C0096400480A7800C80A8C00480BA0D3
:1015D00000C80BB400480CC800C80CDC00400DF07B
:1015E00000C00D0401380E1801B00E2C01280F4068
:1015F00001A00F54011810680188107C010011909F
:10160000013013F401481558024017BC0228192074
:1016100003F01A8403A81CE803401E4C043A20453A
:101620007874727564657220737769746368656431
:10163000206F66662E204D415854454D50207472DF
:10164000696767657265642021003A204578747285
:1016500075646572207377697463686564206F666A
:10166000662E204D494E54454D502074726967676F
:101670006572656420210054656D706572617475D2
:1016800072652068656174656420626564207377A3
:10169000697463686564206F66662E204D415854F6
:1016A000454D502074726967676572656420212119
:1016B000004572726F723A0000002100240027007A
:1016C0002A002D0030003300010100000401070151
:1016D0000A0100002200250028002B002E00310006
:1016E000340002010000050108010B010505050594
:1016F000070508080808020202020A0A080804048A
:1017000004040101010101010101030303030303B7
:101710000303040707070C0C0C0C0C0C0C0C020246
:10172000020206060606060606060B0B0B0B0B0B43
:101730000B0B0102102020080810204010204080D0
:101740000201020108040201010204081020408085
:101750008040201008040201800402018040201013
:10176000080402010804020101020408102040805C
:10177000010204081020408000000A0B02090C0D31
:101780000E08070304010000000000000000000034
:101790000000000000000000000000000000000049
:1017A0000000000012111000000000000000000006
:1017B0000000000000000000000000000000507267
:1017C00065706172696E6720746F207072696E74E3
:1017D0003A0048656174696E672075702E2E2E0080
:1017E00041424F52540054554E450054696D652096
:1017F0006C6566740054696D65206C65667420754F
:101800006E6B6E6F776E00430043004865617469CC
:101810006E67206275696C64706C6174650043006A
:10182000430048656174696E67005072696E74693F
:101830006E673A0050415553450054554E4500548B
:10184000554E45004348414E47457C4D4154455215
:1018500049414C00524553554D457C5052494E54D8
:1018600000756C74696D616B65722E636F6D2F45C9
:1018700052303800476F20746F3A007265616469B6
:101880006E672053442D6361726421004572726F4C
:1018900072207768696C650052455455524E205449
:1018A0004F204D41494E006F66207072696E746919
:1018B0006E672061726561005472696564207072A0
:1018C000696E74696E67206F7574004552524F528D
:1018D0003A0052455455524E20544F204D41494EE6
:1018E0000066726F6D2074686520736C6963657241
:1018F0002E0073657474696E67207769746820734D
:10190000657474696E67006F7665727269646520CC
:101910006D616368696E6500546869732066696CFF
:10192000652077696C6C0043414E43454C00434F42
:101930004E54494E55450041626F7274207468657B
:10194000207072696E743F004E4F0059455300433A
:10195000004320005072696E74657220636F6F6C73
:10196000696E6720646F776E004241434B20544F8D
:10197000204D454E5500746865207072696E742E56
:1019800000596F752063616E2072656D6F7665001A
:101990005072696E742066696E697368656400428E
:1019A00041434B20544F204D454E55004C4544205B
:1019B0004272696768746E65737300526574726110
:1019C0006374696F6E004D6174657269616C206645
:1019D0006C6F770046616E207370656564004275B8
:1019E000696C64706C6174652074656D702E005450
:1019F000656D7065726174757265005370656564BC
:101A00000041626F7274003C2052455455524E00A2
:101A10002500250025004300430043004300250026
:101A20004300432F00436C69636B20746F20726521
:101A30007475726E004E6F7A7A6C652074656D7085
:101A4000657261747572653A002500427269676853
:101A5000746E6573730025004D6174657269616C05
:101A600020666C6F7700250046616E207370656597
:101A7000640025005072696E74207370656564009F
:101A800054554E450052657472616374206C656EE6
:101A9000677468003F3F3F00526574726163742051
:101AA0007370656564003C2052455455524E006D7C
:101AB0006D2F736563006D6D006D6D2F7365630031
:101AC00052657472616374207370656564006D6D36
:101AD0000052657472616374206C656E677468008F
:101AE00052455452414354494F4E004D36303120F7
:101AF0005835205935205A2569204C256900430066
:101B0000432F00436C69636B20746F20726574759A
:101B1000726E004275696C64706C617465207465E6
:101B20006D702E3A0056657273696F6E204445568B
:101B30000053657020323620323031362031343A4D
:101B400033303A35330052657475726E006D002083
:101B50004D61743A003A005072696E74696E673A6A
:101B6000003A004D616368696E65206F6E20666F94
:101B7000723A0052657475726E00746F2064656607
:101B800061756C743F00526573657420657665728B
:101B9000797468696E67004E4F005945530052656D
:101BA0007472616374206C656E677468003F3F3FB8
:101BB0000052657472616374207370656564003CE3
:101BC0002052455455524E006D6D2F736563006D64
:101BD0006D006D6D2F73656300526574726163747F
:101BE000207370656564006D6D0052657472616389
:101BF00074206C656E6774680052455452414354BA
:101C0000494F4E003F3F3F0043757272656E74202E
:101C1000450043757272656E74205A004375727286
:101C2000656E7420582F59004D617820737065657A
:101C300064205A004D6178207370656564205900F6
:101C40004D6178207370656564205800582F5920C5
:101C50004A65726B00416363656C65726174696F9C
:101C60006E003C2052455455524E006D41006D416E
:101C7000006D41006D6D2F736563006D6D2F736591
:101C800063006D6D2F736563006D6D2F7365630069
:101C90006D6D2F7365635E32006D41004375727226
:101CA000656E742045006D410043757272656E74F7
:101CB000205A006D410043757272656E7420582F72
:101CC00059006D6D2F736563004D617820737065E9
:101CD0006564205A006D6D2F736563004D61782037
:101CE00073706565642059006D6D2F736563004DD9
:101CF00061782073706565642058006D6D2F736581
:101D00006300582F59204A65726B0030306D6D2F7B
:101D10007365635E3200416363656C65726174690B
:101D20006F6E004D4F54494F4E003F3F3F002047DC
:101D30006C6F77207768656E20646F6E6500204F4A
:101D40006E207768696C65207072696E74696E6761
:101D50000020416C77617973204F66660020416CEA
:101D600077617973204F6E004272696768746E659F
:101D70007373003C2052455455524E0025002500F7
:101D80004272696768746E657373004C454400471E
:101D900032382058302059300047312046256920FC
:101DA0005825692059256900473238205830205974
:101DB000300052455455524E0053455454494E47F5
:101DC00053004348414E474500666F72206D617471
:101DD000657269616C2072656D6F76616C00486533
:101DE0006174696E67207072696E74686561640001
:101DF00053442063617264206F6B006F70656E5294
:101E00006F6F74206661696C656400766F6C756DC8
:101E1000652E696E6974206661696C65640045723F
:101E2000726F723A00534420696E6974206661696A
:101E30006C006563686F3A004D3234004D323320D8
:101E40002573006175746F25692E670020736563C3
:101E500000206D696E0020686F75720020686F75D4
:101E6000727300627574746F6E20746F20636F6E8E
:101E700074696E756500556C74696D616B6572216E
:101E80002050726573732074686500737461727496
:101E90007570206F6620796F75720057656C636F7F
:101EA0006D6520746F2074686520666972737400B4
:101EB000312F323100434F4E54494E554500473182
:101EC00020462569205A2569205825692059256909
:101ED00000473238205A302058302059300062757F
:101EE000696C64706C6174652E006F662061646A51
:101EF000757374696E6720796F7572007468726F9C
:101F0000756768207468652070726F63657373000D
:101F1000492077696C6C20677569646520796F75F5
:101F20000043414E43454C00434F4E54494E5545A6
:101F300000473120462569205A256900473238205C
:101F40005A3000612066697273742072756E207752
:101F5000697A6172642E0077616C6B20796F7520ED
:101F60007468726F75676800666972737420737441
:101F7000617274757020492077696C6C00426563EA
:101F8000617573652074686973206973207468656E
:101F900000322F323100434F4E54494E55450047D1
:101FA0003120462569205A25692058256920592560
:101FB000690047323820583020593000676F696E09
:101FC0006720746F20646F2074686174206E6F776F
:101FD0002E0061646A7573746D656E74732C20775E
:101FE0006520617265007765206E65656420746F99
:101FF00020646F20736F6D65004166746572207494
:1020000072616E73706F72746174696F6E00332FDA
:10201000323100434F4E54494E554500473120461A
:102020002569205A30004731204625692058256906
:102030002059256900473120462569205A35006618
:10204000726F6D20746865206275696C64706C6174
:1020500074652E0061206D696C6C696D65746572C4
:10206000206177617900756E74696C2074686520F1
:102070006E6F7A7A6C6520697300526F7461746553
:102080002074686520627574746F6E00342F32316D
:1020900000434F4E54494E554500434F4E54494E10
:1020A000554500473120462569205A3000473120E8
:1020B0004625692058256920592569004731204661
:1020C0002569205A350066726F6D2074686520623C
:1020D00075696C64706C6174652E00697320612091
:1020E0006D696C6C696D65746572206177617900EA
:1020F00073637265772074696C6C20746865206EF8
:102100006F7A7A6C65005475726E206C6566742007
:102110006275696C64706C61746500352F323100D2
:10212000434F4E54494E55450066726F6D2074689A
:1021300065206275696C64706C6174652E006973EA
:102140002061206D696C6C696D65746572206177C2
:1021500061790073637265772074696C6C207468B0
:1021600065206E6F7A7A6C65005475726E207269A4
:10217000676874206275696C64706C6174650036A0
:102180002F323100434F4E54494E554500473120C0
:10219000462569205A3000473120462569205825B8
:1021A000692059256900473120462569205A3500A4
:1021B000746865206275696C64706C617465206C0C
:1021C0006576656C2E00706170657220746F206694
:1021D000696E652D74756E65006E6F772075736519
:1021E0002061207368656574206F660052657065B4
:1021F0006174207468697320737465702C20627533
:102200007400372F323100434F4E54494E5545002C
:1022100062697420726573697374616E63652E0000
:10222000756E74696C20796F75206665656C2061C8
:10223000006275696C64706C61746520616E642005
:102240006E6F7A7A6C6500536C69646520612070EA
:1022500061706572206265747765656E00382F3233
:102260003100434F4E54494E554500434F4E54495B
:102270004E554500746865206C65667420636F7206
:102280006E65722E2E2E0052657065617420746822
:10229000697320666F7200392F323100434F4E54FC
:1022A000494E554500473238205A30007468652041
:1022B000726967687420636F726E65722E2E2E00CD
:1022C000526570656174207468697320666F72006E
:1022D00031302F323100434F4E54494E5545004462
:1022E0004F4E45004D3834004731204631323030B2
:1022F00030205831313020593130005072696E74BD
:10230000696E672077697468205553422E2E2E001F
:10231000756C74696D616B65722E636F6D2F4552BC
:10232000303700476F20746F3A0058206F72205981
:102330002073776974636820737475636B00756CC0
:1023400074696D616B65722E636F6D2F4552303706
:1023500000476F20746F3A0058206F722059207325
:1023600077697463682062726F6B656E00756C7458
:10237000696D616B65722E636F6D2F45523036004B
:10238000476F20746F3A005A20737769746368202E
:10239000737475636B00756C74696D616B65722E17
:1023A000636F6D2F4552303500476F20746F3A00D0
:1023B0005A207377697463682062726F6B656E0070
:1023C000756C74696D616B65722E636F6D2F45520C
:1023D000303400476F20746F3A005361666574793A
:1023E000206369726375697400756C74696D616BE3
:1023F00065722E636F6D2F4552303300476F207426
:102400006F3A00486561746572206572726F720080
:10241000756C74696D616B65722E636F6D2F4552BB
:10242000303200476F20746F3A0054656D7020732E
:10243000656E736F722042454400756C74696D61FE
:102440006B65722E636F6D2F4552303100476F20E0
:10245000746F3A0054656D702073656E736F72000F
:102460004552524F52202D2053544F505045440056
:102470004D41494E54454E414E4345004D41544512
:102480005249414C005052494E540020746F6F2005
:102490006C6F6E6720657874727573696F6E2070EB
:1024A000726576656E7465640020636F6C64206588
:1024B0007874727573696F6E2070726576656E746C
:1024C0006564006563686F3A0024F4D43050C38EAD
:1024D00020C2A24017828B7011127A910D816CD9A3
:1024E0000AA861E108C7586607615143061E4B5DA3
:1024F00005C145A7041A411104093D9803713931FA
:10250000034036DB0265339102D4305402802E1D25
:1025100002632CEE01752AC501B028A001102781A5
:10252000018F2564012B244B01E0223401AC211FD3
:10253000018D200D01801FFC00841EED00971DDF22
:1025400000B81CD200E61BC600201BBC00641AB2F7
:1025500000B219A8000A19A0006A189900D11791B1
:102560000040178B00B516840031167E00B3157934
:10257000003A157300C7146F0058146A00EE136612
:10258000008813630025135E00C7125B006C1257AE
:102590000015125400C111510070114F0021114B50
:1025A00000D61049008D104700461044000210422A
:1025B00000C00F4000800F3E00420F3C00060F3B62
:1025C00000CB0E3800930E37005C0E3500270E341A
:1025D00000F30D3200C10D3100900D3000600D2E62
:1025E00000320D2D00050D2C00D90C2B00AE0C294E
:1025F00000850C29005C0C2700350C27000E0C26EA
:1026000000E80B2400C40B2400A00B23007D0B2347
:10261000005A0B2100390B2100180B2000F80A1F6B
:1026200000D90A1E00BB0A1E009D0A1D00800A1D5B
:1026300000630A1C00470A1B002C0A1B00110A1A1F
:1026400000F7091A00DD091900C4091900AB0919BE
:1026500000920917007B091800630917004C09163E
:102660000036091600200916000A091500F508159C
:1026700000E0081400CC081400B8081400A40814E2
:1026800000900813007D0812006B08130058081210
:102690000046081200340811002308110012081126
:1026A0000001081100F0071000E0071000D007102B
:1026B00000C0071000B0070F00A107100091070E1F
:1026C0000083070F0074070F0065070E0057070E01
:1026D0000049070E003B070D002E070E0020070DD6
:1026E0000013070D0006070D00F9060C00ED060D9E
:1026F00000E0060C00D4060C00C8060C00BC060C5A
:1027000000B0060C00A4060B0099060C008D060B09
:102710000082060B0077060B006C060B0061060AB0
:102720000057060B004C060A0042060A0038060A4B
:10273000002E060A0024060A001A060A00100609DE
:102740000007060A00FD050900F4050900EB05096C
:1027500000E2050900D9050900D0050900C70509EF
:1027600000BE050900B5050800AD050800A505096E
:10277000009C050800940508008C050800840508E5
:10278000007C050800740508006C05070065050855
:10279000005D050700560508004E050700470507C0
:1027A000004005080038050700310507002A050725
:1027B00000230507001C050600160507000F050786
:1027C000000805060002050700FB040600F50407E3
:1027D00000EE040600E8040600E2040700DB04063D
:1027E00000D5040600CF040600C9040600C3040691
:1027F00000BD040600B7040600B1040500AC0406E1
:1028000000A6040600A00405009B0406009504052C
:1028100000900406008A0405008504050080040673
:10282000007A04050075040500700405006B0405BA
:102830000066040500610405005C040500570405FA
:1028400000520405004D040500480405004304053A
:10285000003E0404003A0405003504050030040479
:10286000002C04050027040400230405001E0404B2
:10287000001A04040016040500110404000D0404E9
:1028800000090405000404040000040400FC03041F
:1028900000F8030400F4030400F0030400EC030454
:1028A00000E8030400E4030400E0030400DC030484
:1028B00000D8030400D4030400D0030400CC0304B4
:1028C00000C8030300C503030024F404D9201BC47B
:1028D0000C5C0E9804C4095F0265077101F405F9E8
:1028E00000FB04B30048048700C103690058035586
:1028F0000003034500BE023A008402310053022A5D
:10290000002902250004022000E4011C00C801196E
:1029100000AF011700980114008401130071011029
:10292000006101100051010E0043010D0036010B42
:10293000002B010B0020010B00150109000C0109FF
:102940000003010800FB000800F3000800EB00078B
:1029500000E4000600DE000600D8000600D20006F3
:1029600000CC000500C7000500C2000500BD000442
:1029700000B9000400B5000400B1000400AD00047B
:1029800000A9000400A5000300A20003009F0004AA
:10299000009B0003009800030095000200930003D1
:1029A00000900003008D0002008B000300880002ED
:1029B000008600020084000300810002007F000204
:1029C000007D0002007B0002007900020077000118
:1029D0000076000200740002007200010071000223
:1029E000006F0002006D0001006C0002006A00012F
:1029F0000069000200670001006600010065000137
:102A0000006400020062000100610001006000013A
:102A1000005F0002005D0001005C0001005B00013E
:102A2000005A000100590001005800010057000140
:102A30000056000100550001005400010053000041
:102A4000005300010052000100510001005000013C
:102A5000004F0001004E0000004E0001004D00013B
:102A6000004C0001004B0000004B0001004A000137
:102A70000049000100480000004800010047000133
:102A8000004600000046000100450000004500012E
:102A90000044000100430000004300010042000028
:102AA000004200010041000000410001004000011F
:102AB000003F0000003F0001003E0000003E00011A
:102AC000003D0000003D0001003C0000003C000013
:102AD000003C0001003B0000003B0001003A000008
:102AE000003A000100390000003900010038000000
:102AF00000380000003800010037000000370001F6
:102B000000360000003600000036000100350000ED
:102B100000350000003500010034000000340000E2
:102B200000340001003300000033000000330001D6
:102B300000320000003200000032000100310000CD
:102B400000310000003100010030000000300000C2
:102B500000300001002F0000002F0000002F0000B7
:102B6000002F0001002E0000002E0000002E0001AA
:102B7000002D0000002D0000002D0000002D0001A0
:102B8000002C0000002C0000002C0000002C000194
:102B9000002B0000002B0000002B0000002B000188
:102BA000002A0000002A0000002A0000002A00017C
:102BB0000029000000290000002900000029000071
:102BC0000029000100280000002800000028000063
:102BD0000028000000280001002700000027000056
:102BE0000027000000270000002700010026000049
:102BF000002600000026000000260000002600013C
:102C00000025000000250000002500000025000030
:102C10000025000000250001002400000024000021
:102C20000024000000240000002400010023000014
:102C30000023000000230000002300000023000008
:102C400000230000002300010022000000220000F9
:102C500000220000002200000022000000220001EB
:102C600000210000002100000021000000210000E0
:102C700000210000002100000021000100200000D0
:102C800000200000002000000020000000200000C4
:102C9000002000000020000000200001001F0000B4
:102CA000001F0000001F0000001F0000001F0000A8
:102CB000001F0000001F0001001E0000001E000099
:102CC000001E0000001E000000801506060606FE1D
:102CD000FEFEFEFC00000000000000FCFEFEFEFC0C
:102CE0000000000EFEFEFEFE0000E0FCFEFEFCE02A
:102CF000E0000000CECECE000000C0C0C0C0C0C00A
:102D00008000000000000080C0C0800000000000C3
:102D1000008080C0C0C0C0C0C0C080800000000073
:102D200006FEFEFEFE0000000080C0C0C0000000E5
:102D30000000008080C0C0C080808000000000C013
:102D4000C0C0C00080C0C0C0C08000000000007FC4
:102D5000FFFFFFFF80000000000080FFFFFFFFFF7C
:102D600000000000FFFFFFFF000000FFFFFFFF006B
:102D700000000000FFFFFF00000081F1FFFF3F0F98
:102D80003FFFFCF0F0FCFF3F0F3FFFFEF88000002C
:102D900000C1E1F1F17131010183FFFFFFFC00008F
:102DA00000FFFFFFFF000C3EFFFFF7C30100000024
:102DB000FCFEFF8703113131333F3F3F1E0000010E
:102DC000FFFFFFFF070301010101000000000000F9
:102DD000010307070F0F0F0F0F0F0F0707070F0F45
:102DE00006000000070F0F07000000070F0F070085
:102DF000000000000F0F0F0000060F0F070100007A
:102E00000001070F0F070100000001070F0F060068
:102E10000003070F0F0E0E060703070F0F07000032
:102E200000070F0F0700000000030F0F0F06000040
:102E3000000307070F0E0E0E0E0E0E060000000018
:102E40000F0F0F0F0000000000000043616E6E6F57
:102E500074206F70656E20737562646972005772BA
:102E60006974696E6720746F2066696C653A20002A
:102E70002E006F70656E206661696C65642C20465B
:102E8000696C653A20002E006F70656E206661697E
:102E90006C65642C2046696C653A200046696C6557
:102EA0002073656C6563746564002053697A653AC4
:102EB000200046696C65206F70656E65643A20007D
:102EC0002E006F70656E206661696C65642C20460B
:102ED000696C653A2000526576657273696E672089
:102EE0006D6174657269616C0052656D6F76652005
:102EF0006D6174657269616C0043414E43454C00DD
:102F0000524541445900250046616E3A2000430075
:102F100043002500466C6F773A006D6D004D4154BB
:102F2000455249414C006D6174657269616C20695C
:102F30006E73657274696F6E00436F6F6C696E6754
:102F4000207072696E746865616420666F720048F3
:102F5000656174696E67207072696E74686561641A
:102F600020666F720061626F76652074686520610B
:102F700072726F772E00796F7572206D6163686968
:102F80006E652C0066726F6D2074686520626163E7
:102F90006B73696465206F6600496E736572742097
:102FA0006E6577206D6174657269616C0043414E96
:102FB00043454C00524541445900466F7277617257
:102FC00064696E67206D6174657269616C00636F1E
:102FD0006D6573206F757420746865206E6F7A7AE2
:102FE0006C6500576169742074696C6C206D617444
:102FF000657269616C0043414E43454C0052454146
:10300000445900696E204D4154455249414C2E545B
:10301000585400746F2074686520534420636172B3
:1030200064005361766564206D6174657269616CDA
:1030300073004F6B000A0A006469616D6574657204
:103040003D000A00666C6F773D000A0066616E5FA6
:1030500073706565643D000A006265645F74656D48
:1030600070657261747572653D000A0074656D70FB
:10307000657261747572653D000A006E616D653D33
:10308000005B6D6174657269616C5D0A0052656117
:1030900064696E6720636172642E2E2E00506C6529
:1030A00061736520696E7365727420636172640078
:1030B0004E6F2053442D43415244210066726F6D80
:1030C000207468652053442063617264004C6F6112
:1030D000646564206D6174657269616C73004F6B27
:1030E000003C204241434B003C2052455455524E37
:1030F000004E6F20696E666F20617661696C616257
:103100006C65006D006D004D6174657269616C3AAB
:10311000200054696D653A20003B4D4154455249A9
:10312000414C3A003B54494D453A00466F6C64654A
:10313000720043616E6E6F7420656E7465722073E9
:1031400075626469723A200053442043415244003E
:103150004731204631323030302058352059313017
:1031600000473238003B464C41564F523A556C743A
:103170006947436F6465003B464C41564F523A5590
:103180006C746947436F6465004E6F2066696C65B7
:103190007320666F756E6421004F4B004F4B0052D9
:1031A000656164696E6720636172642E2E2E005023
:1031B0006C6561736520696E7365727420636172FA
:1031C00064004E6F2053442D434152442100486116
:1031D0007264636F6465642044656661756C742015
:1031E00053657474696E6773204C6F616465640025
:1031F0006563686F3A002200656E717565696E6778
:103200002022002200656E717565696E67202200BC
:1032100000005743000052430000664300000000D6
:103220000000000000000000000000000000524309
:1032300000006643526573656E643A20006F6B0050
:103240004E414E494E495459494E46CDCCCC3D0A8B
:10325000D7233C17B7D13877CC2B329595E6241F6E
:10326000B14F0A000020410000C84200401C462027
:10327000BCBE4CCA1B0E5AAEC59D7400FFD0DED03A
:1032800011241FBECFEFD1E2DEBFCDBF00E00CBFE7
:1032900013E0A0E0B2E0E4E7FBEB01E00BBF02C00B
:1032A00007900D92AA31B107D9F729E1AAE1B3E05D
:1032B00001C01D92AD32B207E1F719E1CFE3D9E1C8
:1032C00000E006C021970109802FFE010E94D1D1A4
:1032D000CE33D10780E00807A9F70E9485C40C947B
:1032E000A8DD0C9400002F923F924F925F926F9254
:1032F0007F928F929F92AF92BF92CF92DF92EF9286
:10330000FF920F931F93CF93DF93CDB7DEB7CB56CA
:10331000D1090FB6F894DEBF0FBECDBF1092450B9A
:1033200087E40E94EDC0F82E882309F419C40E9496
:1033300013C10E9441D36A30710509F48EC084F430
:103340006230710581F124F477FF23C00C947E3440
:103350006330710581F164307105C1F10C947E34E4
:103360006A35710509F4BCC354F46B30710509F476
:103370000AC16C31710509F47CC10C947E346B3543
:10338000710509F4B1C36C35710509F4B2C30C942D
:103390007E348091F803811106C00E94E15F0E9493
:1033A000215F0C945A3A8091F803811104C00E9465
:1033B000456181E007C08091F803811107C00E9438
:1033C000456180E00E94E15B0C945A3A80E50E94DE
:1033D000EDC0882339F00E9413C10E9446D36B01CF
:1033E0007C0103C0C12CD12C760183E50E94EDC085
:1033F000882361F00E9413C120E030E04AE754E4E2
:103400000E94C4D50E9446D36B017C010E94EFA9A3
:103410000E94376BC60ED71EE81EF91E0E94376B3E
:1034200060935407709355078093560790935707FE
:1034300081E08093450B0E94376B6C157D058E05EE
:103440009F0510F00C947E340E94DA6E0E943D5B62
:103450000E9420960E94599CEECF809134078111E2
:103460000C947E348091750B9091760BA091770B24
:10347000B091780B8093190A90931A0AA0931B0AB3
:10348000B0931C0A8091790B90917A0BA0917B0BE1
:10349000B0917C0B80931D0A90931E0AA0931F0A83
:1034A000B093200A80917D0B90917E0BA0917F0BB1
:1034B000B091800B8093210A9093220AA093230A53
:1034C000B093240AC090810BD090820BE090830BC4
:1034D000F090840BE0919D0B24E0E29FF001112419
:1034E000E756F44F208131814281538160914B0234
:1034F00070914C0280914D0290914E020E94D9D25F
:103500009B01AC01C701B6010E94FCD19B01AC013B
:103510006093250A7093260A8093270A9093280ABD
:1035200080902E0290902F02A0903002B090310235
:103530008091470290914802A0914902B0914A02BD
:1035400080932E0290932F02A0933002B093310209
:10355000C701B6010E94FCD160933607709337070C
:10356000809338079093390781E0809334070E9455
:10357000215F80922E0290922F02A0923002B09290
:1035800031020C947E3480913407882311F40C941A
:103590007E348091750B9091760BA091770BB09152
:1035A000780B8093190A90931A0AA0931B0AB09380
:1035B0001C0A8091790B90917A0BA0917B0BB091B2
:1035C0007C0B80931D0A90931E0AA0931F0AB09350
:1035D000200A80917D0B90917E0BA0917F0BB09182
:1035E000800B8093210A9093220AA093230AB09320
:1035F000240A2091360730913707409138075091BF
:1036000039076091810B7091820B8091830B9091AF
:10361000840B0E94FDD16093250A7093260A809343
:10362000270A9093280AC0902E02D0902F02E09093
:103630003002F09031028091160290911702A09111
:103640001802B091190280932E0290932F02A0933A
:103650003002B0933102109234070E94215FC09271
:103660002E02D0922F02E0923002F09231020C949E
:103670007E3485E08093450B80912E0290912F023D
:10368000A0913002B091310280931C0390931D03EE
:10369000A0931E03B0931F038091450290914602B0
:1036A00090931B0380931A0384E690E09093460264
:1036B000809345020E94376B6093540770935507BF
:1036C000809356079093570711E01093150280914D
:1036D000750B9091760BA091770BB091780B80933E
:1036E000190A90931A0AA0931B0AB0931C0A80919E
:1036F000790B90917A0BA0917B0BB0917C0B80930E
:103700001D0A90931E0AA0931F0AB093200A80916D
:103710007D0B90917E0BA0917F0BB091800B8093DD
:10372000210A9093220AA093230AB093240A80913D
:10373000810B9091820BA091830BB091840B8093AD
:10374000250A9093260AA093270AB093280A10927C
:103750002E0210922F02109230021092310288E550
:103760000E94EDC0882311F080E009C089E50E9425
:10377000EDC08111F9CF8AE50E94EDC081278093C9
:103780000402882309F4F4C01092750B1092760B92
:103790001092770B1092780B1092790B10927A0B93
:1037A00010927B0B10927C0B10927D0B10927E0B73
:1037B00010927F0B1092800B0E941B8980E090E496
:1037C000A1EAB3EC8093190A90931A0AA0931B0AFA
:1037D000B0931C0A80E090E8ADE9B3E480931D0A41
:1037E00090931E0AA0931F0AB093200A80E090E8ED
:1037F000ACEAB3E48093210A9093220AA093230AAF
:10380000B093240A80E090E8ABEBB5E480932E02FD
:1038100090932F02A0933002B09331024DE9C42E51
:103820004BE0D42EE12CF12C08EC12E425E23AE036
:1038300041E25AE06DE17AE089E19AE00E94E09D80
:103840000E94EFA90E9480B080E090E00E94B5C085
:1038500081E090E00E94B5C082E090E00E94B5C097
:103860000E941B898091750B9091760BA091770B2C
:10387000B091780B8093190A90931A0AA0931B0AAF
:10388000B0931C0A8091790B90917A0BA0917B0BDD
:10389000B0917C0B80931D0A90931E0AA0931F0A7F
:1038A000B093200A80917D0B90917E0BA0917F0BAD
:1038B000B091800B8093210A9093220AA093230A4F
:1038C000B093240A20E030E040E752E460912E02F9
:1038D00070912F0280913002909131020E94D9D2D2
:1038E0007B018C0125E23AE041E25AE06DE17AE0A9
:1038F00089E19AE00E94E09D10922E0210922F0220
:1039000010923002109231020E94EFA90E9480B002
:103910008091190A90911A0AA0911B0AB0911C0A71
:103920008093750B9093760BA093770BB093780BE5
:1039300080911D0A90911E0AA0911F0AB091200A41
:103940008093790B90937A0BA0937B0BB0937C0BB5
:103950008091210A9091220AA091230AB091240A11
:1039600080937D0B90937E0BA0937F0BB093800B85
:103970008091040281110C9483348AE50E94EDC089
:1039800081110C9483348091040281110C94893448
:1039900088E50E94EDC0882331F089E50E94EDC0E2
:1039A00081110C9489348091040281110C94553555
:1039B00088E50E94EDC081110C9455358091040278
:1039C00081110C945B3589E50E94EDC081110C9446
:1039D0005B3588E50E94EDC08823D1F00E9408C1C4
:1039E000672B682B692BA1F00E9413C12091C90F8E
:1039F0003091CA0F4091CB0F5091CC0F0E94FDD156
:103A00006093750B7093760B8093770B9093780B84
:103A100089E50E94EDC08823D1F00E9408C1672B80
:103A2000682B692BA1F00E9413C12091CD0F30911A
:103A3000CE0F4091CF0F5091D00F0E94FDD16093D7
:103A4000790B70937A0B80937B0B90937C0B8AE5B8
:103A50000E94EDC08823D1F00E9408C1672B682B1B
:103A6000692BA1F00E9413C12091D10F3091D20F88
:103A70004091D30F5091D40F0E94FDD160937D0BE4
:103A800070937E0B80937F0B9093800B0E941B8919
:103A90001092150280911C0390911D03A0911E03AA
:103AA000B0911F0380932E0290932F02A0933002B7
:103AB000B093310280911A0390911B0390934602B8
:103AC000809345020E94376B6093540770935507AB
:103AD00080935607909357070E9480B00C947E34D1
:103AE00010923F070C947E3481E080933F070C9442
:103AF0007E3485E40E94EDC0811102C00E94EFA9CE
:103B000021EBC22E22E0D22E35E7E32E3BE0F32E4E
:103B100010E0D6018D916D010E94EDC08823C1F0A7
:103B2000133061F40E9413C1F701608371838283B3
:103B3000938381E89BE00E94D49B0AC00E9413C13A
:103B4000D7016D937D938D939C9313970E941B894E
:103B50001F5FB4E0EB0EF11C1430D9F60C947E34E8
:103B60008DE40E94EDC0882311F40C940A320E9467
:103B700013C10E9441D36937710511F40C94E325F8
:103B80000CF09FC06035710509F43BC60CF04CC0C9
:103B90006731710509F4DEC134F56231710509F44C
:103BA0003DC69CF477FF02C00C947E3462307105F0
:103BB0000CF462C16131710511F00C947E341598DA
:103BC0004698439840980C947E346531710509F409
:103BD000B5C10CF0B7C16431710511F00C947E349D
:103BE000EBE0F6E062C16B31710509F4F0C13CF421
:103BF0006931710509F4D9C10CF4C2C1DAC16E3161
:103C0000710509F484C234F46C31710509F44DC2B4
:103C10000C947E346F31710509F4E5C26A32710586
:103C200009F43DC30C947E346936710509F4B4C3BC
:103C3000ECF46435710509F4F1C554F4623571058D
:103C400009F4E3C50CF0E5C50A9A12980C947E3489
:103C50006C35710509F435C66836710509F459C328
:103C60006535710511F00C947E3410C6623771050C
:103C700009F4CBC664F46B36710509F4BEC50CF4C7
:103C800047C56D36710509F42DC40C947E34653733
:103C9000710509F4A8C644F46337710511F00C945A
:103CA0007E34E7E1F5E09AC66737710509F490C7FD
:103CB0006837710511F00C947E34109215020C9443
:103CC0007E346039E1E07E0711F40C94D42C0CF0C2
:103CD00054C06F3C710511F40C943B27F4F46B3C19
:103CE000710511F40C947D2674F46E3B710509F492
:103CF00052C4693C710509F4DEC76C38710511F0D6
:103D00000C947E342DC36D3C710511F40C94BD26CA
:103D100014F40C949B260C941D276D3D710511F431
:103D20000C9403287CF4613D710511F40C948E27EA
:103D300014F40C946C276C3D710511F40C94F2276B
:103D40000C947E346D3221E0720711F40C94A72894
:103D50003CF46C32714011F40C941A280C947E34AB
:103D60006E3251E0750711F40C9473296F32714073
:103D700011F40C9488290C947E34603A93E079070E
:103D800009F4FCC1B4F56935B2E07B0711F40C9479
:103D9000DD2CACF4653FF1E07F0711F40C94D72CD7
:103DA000663F21E0720711F40C94DA2C61397140FE
:103DB00011F00C947E340E94CDA90C947E346E35A3
:103DC00042E0740711F40C94A52F3CF46D35724059
:103DD00011F40C94EC2E0C947E346B3893E079073C
:103DE00011F40C9462306B39734009F49EC10C9449
:103DF0007E346231B7E27B0711F40C94E53024F590
:103E00006031F7E27F0711F40C94A03014F00C94A9
:103E1000A330673E734011F00C947E341092F80387
:103E20008091580790915907A0915A07B0915B076C
:103E30008093F9039093FA03A093FB03B093FC03E0
:103E40000E94DAC30C947E34643147E2740711F4A3
:103E50000C94663114F40C943631653187E278079E
:103E600011F40C9496316A31774211F00C947E343F
:103E7000EEE6F4E00C94CD3181E08093CC0D80919E
:103E8000CC0D882311F40C947E340E94DA6E0E94CB
:103E90003D5B0E9420960E94599CF1CF9091C000FA
:103EA00095FFFCCF8093C600319684918111F6CFA7
:103EB0008091C00085FFFCCF8AE08093C6001092FD
:103EC000C20F1092C10F40E050E0BA018EEF9DE0AA
:103ED0000E946F4F8BE1EEEFFDE0DE011596019041
:103EE0000D928A95E1F78091FC0D9091FD0D9C83D8
:103EF0008B8389EB92E09A838983BE016F5F7F4F4A
:103F000087E193E00E942CB3CE0101960E943A58BB
:103F1000EDEFF5E08491882341F09091C00095FF8A
:103F2000FCCF8093C6003196F5CF8091C00085FF0D
:103F3000FCCF8AE08093C6000C947E340E94AD874B
:103F40000C947E341092CB0D1092CC0D1092F90D82
:103F50000C947E340091FD031091FE030C5F1F4F03
:103F60006AE270E0C8010E9487D5009719F0FC0151
:103F70003197108261E0C8010E9445B10C947E34F3
:103F80008091F90D882329F081E08093CB0D109268
:103F9000CC0D0E94376B6093680370936903809324
:103FA0006A0390936B030C947E340E941FB30C94AD
:103FB0007E348091F90D882311F40C947E34809125
:103FC000730F882311F40C9461350C947E34809126
:103FD000F90D8823A9F1E6E7F2E08491882341F006
:103FE0009091C00095FFFCCF8093C6003196F5CF2D
:103FF0006091BC0F7091BD0F8091BE0F9091BF0F6B
:104000004AE00E94B185E4E7F2E08491882341F020
:104010009091C00095FFFCCF8093C6003196F5CFFC
:104020006091B40F7091B50F8091B60F9091B70F5A
:104030004AE00E94B1858091C00085FFFCCF11C08D
:10404000E4E6F2E08491882341F09091C00095FF6E
:10405000FCCF8093C6003196F5CF8091C00085FFDC
:10406000FCCF8AE08093C6006091730F662311F441
:104070000C947E34E8E5F2E08491882341F090913D
:10408000C00095FFFCCF8093C6003196F5CF70E05D
:1040900080E090E00E9426868091C00085FFFCCFE2
:1040A0008AE08093C6000C947E348091FD03909149
:1040B000FE036AE270E004960E9487D58C01892B8A
:1040C000E1F0209118073091190740E6429FC001A6
:1040D000439F900D11246EE470E0885E9B4F0E9418
:1040E00087D560E270E00E9487D501969093FE0329
:1040F0008093FD03F801319710828091FD03909128
:10410000FE0360E004960E9445B10C947E348091D9
:10411000F90D882311F40C947E348091730F882359
:1041200011F40C9478350C947E340091FD031091B9
:10413000FE030C5F1F4F6AE270E0C8010E9487D542
:10414000009719F0FC013197108261E0C8010E94CC
:1041500045B18091F90D882329F081E08093CB0D42
:104160001092CC0D0E94376B6093680370936903C3
:1041700080936A0390936B030C947E348091FD03CB
:104180009091FE036AE270E005960E9487D58C014B
:10419000892BE1F0209118073091190740E6429FE2
:1041A000C001439F900D11246EE470E0885E9B4F28
:1041B0000E9487D560E270E00E9487D501969093B7
:1041C000FE038093FD03F801319710828091FD0377
:1041D0009091FE0321E02093CA0D60E005960E94B5
:1041E00045B10C947E340E94376B60936C037093DE
:1041F0006D0380936E0390936F0300916803109199
:10420000690320916A0330916B03601B710B820B71
:10421000930B28EE33E040E050E00E946DDDCA01D0
:10422000B9012CE330E040E050E00E946DDD7F9367
:104230006F933F932F938EEE95E09F938F938E0114
:104240000F5F1F4F1F930F930E94ECD9EFE0F7E031
:1042500084910FB6F894DEBF0FBECDBFEFE0F7E05C
:10426000882349F09091C00095FFFCCF8093C60051
:1042700031968491F5CFF8018191882339F090919E
:10428000C00095FFFCCF8093C600F6CF8091C000A0
:1042900085FFFCCF8AE08093C6000C947E3483E5D2
:1042A0000E94EDC0882311F40C947E340E9413C147
:1042B0000E9441D3F62EE72E862F9E2D8C0180E59D
:1042C0000E94EDC0882331F00F3F110509F010F472
:1042D0000C94E93688E090E0E0E6F2E0219131913B
:1042E0002817390711F40C947E3422E0E839F207DC
:1042F000A9F78730910519F4F0920C1004C097FFCC
:1043000002C00C947E346F2D7E2D0E944B6A0C945B
:104310007E3488E690E00E94425881110C947E34ED
:1043200083E50E94EDC0882311F40C947E34009143
:104330005C070E9413C110E00E9441D3F801EE0F08
:10434000FF1FEF5BF54F718360836138714014F498
:104350000C947E3481E891E0918380830C947E34C8
:1043600083E50E94EDC0882311F40C947E340E94F2
:1043700013C10E9441D37093440A6093430A633788
:10438000710514F40C947E3483E790E09093440A12
:104390008093430A0C947E3489E690E00E94425850
:1043A00081110C947E34E8EEF5E08491882341F08D
:1043B0009091C00095FFFCCF8093C6003196F5CF59
:1043C000E0915C0744E0E49FF0011124E35CF54FC9
:1043D000608171818281938141E00E944C86E5EE8B
:1043E000F5E08491882341F09091C00095FFFCCFC7
:1043F0008093C6003196F5CFE0915C07F0E0EE0FB8
:10440000FF1FEF5BF54F60817181072E000C880B59
:10441000990B0E9421DA41E00E944C86E1EEF5E022
:104420008491882341F09091C00095FFFCCF809348
:10443000C6003196F5CF6091390A70913A0A8091A1
:104440003B0A90913C0A41E00E944C86EEEDF5E07B
:104450008491882341F09091C00095FFFCCF809318
:10446000C6003196F5CF6091430A7091440A072E39
:10447000000C880B990B0E9421DA41E00E944C86C7
:10448000EAEDF5E08491882341F09091C00095FF1A
:10449000FCCF8093C6003196F5CFE0915C07F0E049
:1044A000E95BF54F608170E080E090E00E94268635
:1044B000E5EDF5E08491882341F09091C00095FFEF
:1044C000FCCF8093C6003196F5CF6091460A70E02C
:1044D00080E090E00E9426868091C00085FFFCCF9E
:1044E0000C9405328DE690E00E94425881110C94A4
:1044F0007E3483E08093450B83E50E94EDC08823E2
:10450000A9F000915C070E9413C110E00E9441D302
:10451000F801EE0FFF1FEF5BF54F71836083613889
:10452000714024F081E891E0918380830E94376B91
:104530002B013C01E0915C070E2F10E0F801EE0F1B
:10454000FF1FEF5BF54F60817181072E000C880B18
:10455000990B0E9421DAF801EE0FFF1FEE0FFF1FEB
:10456000E35CF54F11E020813181428153810E944B
:1045700023D418160CF010E088248A94982C540147
:104580006AEC262E65E0362E78ECE72E75E0F72EE5
:104590000AE00C94853784E08093450B83E50E9404
:1045A000EDC0882389F00E9413C10E9441D370930B
:1045B000440A6093430A6337710534F083E790E05F
:1045C0009093440A8093430A0E94376B4B015C012D
:1045D00005EC15E071ECE72E75E0F72EEDEBCE2E35
:1045E000E5E0DE2EFAE07F2E8091430A9091440AA6
:1045F0000297BC01990F880B990B0E9421DA9B014D
:10460000AC016091390A70913A0A80913B0A90910D
:104610003C0A0E941BDA87FF6FC00E94376BDC01E7
:10462000CB0188199909AA09BB09893E9340A105C4
:10463000B10508F458C0E0919D0B24E0E29FF00121
:104640001124E35CF54F6081718182819381F801CF
:104650002491E5ECF5E0222349F03091C00035FFCC
:10466000FCCF2093C60031962491F5CF42E00E9402
:104670004C86F7018491E1ECF5E0882349F09091B4
:10468000C00095FFFCCF8093C60031968491F5CF92
:1046900060919D0B70E080E090E00E942686F6011C
:1046A0008491EDEBF5E0882349F09091C00095FFEF
:1046B000FCCF8093C60031968491F5CF6091390A82
:1046C00070913A0A80913B0A90913C0A41E00E9425
:1046D0004C868091C00085FFFCCF7092C6000E947E
:1046E000376B4B015C010E94DA6E0E943D5B0E94B9
:1046F00020960E94599C78CF0E94376B6093540794
:104700007093550780935607909357070C947E3407
:1047100083E50E94EDC0882309F461C00E9413C1A3
:104720006B017C0180915902682F70E080E090E07D
:104730000E9421DA9B01AC01C701B6010E94C4D5D9
:1047400020E030E048EC52E40E94D9D220E030E092
:10475000A9010E941BDA87FD3BC00E9413C16B01B7
:104760007C0180915902682F70E080E090E00E9407
:1047700021DA9B01AC01C701B6010E94C4D520E03B
:1047800030E048EC52E40E94D9D220E030E04FE71C
:1047900053E40E9423D41816ECF00E9413C16B015D
:1047A0007C0180915902682F70E080E090E00E94C7
:1047B00021DA9B01AC01C701B6010E94C4D520E0FB
:1047C00030E048EC52E40E94D9D20E9446D303C0A4
:1047D00060E001C06FEF60930C100C947E34809108
:1047E0005902FFEF8F9FC001112464E670E00E9420
:1047F000A1D160930C100C947E3410920C100C9488
:104800007E340A9A129A0C947E34109243070C94C8
:104810007E3481E0809343070C947E3483E50E94CC
:10482000EDC08823A1F00E9413C120E030E04AE7E8
:1048300054E40E94C4D50E9446D360932A02709328
:104840002B0280932C0290932D020C947E3488E5E9
:104850000E94EDC081110C94333889E50E94EDC0AF
:1048600081110C9433388AE50E94EDC081110C94BB
:10487000333885E40E94EDC081110C9433380E94D6
:10488000EFA9409A0E94FFA90C947E3483E50E9410
:10489000EDC0882311F40C947E340E9413C120E0F3
:1048A00030E04AE754E40E94C4D50E9446D36093A6
:1048B00050077093510780935207909353070C94BD
:1048C0007E3451EB852E52E0952E0EEA1BE060EF10
:1048D000A62E6FE0B62E2DE030E13DAF2CAF312C8F
:1048E000D4018D914D010E94EDC0882309F45EC072
:1048F000B3E03B1254C00E9413C12B013C0120E0E5
:1049000030E040EA51E40E941BDA87FF41C0A30176
:104910009201F80160817181828193810E94D9D2D4
:104920006B017C019B01AC016091DC0F7091DD0F8C
:104930008091DE0F9091DF0F0E94C4D56093DC0F51
:104940007093DD0F8093DE0F9093DF0FA701960128
:10495000D5016D917D918D919C910E94C4D5F501F9
:104960006083718382839383ACADBDAD6D917D9186
:104970008D919C910E941FDAA70196010E94C4D5D7
:104980000E9446D3ECADFDAD608371838283938337
:10499000D8014D925D926D927C92139707C00E9450
:1049A00013C1F801608371838283938333940C5F16
:1049B0001F4FF4E0AF0EB11C2CAD3DAD2C5F3F4F4F
:1049C0003DAF2CAF34E033128BCF0C947E349091FA
:1049D000C00095FFFCCF8093C60031968491811171
:1049E000F6CF0C947E348091FD039091FE036AE231
:1049F00070E005960E9487D5009711F40C947E34E0
:104A0000FC01319710820C947E34E4E1F5E084914E
:104A1000882341F09091C00095FFFCCF8093C600A1
:104A20003196F5CF6091750B7091760B8091770B75
:104A30009091780B42E00E944C86E1E1F5E0849190
:104A4000882341F09091C00095FFFCCF8093C60071
:104A50003196F5CF6091790B70917A0B80917B0B39
:104A600090917C0B42E00E944C86EEE0F5E0849150
:104A7000882341F09091C00095FFFCCF8093C60041
:104A80003196F5CF60917D0B70917E0B80917F0BFD
:104A90009091800B42E00E944C86EBE0F5E084911F
:104AA000882341F09091C00095FFFCCF8093C60011
:104AB0003196F5CF6091810B7091820B8091830BC1
:104AC0009091840B42E00E944C86E0E0F5E08491F6
:104AD000882341F09091C00095FFFCCF8093C600E1
:104AE0003196F5CF2FB7F8946091650B7091660BF6
:104AF0008091670B9091680B2FBF0E9421DA209163
:104B0000AE0B3091AF0B4091B00B5091B10B0E94A6
:104B1000D9D242E00E944C86EDEFF4E084918823E4
:104B200041F09091C00095FFFCCF8093C600319674
:104B3000F5CF2FB7F8946091690B70916A0B809153
:104B40006B0B90916C0B2FBF0E9421DA2091B20B5E
:104B50003091B30B4091B40B5091B50B0E94D9D258
:104B600042E00E944C86EAEFF4E08491882341F011
:104B70009091C00095FFFCCF8093C6003196F5CF91
:104B80002FB7F89460916D0B70916E0B80916F0B45
:104B90009091700B2FBF0E9421DA2091B60B3091BB
:104BA000B70B4091B80B5091B90B0E94D9D242E09B
:104BB0000E944C868091C00085FFFCCF8AE08093E4
:104BC000C6000C947E3481E0809315020C947E34F0
:104BD000E1EEF4E08491882341F09091C00095FFCC
:104BE000FCCF8093C6003196F5CF8091C00085FF41
:104BF000FCCF8AE08093C600E9EDF4E0849188233D
:104C000041F09091C00095FFFCCF8093C600319693
:104C1000F5CF009B03C0EAECF4E00AC0EFECF4E04F
:104C200007C09091C00095FFFCCF8093C6003196DD
:104C300084918111F6CFE2ECF4E08491882341F075
:104C40009091C00095FFFCCF8093C6003196F5CFC0
:104C5000049B03C0E3EBF4E00AC0E8EBF4E007C018
:104C60009091C00095FFFCCF8093C600319684914F
:104C70008111F6CFEBEAF4E08491882341F0909122
:104C8000C00095FFFCCF8093C6003196F5CF079BFF
:104C900003C0ECE9F4E00AC0E1EAF4E007C0909157
:104CA000C00095FFFCCF8093C6003196849181119E
:104CB000F6CF0C947E343DE1E32E30E1F32E01EB90
:104CC00012E044E0D42ED00ED8018D918D010E94C7
:104CD000EDC0882349F00E9413C10E9446D3F7011A
:104CE0006083718382839383F4E0EF0EF11CD01212
:104CF000EBCF0E94F6B00C947E3490EFE92E9FE04B
:104D0000F92E01EB12E024E0D22ED00ED8018D91C5
:104D10008D010E94EDC0882339F00E9413C1F70174
:104D20006083718382839383F4E0EF0EF11CD012D1
:104D3000EDCF0C947E3483E50E94EDC0882351F0C2
:104D40000E9413C16093E80F7093E90F8093EA0FFC
:104D50009093EB0F84E50E94EDC0882311F40C942E
:104D60007E340E9413C16093EC0F7093ED0F80931B
:104D7000EE0F9093EF0F0C947E3483E50E94EDC00C
:104D8000882351F00E9413C16093041070930510A2
:104D9000809306109093071084E50E94EDC088234D
:104DA00051F00E9413C16093081070930910809312
:104DB0000A1090930B1082E40E94EDC0882361F0EA
:104DC0000E9413C10E9446D360930010709301109B
:104DD000809302109093031088E50E94EDC0882311
:104DE00051F00E9413C16093E40F7093E50F80931C
:104DF000E60F9093E70F8AE50E94EDC0882351F0FB
:104E00000E9413C16093E00F7093E10F8093E20F53
:104E10009093E30F85E40E94EDC0882311F40C9475
:104E20007E340E9413C16093DC0F7093DD0F80937A
:104E3000DE0F9093DF0F0C947E3419ECE12E1FE00F
:104E4000F12E01EB12E083E0D82ED00ED8018D9127
:104E50008D010E94EDC0882339F00E9413C1F70133
:104E60006083718382839383F4E0EF0EF11CD01290
:104E7000EDCF0C947E3483E50E94EDC0882351F081
:104E80000E9413C160934B0270934C0280934D02B9
:104E900090934E0286E40E94EDC0882351F00E9458
:104EA00013C1609347027093480280934902909324
:104EB0004A028AE50E94EDC0882311F40C947E34E6
:104EC0000E9413C160931A0270931B0280931C020C
:104ED00090931D020C947E3483E50E94EDC08823DC
:104EE00051F00E9413C16093360770933707809387
:104EF00038079093390786E40E94EDC0882311F4A7
:104F00000C947E340E9413C16093160270931702B2
:104F100080931802909319020C947E3483E50E94CA
:104F2000EDC0882311F40C947E340E9413C10E94BA
:104F300041D36115710551F06130710569F481E06B
:104F400080933A07109234070C947E3410923A07FB
:104F5000109234070C947E34EFE0F7E084918823BC
:104F600041F09091C00095FFFCCF8093C600319630
:104F7000F5CFE9E8F4E08491882341F09091C000F6
:104F800095FFFCCF8093C6003196F5CF809118072E
:104F90009091190720E6289FF001299FF00D112418
:104FA000E85EFB4F8191882339F09091C00095FF16
:104FB000FCCF8093C600F6CFE7E8F4E08491882325
:104FC00041F09091C00095FFFCCF8093C6003196D0
:104FD000F5CF8091C00085FFFCCF8AE08093C600AA
:104FE0000C947E3483E50E94EDC0882311F40C9468
:104FF0007E340E9413C10E9441D370934602609395
:1050000045020C947E3483E50E94EDC0882311F4A0
:105010000C947E3400919D0B10E00E9413C1000F90
:10502000111F015B1D4F0E9441D3D8016D937C93EA
:105030000C947E3483E50E94EDC0882331F00E94F9
:1050400013C10E9446D37B0103C0AEE6EA2EF12CC9
:1050500080E50E94EDC0882311F40C944C380E9426
:1050600013C10E9446D38B01E114F10409F443C03B
:10507000970140E050E060E271EA87E090E00E9432
:10508000B4D169017A01F22FED2DA701013ABFE0F9
:105090001B0710F000EA1FE09801A4EFB1E00E94A6
:1050A00099DD2F2F3E2F0E946DDDB601CC0CDD1C4B
:1050B000CC0CDD1CE5E0CE1AD10880E090E0DC01EC
:1050C00082179307A407B50711F40C947E345B9AFA
:1050D0006230710518F0F6013197F1F75B98623094
:1050E000710518F0F6013197F1F70196A11DB11D78
:1050F000E7CF08EE13E06801E12CF12C0E94126B5F
:105100004B015C01C114D104E104F10411F40C94CD
:105110007E340E94126BDC01CB0188199909AA091F
:10512000BB09883E9340A105B10560F3F1E0CF1AB9
:10513000D108E108F10828EE820E23E0921EA11C9E
:10514000B11CC114D104E104F10419F7DBCF80E5EF
:105150000E94EDC0882351F00E9413C16093360273
:1051600070933702809338029093390289E40E9449
:10517000EDC0882381F00E9413C12DEB37E346E098
:105180005DE30E94C4D56093090270930A02809384
:105190000B0290930C0284E40E94EDC0882381F0FE
:1051A0000E9413C12DEB37E346E05DE30E94D9D2A4
:1051B00060933202709333028093340290933502ED
:1051C00083E40E94EDC0882351F00E9413C16093D4
:1051D00000027093010280930202909303020E94E6
:1051E0000E71E4E8F4E08491882341F09091C000CE
:1051F00095FFFCCF8093C6003196F5CFE0E8F4E050
:105200008491882341F09091C00095FFFCCF80935A
:10521000C6003196F5CF60913602709137028091C9
:1052200038029091390242E00E944C86ECE7F4E0AB
:105230008491882341F09091C00095FFFCCF80932A
:10524000C6003196F5CF2DEB37E346E05DE3609184
:10525000090270910A0280910B0290910C020E9447
:10526000D9D242E00E944C86E8E7F4E0849188239A
:1052700041F09091C00095FFFCCF8093C60031961D
:10528000F5CF2DEB37E346E05DE36091320270919C
:10529000330280913402909135020E94C4D542E0DD
:1052A0000E944C86E4E7F4E08491882341F09091D9
:1052B000C00095FFFCCF8093C6003196F5CF60917A
:1052C000000270910102809102029091030242E07B
:1052D0000E944C868091C00085FFFCCF8AE08093BD
:1052E000C6000C947E3483E50E94EDC0882319F03B
:1052F0000E9413C103C060E070E0CB0160935102D3
:105300007093520280935302909354020C947E3413
:1053100085E40E94EDC0882341F00E9413C10E94E1
:1053200041D38B0177FF03C011C000E010E0289645
:105330001FAE289729961FAE299746E12A964FAFB0
:105340002A9753E42B965FAF2B970EC028961FAE7B
:10535000289729961FAE29978CE82A968FAF2A970F
:1053600092E42B969FAF2B9783E50E94EDC0882394
:1053700071F00E9413C128966FAF289729967FAFCE
:1053800029972A968FAF2A972B969FAF2B9783E466
:105390000E94EDC0882349F00E9413C10E9441D3AE
:1053A000A7967FAF6EAFA79706C0A5E0B0E0A7961F
:1053B000BFAFAEAFA7970E94376B27966CAF7DAF9C
:1053C0008EAF9FAF279702301105B4F0E2ECF3E007
:1053D0008491882341F09091C00095FFFCCF809389
:1053E000C6003196F5CF8091C00085FFFCCF8AE0E2
:1053F0008093C6000C947E34EFEAF3E08491882316
:1054000041F09091C00095FFFCCF8093C60031968B
:10541000F5CF8091C00085FFFCCF8AE08093C60065
:105420000E948D6B8FE717FF64C08093460A279612
:105430002CAD3DAD4EAD5FAD279765962CAF3DAF22
:105440004EAF5FAF6597AB962CAF3DAF4EAF5FAF42
:10545000AB972C961FAE2C9730E466963FAF6697BD
:105460004CE167964FAF679756E468965FAF6897D1
:1054700069961FAE69976A961FAE6A976B961FAEC4
:105480006B976C961FAE6C978FE790E0A0E0B0E052
:1054900023968CAF9DAFAEAFBFAF23977FE7472E6C
:1054A000512C612C712CA3961CAE1DAE1EAE1FAEEE
:1054B000A39791E06D969FAF6D9761961FAE1EAE5C
:1054C00061971CAE212C312C1EAED801A95BB54FC3
:1054D000A596BFAFAEAFA597C801880F991F880FDB
:1054E000991FFC01E35CF54F6F96FFAFEEAF6F972E
:1054F00009C0F801E95BF54F808399CF0E9420969F
:105500000E94599C8091450A882309F45EC10E943B
:10551000B86E17FF0BC0F091390AFCAF20903A0A21
:1055200030903B0A20913C0A2EAF0EC06F96AEAD74
:10553000BFAD6F97BC91BCAF6F96EEADFFAD6F97EF
:1055400021803280F381FEAF2CAD322D432D5EAD34
:1055500069966FAD69976A967FAD6A976B968FADC6
:105560006B976C969FAD6C970E9423D4181674F0BD
:105570002CAD69962FAF69976A962FAE6A976B9696
:105580003FAE6B973EAD6C963FAF6C972CAD322D16
:10559000432D5EAD2C966FAD2C9766967FAD6697CA
:1055A00067968FAD679768969FAD68970E941BDAE4
:1055B00087FD0EC04CAD2C964FAF2C9766962FAE44
:1055C000669767963FAE67975EAD68965FAF6897E0
:1055D0006D968FAD6D97882309F475C028962FAD11
:1055E000289729963FAD29972A964FAD2A972B9653
:1055F0005FAD2B976CAD722D832D9EAD0E9423D491
:1056000018160CF0E2C00E94376BDC01CB01279624
:105610002CAD3DAD4EAD5FAD2797821B930BA40B18
:10562000B50B89389341A105B10508F4CEC0D3016B
:10563000C20123962CAD3DAD4EAD5FAD2397821BCD
:10564000930BA40BB50BB595A7959795879517FF69
:1056500003C08093460A05C0A596EEADFFADA597A1
:1056600080830E94376B65966CAF7DAF8EAF9FAF26
:1056700065979B01AC0127968CAD9DADAEADBFADDE
:105680002797281B390B4A0B5B0BA3962CAF3DAF1A
:105690004EAF5FAFA39728969FAD289769969FAFAF
:1056A00069972996AFAD29976A96AFAF6A972A9600
:1056B000BFAD2A976B96BFAF6B972B96EFAD2B972D
:1056C0006C96EFAF6C9728962FAD289729963FAD33
:1056D00029972A964FAD2A972B965FAD2B976CADE5
:1056E000722D832D9EAD0E941BDA87FD02C00C94A3
:1056F0003C3A0E94376BDC01CB0165962CAD3DAD89
:105700004EAD5FAD6597821B930BA40BB50B89382B
:105710009341A105B10510F40C943C3A0E94376BFB
:1057200027966CAF7DAF8EAF9FAF2797DC01CB0183
:1057300065962CAD3DAD4EAD5FAD6597821B930B6D
:10574000A40BB50B61964EAD5FAD619714161506AF
:1057500014F40C94633823968CAD9DADAEADBFAD03
:105760002397840D951DA61DB71DB595A7959795F3
:10577000879517FD02C00C94353A8093460A6196CE
:105780002EAD3FAD61972F5F3F4F61963FAF2EAF7C
:10579000619728963FAD28972C963FAF2C97299676
:1057A0004FAD299766964FAF66972A965FAD2A97B9
:1057B00067965FAF67972B968FAD2B9768968FAFE5
:1057C000689791E06D969FAF6D9720E030E040EADA
:1057D00051E428966FAD289729967FAD29972A9690
:1057E0008FAD2A972B969FAD2B970E94FDD19B01E1
:1057F000AC016CAD722D832D9EAD0E9423D4181682
:10580000B4F4EFE3F3E08491882341F09091C00079
:1058100095FFFCCF8093C6003196F5CF8091C000F4
:1058200085FFFCCF8AE08093C6000C947E340E94F2
:10583000376BDC01CB01AB962CAD3DAD4EAD5FAD12
:10584000AB97821B930BA40BB50B813D9740A10531
:10585000B10508F44EC017FF10C0E090460AF12CC5
:10586000E9E3F3E084918823D9F09091C00095FF9B
:10587000FCCF8093C6003196F5CFA596AEADBFADF7
:10588000A597EC90F12CE3E3F3E08491882341F0B9
:105890009091C00095FFFCCF8093C6003196F5CF64
:1058A00042E06CAD722D832D9EAD0E944C86EFE2DE
:1058B000F3E08491882341F09091C00095FFFCCFE4
:1058C0008093C6003196F5CFB701FF0C880B990B7A
:1058D0000E9426868091C00085FFFCCF8AE08093DD
:1058E000C6000E94376BAB966CAF7DAF8EAF9FAF9B
:1058F000AB970E94376B6B017C010E94376B6596FA
:105900008CAC9DACAEACBFAC659727962CAD3DADD5
:105910004EAD5FAD2797820E931EA41EB51EC8180C
:10592000D908EA08FB08DC01CB018C0D9D1DAE1DDA
:10593000BF1D81389F44A241B105A8F0E2E1F3E028
:105940008491882341F09091C00095FFFCCF809313
:10595000C6003196F5CF8091C00085FFFCCF8AE06C
:105960008093C600CBC761964EAD5FAD6197A79699
:105970008EAD9FADA797841795070CF0BFCDE6ECD1
:10598000F2E08491882341F09091C00095FFFCCF14
:105990008093C6003196F5CF8091C00085FFFCCF83
:1059A0008AE08093C600AAC70E94EFA9A7C70E94F9
:1059B00050C2A4C70E9450C2A1C70E94EFA9009183
:1059C000750B1091760B2091770B3091780B09A312
:1059D0001AA32BA33CA34091790B50917A0B6091B1
:1059E0007B0B70917C0B4DA35EA36FA378A7809176
:1059F0007D0B90917E0BA0917F0BB091800B89A7BE
:105A00009AA7ABA7BCA7C090810BD090820BE09067
:105A1000830BF090840B09831A832B833C834D8383
:105A20005E836F83788789879A87AB87BC87CD86AB
:105A3000DE86EF86F88AE0919D0B94E0E99FF00105
:105A40001124E756F44F20813181428153816091C6
:105A50004B0270914C0280914D0290914E020E9437
:105A6000D9D29B01AC01C701B6010E94FCD16DA740
:105A70007EA78FA798AB20E030E040E752E460912A
:105A80004702709148028091490290914A020E9417
:105A9000D9D22DE9C22E2BE0D22E7B018C019E01A2
:105AA000235D3F4FAE01475D5F4FBE016B5D7F4F92
:105AB000CE0181960E94E09D8AE50E94EDC0882378
:105AC00071F00E9413C19B01AC0169A57AA58BA559
:105AD0009CA50E94FDD169A77AA78BA79CA71DE969
