:100000000C949F1C0C94CC1C0C94CC1C0C94CC1CFD
:100010000C94CC1C0C94CC1C0C94CC1C0C94CC1CC0
:100020000C94CC1C0C94CC1C0C94CC1C0C94CC1CB0
:100030000C94CC1C0C94CC1C0C94CC1C0C94CC1CA0
:100040000C94CC1C0C9456940C94CC1C0C94CC1C8E
:100050000C94CC1C0C94CC1C0C94F99C0C940DFAB4
:100060000C94CC1C0C94C83D0C94CC1C0C94CC1C53
:100070000C94CC1C0C94CC1C0C94CC1C0C94CC1C60
:100080000C94CC1C0C94CC1C0C94CC1C0C94CC1C50
:100090000C94CC1C0C94CC1C0C94CC1C0C9400B078
:1000A0000C94CC1C0C94CC1C0C94CC1C0C94CC1C30
:1000B0000C94CC1C0C94CC1C0C94CC1C0C94CC1C20
:1000C0000C94CC1C0C94CC1C0C94CC1C0C94CC1C10
:1000D0000C94CC1C0C94CC1C0C94CC1C0C94CC1C00
:1000E0000C94CC1C33394139453949394D39513992
:1000F0003039553959395E39303963396A3972398D
:100100007A3982398A39303992399A39A539303970
:10011000B039BD39BF39C139C339C539C739C93912
:10012000CB39CD39CF39D139D339D539D739D93977
:10013000DB393039303930393039303930393039CC
:100140003039303930393039303930393039303967
:100150003039303930393039303930393039303957
:100160003039303930393039303930393039303947
:100170003039303930393039303930393039303937
:100180003039303930393039303930393039303927
:100190003039303930393039303930393039303917
:1001A000303930393039303930393039DE391B3A6D
:1001B000084AD73B3BCE016E84BCBFFDC12F3D6CCE
:1001C00074319ABD56833DDA3D00C77F11BED9E434
:1001D000BB4C3E916BAAAABE000000803F05A84C14
:1001E000CDB2D44EB93836A9020C50B991868808E0
:1001F0003CA6AAAA2ABE000000803F4D38342058F1
:100200002059205A2045006563686F3A0043616EAB
:100210006E6F7420656E74657220737562646972A6
:100220003A20004D3234004D323320257300617581
:10023000746F25692E67004572726F723A0065729D
:10024000726F722077726974696E6720746F2066AE
:10025000696C650043617264206572726F723A0066
:100260004E6F74205344207072696E74696E67001B
:100270002F005344207072696E74696E6720627932
:10028000746520002E0044656C6574696F6E20668D
:1002900061696C65642C2046696C653A200046698A
:1002A0006C652064656C657465643A002E006F703F
:1002B000656E206661696C65642C2046696C653AE0
:1002C000200057726974696E6720746F2066696CCC
:1002D000653A20002E006F70656E206661696C655E
:1002E000642C2046696C653A20002E006F70656EA4
:1002F000206661696C65642C2046696C653A200053
:1003000046696C652073656C656374656400205391
:10031000697A653A200046696C65206F70656E6584
:10032000643A20002E006F70656E206661696C650E
:10033000642C2046696C653A200053442063617246
:1003400064206F6B006F70656E526F6F7420666112
:10035000696C656400766F6C756D652E696E697485
:10036000206661696C656400534420696E6974207D
:100370006661696C0043616E6E6F74206F70656EAC
:1003800020737562646972006563686F3A00486142
:100390007264636F6465642044656661756C742083
:1003A00053657474696E6773204C6F616465640093
:1003B000563031300053746F726564207365747405
:1003C000696E677320726574726965766564002072
:1003D00044002049002020204D333031205000506F
:1003E00049442073657474696E67733A00205A003B
:1003F00020590020204D323036205800486F6D655E
:10040000206F666673657420286D6D293A0020455B
:1004100000205A0020580020420020540020204D87
:10042000323035205300416476616E636564207616
:1004300061726961626C65733A20533D4D696E204B
:10044000666565647261746520286D6D2F73292C53
:1004500020543D4D696E2074726176656C2066652E
:1004600065647261746520286D6D2F73292C20429C
:100470003D6D696E696D756D207365676D656E7430
:100480002074696D6520286D73292C20583D6D619D
:1004900078696D756D205859206A65726B20286DDA
:1004A0006D2F73292C20205A3D6D6178696D756D13
:1004B000205A206A65726B20286D6D2F73292C20BD
:1004C00020453D6D6178696D756D2045206A6572C6
:1004D0006B20286D6D2F73290020540020204D3291
:1004E0003034205300416363656C65726174696FD9
:1004F0006E3A20533D616363656C65726174696F28
:100500006E2C20543D726574726163742061636364
:10051000656C65726174696F6E00204500205A0039
:1005200020590020204D3230312058004D6178692B
:100530006D756D20416363656C65726174696F6E82
:1005400020286D6D2F7332293A00204500205A0073
:1005500020590020204D3230332058004D617869F9
:100560006D756D2066656564726174657320286DB4
:100570006D2F73293A00204500205A002059002091
:10058000204D3932205800537465707320706572A5
:1005900020756E69743A0053657474696E677320D0
:1005A00053746F72656400544553540D0A000D0A6C
:1005B00000556E6B6E6F776E20636F6D6D616E644C
:1005C0003A20000D0A003F0056657273696F6E2075
:1005D000444556006563686F3A004D323138204912
:1005E0006E76616C696420657874727564657220DA
:1005F000004D31303920496E76616C696420657830
:1006000074727564657220004D31303520496E7604
:10061000616C696420657874727564657220004D40
:1006200031303420496E76616C696420657874726B
:100630007564657220004572726F723A005072697B
:100640006E7465722073746F707065642064756574
:1006500020746F206572726F72732E204669782045
:10066000746865206572726F7220616E64207573A4
:1006700065204D39393920746F2072657374617249
:10068000742E202854656D706572617475726520D2
:1006900069732072657365742E20536574206974C4
:1006A0002061667465722072657374617274696E1C
:1006B0006729005072696E7465722068616C746598
:1006C000642E206B696C6C28292063616C6C6564F6
:1006D00021006F6B00526573656E643A2000220042
:1006E000556E6B6E6F776E20636F6D6D616E643AE1
:1006F000202200456C656374726F6E6963735F746A
:100700006573740041637469766520457874727509
:100710006465723A2000496E76616C696420657880
:1007200074727564657200540020423A30002042B1
:100730003A31006F6B20523A0020633A0020643A4D
:100740000020693A0020703A006F6B002200556E5D
:100750006B6E6F776E20636F6D6D616E643A2022F1
:10076000006F70656E00545249474745524544003A
:100770007A5F6D61783A20006F70656E005452495F
:1007800047474552454400795F6D61783A20006FD4
:1007900070656E0054524947474552454400785FA2
:1007A0006D696E3A20005265706F7274696E6720D1
:1007B000656E6473746F7020737461747573005A1E
:1007C0003A00593A0020436F756E7420583A200061
:1007D000453A005A3A00593A00583A004649524DB3
:1007E000574152455F4E414D453A4D61726C696EBD
:1007F00020556C74696D616B6572323B2053707269
:10080000696E7465722F6772626C206D61736875B2
:100810007020666F722067656E36204649524D57CC
:100820004152455F55524C3A687474703A2F2F67A5
:1008300069746875622E636F6D2F556C74696D6194
:100840006B65722050524F544F434F4C5F56455288
:1008500053494F4E3A312E30204D414348494E4581
:100860005F545950453A556C74696D616B657220DF
:1008700045585452554445525F434F554E543A31B2
:100880000A0020423A0020453A00543A003F002036
:10089000573A0020453A00543A002042403A00209E
:1008A000403A00202F0020423A00202F006F6B209A
:1008B000543A002569206D696E2C202569207365E6
:1008C0006300456E642066696C65206C6973740012
:1008D000426567696E2066696C65206C6973740097
:1008E00000000000000052430000664300000000CA
:1008F00000000000000000000000574300005243C9
:1009000000006643456E6473746F70207374696C85
:100910006C20707265737365642061667465722003
:100920006261636B696E67206F66662E20456E6438
:1009300073746F7020737475636B3F00456E6473DE
:10094000746F70206E6F74207072657373656420AD
:10095000616674657220686F6D696E6720646F7779
:100960006E2E20456E6473746F702062726F6B65BB
:100970006E3F00456E6473746F70206E6F742070EC
:1009800072657373656420616674657220686F6D4B
:10099000696E6720646F776E2E20456E6473746F86
:1009A000702062726F6B656E3F000000574300005D
:1009B0005243000066430000E0400000E0400000B9
:1009C000E040FF0101256920686F75727320256979
:1009D000206D696E7574657300446F6E652070726A
:1009E000696E74696E672066696C65005072696E25
:1009F0007465722073746F7070656420647565200F
:100A0000746F206572726F72732E2046697820743D
:100A10006865206572726F7220616E6420757365FF
:100A2000204D39393920746F207265737461727486
:100A30002E202854656D7065726174757265206929
:100A4000732072657365742E205365742069742059
:100A500061667465722072657374617274696E6721
:100A600029006F6B004E6F204C696E65204E756DCE
:100A7000626572207769746820636865636B73755B
:100A80006D2C204C617374204C696E653A20004EC9
:100A90006F20436865636B73756D20776974682098
:100AA0006C696E65206E756D6265722C204C617389
:100AB00074204C696E653A2000636865636B7375DA
:100AC0006D206D69736D617463682C204C61737463
:100AD000204C696E653A20004C696E65204E756D3C
:100AE000626572206973206E6F74204C617374208C
:100AF0004C696E65204E756D6265722B312C204CF1
:100B0000617374204C696E653A20004D31313000BC
:100B1000446F6E6520736176696E672066696C65E7
:100B20002E006F6B004D3239002020506C616E6ECC
:100B3000657242756666657242797465733A200023
:100B40002046726565204D656D6F72793A20004FC1
:100B50006374203139203230313600436F6D706953
:100B60006C65643A200056657273696F6E20444567
:100B70005600207C20417574686F723A20004F63E4
:100B80007420313920323031362030393A34393A14
:100B9000313200204C617374205570646174656457
:100BA0003A2000312E302E30004D61726C696E207B
:100BB0000020536F667477617265205265736574A7
:100BC00000205761746368646F67205265736574B1
:100BD000002042726F776E206F75742052657365C6
:100BE00074002045787465726E616C20526573657F
:100BF0007400506F77657255700073746172740081
:100C00002200656E717565696E672022002200659D
:100C10006E717565696E672022006563686F3A00C2
:100C200020746F6F206C6F6E6720657874727573B7
:100C3000696F6E2070726576656E746564002063FE
:100C40006F6C6420657874727573696F6E20707252
:100C50006576656E74656400000021104220633083
:100C60008440A550C660E770088129914AA16BB104
:100C70008CC1ADD1CEE1EFF13112100273325222AC
:100C8000B5529442F772D662399318837BB35AA354
:100C9000BDD39CC3FFF3DEE362244334200401147C
:100CA000E664C774A44485546AA54BB528850995A4
:100CB000EEE5CFF5ACC58DD553367226111630064C
:100CC000D776F6669556B4465BB77AA719973887F4
:100CD000DFF7FEE79DD7BCC7C448E5588668A7780C
:100CE0004008611802282338CCC9EDD98EE9AFF944
:100CF000488969990AA92BB9F55AD44AB77A966AEC
:100D0000711A500A333A122AFDDBDCCBBFFB9EEB93
:100D1000799B588B3BBB1AABA66C877CE44CC55CBB
:100D2000222C033C600C411CAEED8FFDECCDCDDDE3
:100D30002AAD0BBD688D499D977EB66ED55EF44E8B
:100D4000133E322E511E700E9FFFBEEFDDDFFCCF33
:100D50001BBF3AAF599F788F8891A981CAB1EBA187
:100D60000CD12DC14EF16FE18010A100C230E32003
:100D70000450254046706760B9839893FBA3DAB3AB
:100D80003DC31CD37FE35EF3B1029012F322D23253
:100D90003542145277625672EAB5CBA5A89589857B
:100DA0006EF54FE52CD50DC5E234C324A0148104A3
:100DB0006674476424540544DBA7FAB79987B8974B
:100DC0005FE77EF71DC73CD7D326F2369106B016F3
:100DD00057667676154634564CD96DC90EF92FE90B
:100DE000C899E9898AB9ABA9445865480678276843
:100DF000C018E1088238A3287DCB5CDB3FEB1EFBEB
:100E0000F98BD89BBBAB9ABB754A545A376A167A92
:100E1000F10AD01AB32A923A2EFD0FED6CDD4DCDBA
:100E2000AABD8BADE89DC98D267C076C645C454CE2
:100E3000A23C832CE01CC10C1FEF3EFF5DCF7CDF8A
:100E40009BAFBABFD98FF89F176E367E554E745E32
:100E5000932EB23ED10EF01E7C3C3E5E2B3D3F2FCA
:100E60005B5D3B2C2A225C0045313A200045303A3C
:100E700020005A3A2000593A2000583A20004D5399
:100E8000312C4D53322050696E730A0024F404D97A
:100E9000201BC40C5C0E9804C4095F026507710135
:100EA000F405F900FB04B30048048700C10369009E
:100EB0005803550003034500BE023A008402310086
:100EC00053022A002902250004022000E4011C002C
:100ED000C8011900AF011700980114008401130024
:100EE000710110006101100051010E0043010D005D
:100EF00036010B002B010B0020010B00150109002E
:100F00000C01090003010800FB000800F3000800C1
:100F1000EB000700E4000600DE000600D800060033
:100F2000D2000600CC000500C7000500C200050085
:100F3000BD000400B9000400B5000400B1000400C5
:100F4000AD000400A9000400A5000300A2000300F6
:100F50009F0004009B00030098000300950002001E
:100F600093000300900003008D0002008B0003003B
:100F70008800020086000200840003008100020055
:100F80007F0002007D0002007B0002007900020069
:100F90007700010076000200740002007200010078
:100FA000710002006F0002006D0001006C00020081
:100FB0006A0001006900020067000100660001008C
:100FC0006500010064000200620001006100010090
:100FD000600001005F0002005D0001005C00010094
:100FE0005B0001005A000100590001005800010097
:100FF0005700010056000100550001005400010097
:101000005300000053000100520001005100010094
:10101000500001004F0001004E0000004E00010092
:101020004D0001004C0001004B0000004B0001008E
:101030004A0001004900010048000000480001008A
:101040004700010046000000460001004500000086
:10105000450001004400010043000000430001007E
:101060004200000042000100410000004100010078
:10107000400001003F0000003F0001003E00000072
:101080003E0001003D0000003D0001003C0000006A
:101090003C0000003C0001003B0000003B00010060
:1010A0003A0000003A000100390000003900010058
:1010B0003800000038000000380001003700000050
:1010C0003700010036000000360000003600010045
:1010D000350000003500000035000100340000003C
:1010E0003400000034000100330000003300000031
:1010F0003300010032000000320000003200010025
:10110000310000003100000031000100300000001B
:1011100030000000300001002F0000002F00000010
:101120002F0000002F0001002E0000002E00000004
:101130002E0001002D0000002D0000002D000000F9
:101140002D0001002C0000002C0000002C000000ED
:101150002C0001002B0000002B0000002B000000E1
:101160002B0001002A0000002A0000002A000000D5
:101170002A000100290000002900000029000000C9
:1011800029000000290001002800000028000000BC
:1011900028000000280000002800010027000000AF
:1011A00027000000270000002700000027000100A2
:1011B0002600000026000000260000002600000097
:1011C0002600010025000000250000002500000089
:1011D000250000002500000025000100240000007B
:1011E000240000002400000024000000240001006E
:1011F0002300000023000000230000002300000063
:101200002300000023000000230001002200000052
:101210002200000022000000220000002200000046
:101220002200010021000000210000002100000038
:101230002100000021000000210000002100010029
:10124000200000002000000020000000200000001E
:10125000200000002000000020000000200001000D
:101260001F0000001F0000001F0000001F00000002
:101270001F0000001F0000001F0001001E000000F2
:101280001E0000001E0000001E00000024F4D430E8
:1012900050C38E20C2A24017828B7011127A910D1A
:1012A000816CD90AA861E108C758660761514306F5
:1012B0001E4B5D05C145A7041A411104093D980361
:1012C000713931034036DB0265339102D430540268
:1012D000802E1D02632CEE01752AC501B028A001E5
:1012E000102781018F2564012B244B01E02234015A
:1012F000AC211F018D200D01801FFC00841EED001C
:10130000971DDF00B81CD200E61BC600201BBC00E6
:10131000641AB200B219A8000A19A0006A1899004C
:10132000D117910040178B00B516840031167E004E
:10133000B31579003A157300C7146F0058146A008A
:10134000EE1366008813630025135E00C7125B006E
:101350006C12570015125400C111510070114F004A
:1013600021114B00D61049008D1047004610440053
:1013700002104200C00F4000800F3E00420F3C00B0
:10138000060F3B00CB0E3800930E37005C0E350085
:10139000270E3400F30D3200C10D3100900D3000E6
:1013A000600D2E00320D2D00050D2C00D90C2B00E8
:1013B000AE0C2900850C29005C0C2700350C270099
:1013C0000E0C2600E80B2400C40B2400A00B230005
:1013D0007D0B23005A0B2100390B2100180B200034
:1013E000F80A1F00D90A1E00BB0A1E009D0A1D0034
:1013F000800A1D00630A1C00470A1B002C0A1B0000
:10140000110A1A00F7091A00DD091900C4091900A8
:10141000AB091900920917007B091800630917002E
:101420004C09160036091600200916000A09150095
:10143000F5081500E0081400CC081400B8081400E2
:10144000A4081400900813007D0812006B08130014
:101450005808120046081200340811002308110031
:101460001208110001081100F0071000E007100039
:10147000D0071000C0071000B0070F00A107100030
:1014800091070E0083070F0074070F0065070E0019
:1014900057070E0049070E003B070D002E070E00F0
:1014A00020070D0013070D0006070D00F9060C00BC
:1014B000ED060D00E0060C00D4060C00C8060C007A
:1014C000BC060C00B0060C00A4060B0099060C002C
:1014D0008D060B0082060B0077060B006C060B00D6
:1014E00061060A0057060B004C060A0042060A0075
:1014F00038060A002E060A0024060A001A060A0008
:101500001006090007060A00FD050900F405090098
:10151000EB050900E2050900D9050900D00509001D
:10152000C7050900BE050900B5050800AD0508009E
:10153000A50509009C050800940508008C05080015
:10154000840508007C050800740508006C05070088
:10155000650508005D050700560508004E050700F3
:10156000470507004005080038050700310507005A
:101570002A050700230507001C05060016050700BD
:101580000F0507000805060002050700FB0406001A
:10159000F5040700EE040600E8040600E204070074
:1015A000DB040600D5040600CF040600C9040600CB
:1015B000C3040600BD040600B7040600B10405001C
:1015C000AC040600A6040600A00405009B04060067
:1015D00095040500900406008A04050085040500B2
:1015E000800406007A0405007504050070040500F7
:1015F0006B04050066040500610405005C04050039
:1016000057040500520405004D0405004804050078
:10161000430405003E0404003A04050035040500B7
:10162000300404002C0405002704040023040500F2
:101630001E0404001A04040016040500110404002A
:101640000D0404000904050004040400000404005F
:10165000FC030400F8030400F4030400F003040096
:10166000EC030400E8030400E4030400E0030400C6
:10167000DC030400D8030400D4030400D0030400F6
:10168000CC030400C8030300C50303006563686F4F
:101690003A00205A3A0020593A0020583A00656E24
:1016A0006473746F7073206869743A2000457272B5
:1016B0006F723A003A2045787472756465722073CF
:1016C00077697463686564206F66662E204D4158A3
:1016D00054454D50207472696767657265642021B6
:1016E000003A204578747275646572207377697466
:1016F00063686564206F66662E204D494E54454DE3
:1017000050207472696767657265642021005465B2
:101710006D70657261747572652068656174656469
:1017200020626564207377697463686564206F66FE
:10173000662E204D415854454D502074726967679C
:101740006572656420212100202D20496E76616C30
:101750006964206578747275646572206E756D6257
:1017600065722021000000000018070100A807147E
:101770000030082800B8083C0038095000C009644F
:1017800000480A7800C80A8C00480BA000C80BB4B7
:1017900000480CC800C80CDC00400DF000C00D046F
:1017A00001380E1801B00E2C01280F4001A00F5473
:1017B000011810680188107C01001190013013F4A9
:1017C00001481558024017BC0228192003F01A845A
:1017D00003A81CE803401E4C045049442041757482
:1017E0006F74756E652066696E6973686564212023
:1017F00050757420746865204B702C204B692061F3
:101800006E64204B6420636F6E7374616E7473201A
:10181000696E746F20436F6E666967757261746973
:101820006F6E2E6800504944204175746F74756E58
:1018300065206661696C6564212074696D656F75EA
:10184000740020403A006F6B20543A006F6B2042C6
:101850003A00504944204175746F74756E65206676
:1018600061696C6564212054656D70657261747581
:10187000726520746F6F206869676800204B643A56
:101880002000204B693A2000204B703A2000204372
:101890006C617369632050494420002054753A20DC
:1018A00000204B753A2000206D61783A2000206DB1
:1018B000696E3A200020643A200020626961733A20
:1018C0002000504944204175746F74756E65207313
:1018D0007461727400504944204175746F74756E60
:1018E00065206661696C65642E20426164206578BC
:1018F000747275646572206E756D6265722E004D2E
:1019000041494E54454E414E4345004D4154455288
:1019100049414C005052494E54005072696E7469EE
:101920006E672077697468205553422E2E2E0075FD
:101930006C74696D616B65722E636F6D2F455230EB
:101940003700476F20746F3A0058206F722059207B
:1019500073776974636820737475636B00756C7456
:10196000696D616B65722E636F6D2F455230370064
:10197000476F20746F3A0058206F72205920737798
:10198000697463682062726F6B656E00756C746950
:101990006D616B65722E636F6D2F45523036004757
:1019A0006F20746F3A005A207377697463682073EC
:1019B0007475636B00756C74696D616B65722E6311
:1019C0006F6D2F4552303500476F20746F3A005AC3
:1019D000207377697463682062726F6B656E00753F
:1019E0006C74696D616B65722E636F6D2F4552303B
:1019F0003400476F20746F3A005361666574792034
:101A00006369726375697400756C74696D616B6587
:101A1000722E636F6D2F4552303300476F20746F05
:101A20003A00486561746572206572726F72007564
:101A30006C74696D616B65722E636F6D2F455230EA
:101A40003200476F20746F3A0054656D70207365E3
:101A50006E736F722042454400756C74696D616BE2
:101A600065722E636F6D2F4552303100476F2074C1
:101A70006F3A0054656D702073656E736F72004528
:101A800052524F52202D2053544F50504544008005
:101A90001506060606FEFEFEFEFC00000000000025
:101AA00000FCFEFEFEFC0000000EFEFEFEFE00003E
:101AB000E0FCFEFEFCE0E0000000CECECE00000028
:101AC000C0C0C0C0C0C08000000000000080C0C016
:101AD000800000000000008080C0C0C0C0C0C0C046
:101AE00080800000000006FEFEFEFE000000008078
:101AF000C0C0C00000000000008080C0C0C0808066
:101B00008000000000C0C0C0C00080C0C0C0C08055
:101B100000000000007FFFFFFFFF800000000000CA
:101B200080FFFFFFFFFF00000000FFFFFFFF00003E
:101B300000FFFFFFFF0000000000FFFFFF000000AC
:101B400081F1FFFF3F0F3FFFFCF0F0FCFF3F0F3F35
:101B5000FFFEF880000000C1E1F1F1713101018365
:101B6000FFFFFFFC000000FFFFFFFF000C3EFFFF38
:101B7000F7C301000000FCFEFF8703113131333F42
:101B80003F3F1E000001FFFFFFFF070301010101AE
:101B9000000000000000010307070F0F0F0F0F0FD9
:101BA0000F0707070F0F06000000070F0F070000C1
:101BB00000070F0F0700000000000F0F0F000006C6
:101BC0000F0F070100000001070F0F0701000000C1
:101BD00001070F0F06000003070F0F0E0E06070385
:101BE000070F0F07000000070F0F0700000000039A
:101BF0000F0F0F060000000307070F0E0E0E0E0E4C
:101C00000E06000000000F0F0F0F00000000000084
:101C1000008015090909F90101010103FE00000016
:101C20000000FE0301010103FE001FF1010101019B
:101C3000FFF01E030101031E10F000FF313131FFE0
:101C400000E020202020202060C080000080C060B4
:101C5000202060C000000000C04060202020202024
:101C600020206040C080000FF901010101FF0080C9
:101C7000C060202020E000000080C04060202020C4
:101C8000604040C08000E020202020E06020202034
:101C90002060C0000000FF80000000007FC0808046
:101CA00080C07F0000000000FF0000FF0000000077
:101CB000FF01FF00000000FF010100FF000000FF26
:101CC00000C37A0E0000C070C000030E0E0300C0F7
:101CD00070C00001077CC000E3321A0A0A8ACAFAFF
:101CE000C67C00000003FE00FF00000000FF73C17F
:101CF0000000083CE68300FE03010078FCEE4A4E3B
:101D00004C404040613F03FE00000000F80C06021A
:101D10000202030000000003060C08181010101047
:101D20001010101808181010190F000F18101018A4
:101D30000F000F181010180F0000001F1010101FB8
:101D40000F191010180E0300030E181010180E03B0
:101D500000030E181010190F070C1810101111198C
:101D6000080C181010180F000F181010180F000191
:101D7000071C101010190F01070C08181011111171
:101D8000111111190F00001F101010101F0000007A
:101D90000000002F400000000000000000000000D4
:101DA00000808080C0E0FEFF191E989898181818CF
:101DB0001818189E9F991E38F0E0000000000000DF
:101DC000000000000000000000000000003CFEFFDA
:101DD000FF99F1E1C3FFFF0000636363606060602F
:101DE00060606363630000FFFF7C38000000000058
:101DF00000000000000080C060B0D8D81CFCFF3F8D
:101E00000F8FCFC7C7C7C6C6C6C6C6C6C6C6C6C654
:101E1000C6C6C6C6C6C6C7C7C4CC0C1CF8F870C0B8
:101E20000000000EFFF92A2B2B2828FCFFFF0000E2
:101E3000FFFFFFFFFFFFFFBFB717B5BDB500B5B58B
:101E4000F717FFBFBFFFFFFFFF0000FFFFFCFF070B
:101E500000C0F0FFFFFDDD1D19193FFFFF0000FF6F
:101E6000FFFFFFFFFFFFFBF1FBFBEAEEC0EEEAFA2C
:101E7000F0FAFAFFFFFFFFFF0000FFFF0F1FF8E07F
:101E80000003070F0F1B1819FBFEFFFFF0E0C0C196
:101E9000E1F1F1F1F1F1F1F1F1F1F1F1F9F9F9F922
:101EA000F9F9797979F1F010181F0706030300009A
:101EB000000000000000F8FFEFDFBF7FFFFFFF40E2
:101EC0004143437F212020217FFFFFFF3FB091D17D
:101ED000DFD050581F1FF0F000000000000000008D
:101EE0000000000003070F1E3D7B77EED1DEDECF42
:101EF0004B4B6969686868603F3F37373735343026
:101F0000101018181A1B0F060000000000100FFC1C
:101F10000E0FCFCFCFCECCCCCCCCCCCCDCC0C0073E
:101F2000707E7F7F7F7F7F7F7F7F7F7F7F0F0171CD
:101F300020FFFFFFFFFFFFFFFFFFFFFCE0000000AF
:101F400000000000000000E0FCFFFFFFFFFFFFFFBC
:101F5000FFFFFF0000000000000000000000000084
:101F600000000000000000000000000000FFFFFF74
:101F7000FFFFFFFF00000000000000000000000065
:101F80000000000000000000000000000000000051
:101F90000000000000000000000000000000000041
:101FA0000000FFFFFFFFFFFFFF7FFFFFFFFFFFF8C6
:101FB000800000000080F0FFFFFFFFFF3FFFFFFFFA
:101FC000FFFFFFFF00000030F8F8FCFC7E7E7E3E45
:101FD0003E3E3E7E7EFEFEFCFCF8E0800000FFFF01
:101FE000FFFFFFFFFF000080C0E0F0F8FCFEFE7E78
:101FF0003E1E0E06C0E0F0F8FCFCFE7E3E3E3E3E7D
:102000003E7EFEFCFCF8F0C0800000FEFEFEFEFE00
:10201000FEFEFEFFFFFFFFFFFFFF00031FFFFFFFAE
:10202000FFFFFCE0E0FCFFFFFFFFFF1F0100FFFFE1
:10203000FFFFFFFFFF0000C0E0F0F0F8F8FC7C7C41
:102040003C3C3E1E1E1EFFFFFFFFFFFFFF0000FF88
:10205000FFFFFFFFFFFFFEFFFFFFFFFFFFFFF1C0DE
:1020600080000000FFFFFFFFFFFFFF3C3C3C3C3CCB
:102070003C3C3C3C3F3F3F3F3F3F000000000000F6
:1020800000000000FFFFFFFFFFFFFF000000000750
:102090003FFFFFFFFFFFFFFFFF3F0700000000FFC4
:1020A000FFFFFFFFFFFF00003F7FFFFFFFFFFCFC84
:1020B000F8F8F87C7C3C3EFFFFFFFFFFFFFF0000CD
:1020C000FFFFFFFFFFFFFF0301000003071F7FFF6C
:1020D000FFFFFEFCF0E38F1F3F3F7F7FFEFCF8F821
:1020E000F0F0F0F8F8FCFC7E7E3C300000FEFEFED6
:1020F000FEFEFEFEFE507265763A200043414E43DE
:10210000454C002073656300206D696E0020686F88
:1021100075720020686F7572730000000000000087
:10212000005F00000007000700147F147F14242ABA
:102130007F2A122313086462364955225000050392
:102140000000001C2241000041221C00082A1C2A19
:102150000808083E08080050300000080808080871
:10216000006060000020100804023E5149453E0016
:10217000427F400042615149462141454B3118148C
:10218000127F1027454545393C4A494930017109BC
:1021900005033649494936064949291E00363600A5
:1021A00000005636000000081422411414141414C0
:1021B00041221408000201510906324979413E7E4C
:1021C0001111117E7F494949363E414141227F41EB
:1021D00041221C7F494949417F090901013E414192
:1021E00051327F0808087F00417F41002040413F75
:1021F000017F081422417F404040407F0204027F5B
:102200007F0408107F3E4141413E7F090909063E97
:102210004151215E7F091929464649494931010149
:102220007F01013F4040403F1F2040201F7F20187A
:10223000207F631408146303047804036151494543
:102240004300007F4141020408102041417F00000B
:10225000040201020440404040400001020400200A
:10226000545454787F4844443838444444203844D3
:1022700044487F3854545418087E09010208145405
:10228000543C7F0804047800447D40002040443DD5
:1022900000007F10284400417F40007C041804782F
:1022A0007C0804047838444444387C141414080826
:1022B0001414187C7C080404084854545420043F27
:1022C0004440203C4040207C1C2040201C3C4030AE
:1022D000403C44281028440C5050503C4464544C1A
:1022E00044000836410000007F000000413608002D
:1022F00008082A1C08081C2A08086275696C6470A2
:102300006C6174652E006F662061646A7573746910
:102310006E6720796F7572007468726F75676820D8
:102320007468652070726F63657373004920776904
:102330006C6C20677569646520796F750043414E48
:1023400043454C00434F4E54494E554500473120BC
:10235000462569205A256920582569205925690094
:10236000473238205A302058302059300066726F7A
:102370006D20746865206275696C64706C61746549
:102380002E0061206D696C6C696D657465722061E9
:1023900077617900756E74696C20746865206E6F62
:1023A0007A7A6C6520697300526F74617465207469
:1023B000686520627574746F6E00342F323100438B
:1023C0004F4E54494E554500434F4E54494E554586
:1023D00000473120462569205A30004731204625E4
:1023E000692058256920592569004731204625690B
:1023F000205A350066726F6D2074686520627569B9
:102400006C64706C6174652E0069732061206D6965
:102410006C6C696D657465722061776179007363B6
:102420007265772074696C6C20746865206E6F7AB1
:102430007A6C65005475726E206C656674206275E6
:10244000696C64706C61746500352F323100434FE4
:102450004E54494E554500473120462569205A3093
:1024600000473120462569205825692059256900F3
:10247000473120462569205A350066726F6D2074F9
:102480006865206275696C64706C6174652E0069A2
:10249000732061206D696C6C696D65746572206173
:1024A0007761790073637265772074696C6C20744E
:1024B0006865206E6F7A7A6C65005475726E207252
:1024C00069676874206275696C64706C617465001A
:1024D000362F323100434F4E54494E5545007468F3
:1024E00065206275696C64706C617465206C6576DA
:1024F000656C2E00706170657220746F2066696E65
:10250000652D74756E65006E6F772075736520613B
:10251000207368656574206F66005265706561742C
:10252000207468697320737465702C206275740060
:10253000372F323100434F4E54494E5545004731F5
:1025400020462569205A3000473120462569205809
:1025500025692059256900473120462569205A35CB
:102560000062697420726573697374616E63652EAD
:1025700000756E74696C20796F75206665656C20D6
:1025800061006275696C64706C61746520616E6471
:10259000206E6F7A7A6C6500536C696465206120E7
:1025A0007061706572206265747765656E00382FA2
:1025B000323100434F4E54494E554500434F4E541F
:1025C000494E554500746865206C65667420636FDC
:1025D000726E65722E2E2E005265706561742074C5
:1025E00068697320666F7200392F323100434F4E95
:1025F00054494E55450074686520726967687420B7
:10260000636F726E65722E2E2E0052657065617456
:10261000207468697320666F720031302F32310088
:10262000434F4E54494E554500444F4E4500746F3C
:1026300020696E73657274206D6174657269616C76
:102640002E00746865206E65787420737465702040
:10265000697300746865206275696C64706C61747C
:1026600065004E6F772074686174207765206C6513
:1026700076656C65640031312F323100434F4E5422
:10268000494E5545004D38340047312046313230EF
:10269000303020583131302059313000556C746958
:1026A0006D616B6572322E00696E7365727420699C
:1026B0006E2074686973006D6174657269616C2065
:1026C000796F752077696C6C004E6578742C207377
:1026D000656C656374207468650031322F32310097
:1026E000524541445900206173206D6174657269DF
:1026F000616C2C0031332F3231004D415445524929
:10270000414C00697320746869732072696768744A
:102710003F00596F7520686176652063686F736547
:102720006E0031342F3231004E4F0059455300694D
:1027300074206973207573696E672E006F66206D53
:102740006174657269616C006B6E6F777320776876
:102750006174206B696E64004E6F7720796F7572BB
:1027600020556C74696D616B6572320031352F32A2
:102770003100434F4E54494E55450053656C6563D7
:102780007420746865206D6174657269616C006D98
:102790006174657269616C206C6F6164696E670059
:1027A0007072696E74686561642068656174696ED1
:1027B0006720666F7200506C656173652077616990
:1027C000742C0031362F32310061626F76652074CF
:1027D0006865206172726F772E00796F757220556F
:1027E0006C74696D616B6572322C0066726F6D205E
:1027F0007468652072656172206F6600496E73654A
:102800007274206E6577206D6174657269616C0009
:1028100031372F323100434F4E54494E5545004C0D
:102820006F6164696E67206D6174657269616C2E99
:102830002E2E0031382F32310066726F6D206E6F90
:102840007A7A6C652E2E2E006D6174657269616CEA
:1028500020657869747300507573682062757474AC
:102860006F6E207768656E0031392F323100434F2B
:102870004E54494E5545006D616B652061203344CF
:10288000205072696E74210049276D207265616461
:1028900079206C657427730032302F323100415239
:1028A0004520594F552052454144593F00746F20EF
:1028B0007072696E742069742100616E6420707298
:1028C0006573732074686520627574746F6E006F31
:1028D0006E207468652053442D63617264005365F3
:1028E0006C6563742061207072696E742066696C17
:1028F000650032312F3231004C455427532050525D
:10290000494E540052656164696E67206361726468
:102910002E2E2E0032312F323100796F75722055F4
:102920006C74696D616B6572322E2E2E0074686155
:10293000742063616D65207769746800506C65610F
:10294000736520696E736572742053442D636172E0
:10295000640032312F323100473238205A30006261
:102960007574746F6E20746F20636F6E74696E750A
:102970006500556C74696D616B65722120507265DC
:102980007373207468650073746172747570206F5E
:102990006620796F75720057656C636F6D65207482
:1029A0006F2074686520666972737400312F32314C
:1029B00000434F4E54494E5545006120666972737D
:1029C000742072756E2077697A6172642E00776167
:1029D0006C6B20796F75207468726F75676800661C
:1029E00069727374207374617274757020492077F2
:1029F000696C6C0042656361757365207468697306
:102A00002069732074686500322F323100434F4EC5
:102A100054494E554500473120462569205A2569BD
:102A200000473238205A3000676F696E6720746F34
:102A300020646F2074686174206E6F772E0061646B
:102A40006A7573746D656E74732C2077652061727E
:102A500065007765206E65656420746F20646F2063
:102A6000736F6D65004166746572207472616E7378
:102A7000706F72746174696F6E00332F323100436E
:102A80004F4E54494E554500473120462569205A3E
:102A90002569205825692059256900473238205872
:102AA00030205930004300432F00436C69636B2092
:102AB000746F2072657475726E004275696C647013
:102AC0006C6174652074656D702E3A0052455455E2
:102AD000524E00414456414E434544004255494CF4
:102AE000442D7C504C41544500250046616E2073B6
:102AF00070656564004731204625692058256920A6
:102B00005925690047323820583020593000473164
:102B1000205A343000473238205A300047323820AB
:102B20005A30004732382058302059300047323868
:102B3000205A3000414456414E43454400746F20B2
:102B400064656661756C743F0052657365742065D9
:102B5000766572797468696E67004E4F0059455307
:102B6000006D00204D61743A003A005072696E7435
:102B7000696E673A003A004D616368696E65206F5F
:102B80006E20666F723A0052657475726E005665FB
:102B90007273696F6E20444556004F63742031395B
:102BA00020323031362030393A34393A323200521C
:102BB000657475726E006D410043757272656E7456
:102BC0002045006D410043757272656E74205A0095
:102BD0006D410043757272656E7420582F59006DF7
:102BE0006D2F736563004D61782073706565642097
:102BF0005A006D6D2F736563004D617820737065A9
:102C000065642059006D6D2F736563004D617820F8
:102C100073706565642058006D6D2F73656300588F
:102C20002F59204A65726B0030306D6D2F736563CC
:102C30005E3200416363656C65726174696F6E003A
:102C40004D4F54494F4E006D41006D41006D4100A4
:102C50006D6D2F736563006D6D2F736563006D6D12
:102C60002F736563006D6D2F736563006D6D2F733A
:102C700065635E32003F3F3F0043757272656E745C
:102C800020450043757272656E74205A0043757258
:102C900072656E7420582F59004D617820737065ED
:102CA0006564205A004D6178207370656564205911
:102CB000004D6178207370656564205800582F5965
:102CC000204A65726B00416363656C65726174696B
:102CD0006F6E003C2052455455524E006D6D2F735F
:102CE0006563005265747261637420737065656416
:102CF000006D6D0052657472616374206C656E675F
:102D000074680052455452414354494F4E006D6D12
:102D10002F736563006D6D003F3F3F005265747215
:102D200061637420737065656400526574726163D9
:102D300074206C656E677468003C2052455455528F
:102D40004E004300432F00436C69636B20746F2077
:102D500072657475726E00526F7461746520746F61
:102D60002065787472756465004E6F7A7A6C6520A0
:102D700074656D70657261747572653A00473238BA
:102D8000205830205930004300432F00436C6963C2
:102D90006B20746F2072657475726E004E6F7A7A54
:102DA0006C652074656D70657261747572653A004A
:102DB00025004272696768746E657373004C454400
:102DC0000025003F3F3F0020476C6F772077686504
:102DD0006E20646F6E6500204F6E207768696C65A9
:102DE000207072696E74696E670020416C7761793A
:102DF00073204F66660020416C77617973204F6EB7
:102E0000004272696768746E657373003C205245B6
:102E10005455524E0056657273696F6E2044455684
:102E20000025004300432F004300432F0025003FAF
:102E30003F3F00466163746F7279207265736574F9
:102E40000052756E74696D652073746174730056F9
:102E5000657273696F6E004D6F74696F6E20736574
:102E60007474696E67730052657472616374696F1C
:102E70006E2073657474696E6773005365742066A1
:102E8000616E207370656564004D6F7665206D61BD
:102E900074657269616C00496E73657274206D614E
:102EA00074657269616C005261697365206275694D
:102EB0006C64706C617465004C6F7765722062752C
:102EC000696C64706C61746500486F6D652068653D
:102ED000616400486561747570206275696C647026
:102EE0006C61746500486561747570206E6F7A7AE4
:102EF0006C65004C45442073657474696E6773009B
:102F00003C2052455455524E0043504500435045D5
:102F10000043504500555045540043504500414240
:102F20005300504C41006D6174657269616C206999
:102F30006E73657274696F6E00436F6F6C696E6754
:102F4000207072696E746865616420666F720048F3
:102F5000656174696E67207072696E74686561641A
:102F600020666F720061626F76652074686520610B
:102F700072726F772E00796F7572206D6163686968
:102F80006E652C0066726F6D2074686520626163E7
:102F90006B73696465206F6600496E736572742097
:102FA0006E6577206D6174657269616C0043414E96
:102FB00043454C00524541445900466F7277617257
:102FC00064696E67206D6174657269616C00636F1E
:102FD0006D6573206F757420746865206E6F7A7AE2
:102FE0006C6500576169742074696C6C206D617444
:102FF000657269616C0043414E43454C0052454146
:10300000445900666F72206D6174657269616C204D
:1030100072656D6F76616C0048656174696E6720DA
:103020007072696E7468656164005265766572736A
:10303000696E67206D6174657269616C0052656DBF
:103040006F7665206D6174657269616C0043414EF5
:1030500043454C005245414459004D415445524965
:10306000414C00250046616E3A2000430043002594
:1030700000466C6F773A006D6D0047312046256938
:1030800020582569205925690047323820583020BA
:1030900059300052455455524E0053455454494EF0
:1030A0004753004348414E4745004D41544552491E
:1030B000414C0053656C6563746564206D61746593
:1030C0007269616C3A004F4B006469616D657465AB
:1030D0007200666C6F770066616E5F737065656421
:1030E000006265645F74656D7065726174757265A8
:1030F0000074656D7065726174757265006E616DE6
:1031000065005B6D6174657269616C5D00466F7529
:103110006E64206F6E20636172642E004E6F2065B6
:1031200078706F72742066696C65005265616469BD
:103130006E6720636172642E2E2E00506C65617381
:103140006520696E736572742063617264004E6FEE
:103150002053442D43415244210066726F6D207408
:1031600068652053442063617264004C6F6164653C
:1031700064206D6174657269616C73004F6B000A45
:103180000A006469616D657465723D000A00666CD1
:103190006F773D000A0066616E5F73706565643D20
:1031A000000A006265645F74656D706572617475B4
:1031B00072653D000A0074656D70657261747572A8
:1031C000653D000A006E616D653D005B6D61746573
:1031D0007269616C5D0A0052656164696E672063A3
:1031E0006172642E2E2E00506C6561736520696ECD
:1031F000736572742063617264004E6F2053442DB6
:10320000434152442100696E204D41544552494189
:103210004C2E54585400746F207468652053442019
:1032200063617264005361766564206D61746572D8
:1032300069616C73004F6B0025004D6174657269A4
:10324000616C20666C6F7700250046616E2073709C
:10325000656564006D6D004D6174657269616C2017
:103260004469616D657465720043004275696C6400
:10327000706C6174652054656D702E004300546558
:103280006D7065726174757265004D4154455249A7
:10329000414C0050524553455453004E65772070C1
:1032A0007265736574003C2052455455524E00259A
:1032B0000025006D6D00430043003F3F3F00537405
:1032C0006F72652061732070726573657400466C5F
:1032D0006F7720250046616E004469616D657465F5
:1032E0007200486561746564206275696C64706C15
:1032F0006174650054656D70657261747572650006
:103300003C2052455455524E004C6F61647320610D
:103310006C6C206D6174657269616C7300536176C9
:10332000657320616C6C206D6174657269616C738A
:10333000004D6F64696679207468652073657474E4
:10334000696E677300250046616E3A2000430043B2
:10335000002500466C6F773A006D6D00496D706F07
:1033600072742066726F6D205344004578706F72DE
:103370007420746F20534400437573746F6D697AC1
:1033800065003C2052455455524E00473238205873
:1033900030205930004300432F00436C69636B2099
:1033A000746F2072657475726E004E6F7A7A6C65F8
:1033B0002074656D70657261747572653A0053446E
:1033C00020434152440047312046313230303020D2
:1033D00058352059313000473238003B464C415671
:1033E0004F523A556C746947436F6465003B464CD5
:1033F00041564F523A556C746947436F6465004EAD
:103400006F2066696C657320666F756E6421004F6E
:103410004B004F4B0052656164696E6720636172B7
:10342000642E2E2E00506C6561736520696E736585
:1034300072742063617264004E6F2053442D4341C7
:10344000524421003C204241434B003C2052455411
:1034500055524E0066726F6D2074686520736C69FA
:103460006365722E0073657474696E672077697482
:10347000682073657474696E67006F76657272692F
:103480006465206D616368696E65005468697320C6
:1034900066696C652077696C6C0043414E43454C0E
:1034A00000434F4E54494E5545004D36303120585B
:1034B00035205935205A2569204C2569004D38346E
:1034C0000047323800473238205A3000473238201F
:1034D00058302059300047312046256920453000BA
:1034E00047393220452569004D34303100756C7400
:1034F000696D616B65722E636F6D2F4552303800B8
:10350000476F20746F3A0072656164696E6720537B
:10351000442D6361726421004572726F7220776876
:10352000696C650052455455524E20544F204D4110
:10353000494E006F66207072696E74696E67206113
:10354000726561005472696564207072696E746995
:103550006E67206F7574004552524F523A005245C3
:103560005455524E20544F204D41494E0043004384
:1035700020005072696E74657220636F6F6C696EA3
:103580006720646F776E004241434B20544F204DBB
:10359000454E5500746865207072696E742E00592E
:1035A0006F752063616E2072656D6F766500507275
:1035B000696E742066696E69736865640042414390
:1035C0004B20544F204D454E550054696D65206C7D
:1035D0006566740054696D65206C65667420756E4F
:1035E0006B6E6F776E004300430048656174696ECF
:1035F00067206275696C64706C6174650043004398
:103600000048656174696E67005072696E74696E16
:10361000673A0050415553450054554E45005455A6
:103620004E45004348414E47457C4D415445524923
:10363000414C00524553554D457C5052494E540023
:1036400025004272696768746E6573730025004DCA
:103650006174657269616C20666C6F770025004645
:10366000616E2073706565640025005072696E7428
:103670002073706565640054554E45006D6D2F7361
:10368000656300526574726163742073706565646C
:10369000006D6D0052657472616374206C656E67B5
:1036A00074680052455452414354494F4E006D6D69
:1036B0002F736563006D6D003F3F3F00526574726C
:1036C0006163742073706565640052657472616330
:1036D00074206C656E677468003C205245545552E6
:1036E0004E0041626F727420746865207072696E5A
:1036F000743F004E4F00594553002500250025001A
:10370000430043004300430025004C4544204272DF
:10371000696768746E65737300526574726163746F
:10372000696F6E004D6174657269616C20666C6FC3
:10373000770046616E207370656564004275696C40
:1037400064706C6174652074656D702E0054656DD5
:1037500070657261747572650053706565640041CF
:10376000626F7274003C2052455455524E005072A4
:1037700065706172696E6720746F207072696E7413
:103780003A0048656174696E672075702E2E2E00B0
:1037900041424F52540054554E45004E6F20696EC1
:1037A000666F20617661696C61626C65006D006DA9
:1037B000004D6174657269616C3A200054696D65F1
:1037C0003A20003B4D4154455249414C3A003B544C
:1037D000494D453A00466F6C646572000000210057
:1037E000240027002A002D003000330001010000D2
:1037F000040107010A0100002200250028002B0017
:103800002E003100340002010000050108010B0107
:10381000000020002300260029002C002F00320089
:103820000001000003010601090105050505070562
:1038300008080808020202020A0A0808040404042C
:103840000101010101010101030303030303030358
:10385000040707070C0C0C0C0C0C0C0C02020202E7
:1038600006060606060606060B0B0B0B0B0B0B0BD0
:103870000102102020080810204010204080020182
:103880000201080402010102040810204080804067
:103890002010080402018004020180402010080466
:1038A0000201080402010102040810204080010204
:1038B0000408102040800000090A02080B0C0D07C4
:1038C00006030401000000000000000000000000EA
:1038D00000000000000000000000000000000000E8
:1038E000000011100F0000000000000000000000A8
:1038F000000000000000000000000000494E4649A2
:103900004E4954594E414ECDCCCC3D0AD7233C179D
:10391000B7D13877CC2B329595E6241FB14F0A00EA
:103920000020410000C84200401C4620BCBE4CCADA
:103930001B0E5AAEC59D74005C3E52414D41112490
:103940001FBECFEFD1E2DEBFCDBF00E00CBF13E062
:10395000A0E0B2E0E0E8F3E002E00BBF02C00790B5
:103960000D92AC31B107D9F71BBE19E1ACE1B3E060
:1039700001C01D92A133B107E1F719E3CCE3D9E30C
:1039800004C02297FE010F946601C833D107C9F71E
:103990000E940DFC0D94B4010C940000A0E0B0E076
:1039A000E4EDFCE10D948301EC015B01611571050F
:1039B00019F0FB0191838083F9908F2D90E00F9493
:1039C0006A01892BC9F7FDE2FF1621F4F990EE2474
:1039D000E39405C02BE2F21609F4F990EE248E016F
:1039E00001501040C8016CEF78E343E050E0D4D2BE
:1039F000892BF9F48E010E5F1F4FC8016FEF78E33A
:103A000045E050E0C9D2892B19F48E01095F1F4FA0
:103A1000A114B10419F0F50111830083E0FC04C086
:103A200070E090E080E813C070E090E080E86FEF15
:103A300007C1C80164E079E343E050E0ADD2892BCF
:103A400069F4A114B10429F470E090E080EC6FE710
:103A5000F7C02296F501D183C083F6CF882499243C
:103A600040E050E060E070E0EF2DE053EA30A0F578
:103A7000F2E0EF2A8E2D90E09C0128703070E2FE7B
:103A800006C0232B79F50894811C911C2BC0232B95
:103A900019F0089481089108DB01CA0112E0880F2F
:103AA000991FAA1FBB1F1A95D1F7480F591F6A1FEC
:103AB0007B1F440F551F661F771F4E0F511D611D41
:103AC000711D483929E9520729E9620729E172077E
:103AD00048F084E0E82A06C0EE3F31F4E3FC39C048
:103AE00098E0E92AF990C0CFE53311F0E53189F586
:103AF00029912D3219F4E0E1EE2A05C02B3219F09C
:103B000081E090E003C0299182E090E0E22FE05351
:103B1000EA3018F0C81BD90B1CC020E030E0FCE0F4
:103B200020383F075CF4C901880F991F880F991F3F
:103B3000280F391F220F331F2E0F311DE991E0533B
:103B4000EA3068F3E4FE03C0309521953F4F820EC2
:103B5000931ECE2CDD24E1FE07C0A114B10421F098
:103B60002197F501D183C083CB01BA010E94BFFD2B
:103B70007B018C01F3E0CF22DD2423E0C216D104C7
:103B800021F417FB109517F9109557016801C8012A
:103B9000B70120E030E040E050E00E941FFD8823A4
:103BA00009F44AC097FE0DC02BE1E22E29E3F22E64
:103BB0009094819491089394C0E2D0E000E010E0EA
:103BC00012C093E3E92E99E3F92EF6CFF701259180
:103BD000359145915491C601B5010E94FFFF5B01EB
:103BE0006C018C1A9D0A8C169D0684F7D595C79595
:103BF0000F5F1F4F0630110529F08CEF9FEFE80E85
:103C0000F91EF1CFC501D6017C018D018C2D880FE5
:103C10008D2D881F8F3F51F0C601B50120E030E0A7
:103C200040E050E00E941FFD882331F482E290E0E2
:103C30009093301980932F197E2D9F2D802F612F07
:103C4000272F392F482F562FB901CA01CDB7DEB71C
:103C5000ECE00D949F012F923F925F926F927F92C2
:103C60008F929F92AF92BF92CF92DF92EF92FF928C
:103C70000F931F93CF93DF938C011B01EA01611512
:103C8000710519F0FB0191838083209749F0CE01E3
:103C90000297839728F020E030E040E050E0F6C043
:103CA000F801A1908F018A2D90E00F946A01892B71
:103CB000B9F7FDE2AF1631F4F801A1908F01552458
:103CC000539407C0FBE2AF1619F4F801A1908F01DD
:103CD0005524209719F0C031D105C1F4F0E3AF1697
:103CE00079F4F8018081883711F0883549F4F801BA
:103CF000A1800E5F1F4FF2E05F2AC0E1D0E006C056
:103D0000209721F480E3A816E9F427C0C830D10534
:103D100031F1C930D10524F4C230D10531F50CC0E0
:103D2000CA30D10589F0C031D105F9F4C12CD12CAC
:103D3000E12CB8E0FB2E28C0C12CD12CE12CA0E452
:103D4000FA2E22C0CAE0D0E0FCECCF2EFCECDF2E35
:103D5000FCECEF2EFCE0FF2E17C0C8E0D0E0C12C39
:103D6000D12CE12CE0E1FE2E0FC09E01442737FD4F
:103D70004095542F60E070E080E090E80F941301CC
:103D8000C901DA016C017D0120E030E040E050E043
:103D900060E03E01882477FC8094982C70EDB72E6B
:103DA000BA0CE9E0EB1570F48A2D81548A3118F4CD
:103DB00099ECB92E06C08A2D81568A3150F589EAD0
:103DC000B82EBA0C8B2D90E08C179D0714F56F3F21
:103DD000E1F0C216D306E406F506B0F0CA01B90157
:103DE000A40193010F94D5009B01AC012B0D311D53
:103DF000411D511D2130F0E03F07F0E04F07F0E892
:103E00005F0710F461E001C06FEFF801A1908F012E
:103E1000C5CF2114310481F0662331F001501040E8
:103E2000F1011183008308C051FE1AC002501040F6
:103E3000F1011183008314C067FF12C050FC05C05C
:103E40002FEF3FEF4FEF5FE704C020E030E040E0AE
:103E500050E882E290E09093301980932F1916C0B9
:103E600050FE08C050954095309521953F4F4F4FDB
:103E70005F4F0CC057FF0AC082E290E09093301968
:103E800080932F192FEF3FEF4FEF5FE7B901CA0182
:103E9000DF91CF911F910F91FF90EF90DF90CF9026
:103EA000BF90AF909F908F907F906F905F903F906A
:103EB0002F900895FC0188279927E89421912032BA
:103EC000E9F3293010F02E30C8F32B3239F02D32BF
:103ED00031F4689403C01FD1820F911D21912053AA
:103EE0002A30C8F31EF4909581959F4F08951F9333
:103EF000FC0199278827BC01E89411911032E9F35D
:103F0000193010F01E30C8F31B3249F01D3241F455
:103F1000689405C0EBD0610F711D811D911D119139
:103F200010531A30B8F33EF49095809570956195D2
:103F30007F4F8F4F9F4F1F910895FB01DC010D9024
:103F40000020E9F7119705900D920020E1F7089500
:103F5000FC010590061621F00020D9F7C001089554
:103F60003197CF010895FB01DC018D9105908019F7
:103F70000110D9F3990B0895FB01DC0105900D9216
:103F80000020E1F70895FC0105900020E9F78095F5
:103F900090958E0F9F1F0895FB01DC01415050400A
:103FA00088F08D9181341CF08B350CF4805E659126
:103FB00061341CF06B350CF4605E861B611171F38B
:103FC000990B0895881BFCCFFB01DC014150504048
:103FD00030F08D910590801919F40020B9F7881BF5
:103FE000990B0895FB01DC014150504048F00590C9
:103FF0000D920020C9F701C01D9241505040E0F7DA
:104000000895FB0155915523A9F0BF01DC014D91A5
:1040100045174111E1F759F4CD010590002049F011
:104020004D9140154111C9F3FB014111EFCF81E0E2
:1040300090E001970895FB01DC0104C08D9101908F
:10404000801921F441505040C8F7881B990B0895FE
:10405000FB01DC0102C001900D9241505040D8F7A5
:104060000895FB01DC010D900020E9F71197019004
:104070000D920020E1F70895FC018191861721F04F
:104080008823D9F7992708953197CF010895FB0127
:10409000DC0101900D920020E1F70895FB01DC01A5
:1040A0004150504030F08D910190801919F400205A
:1040B000B9F7881B990B0895FB01DC014150504072
:1040C00048F001900D920020C9F701C01D924150A7
:1040D0005040E0F70895FC0181E090E00190061661
:1040E00009F4CF010020D1F701970895592F482FE7
:1040F000372F262F660F771F881F991F660F771F90
:10410000881F991F620F731F841F951F660F771FEB
:10411000881F991F08957AE0979F902D879F802D83
:10412000910D11240895AEE0B0E0E9E9F0E20D94BC
:104130008B010E891F898EE08C831A8309838FEF90
:104140009FE79E838D839E01265E3F4FCE010196A1
:10415000688D798DA9010AD02F813885020F131F30
:10416000F80110822E96E4E00D94A701ABE0B0E0D8
:10417000ECEBF0E20D947D013C012B015A01FC01B6
:1041800017821682838181FD03C06FEF7FEFB9C173
:104190009AE0892E1E010894211C311CF301238111
:1041A000F20123FD859123FF81912F01882309F4DA
:1041B000A5C1853239F423FD859123FF81912F011B
:1041C000853221F490E0B301B7D1E8CF982FFF24D6
:1041D000EE249924FFE1FF15D0F09B3269F09C3268
:1041E00028F4903259F0933291F40EC09D3249F088
:1041F000903369F441E024C052E0F52A84E0F82AC3
:1042000028C098E0F92A25C0E0E1FE2A22C0F7FC88
:1042100029C0892F80538A3070F4F6FE05C0989C1F
:10422000902C1124980E15C0E89CE02C1124E80E67
:10423000F0E2FF2A0EC09E3229F4F6FC5FC140E492
:10424000F42A07C09C3619F450E8F52A02C09836C3
:1042500049F4F20123FD959123FF91912F019923B8
:1042600009F0B8CF892F8554833018F080528330FD
:1042700038F444E050E0A40EB51E5FE359830FC04C
:10428000933631F0933779F0933509F052C01FC05F
:10429000F5018081898342E050E0A40EB51E6101E2
:1042A00001E010E011C0F501C080D180F6FC03C030
:1042B0006FEF7FEF02C0692D70E042E050E0A40E86
:1042C000B51EC6012ED18C015FE7F52213C0F501A2
:1042D000C080D180F6FC03C06FEF7FEF02C0692D74
:1042E00070E042E050E0A40EB51EC6010FD18C0173
:1042F00050E8F52AF3FE06C018C080E290E0B30152
:104300001BD1EA948E2D90E008171907B0F30DC069
:10431000F601F7FC8591F7FE81916F0190E0B30102
:104320000BD1E110EA94015010400115110581F7FD
:10433000E2C0943611F0993661F5F7FE08C0F50138
:10434000208131814281538184E090E00AC0F501EF
:10435000808191819C01442737FD4095542F82E054
:1043600090E0A80EB91E9FE6F92257FF09C05095AC
:104370004095309521953F4F4F4F5F4FE0E8FE2A23
:10438000CA01B901A1012AE030E002D1D82ED21829
:104390003FC0953729F41F2D1F7E2AE030E01DC055
:1043A0001F2D197F9F3661F0903720F4983509F062
:1043B000A5C00FC0903739F0983709F09FC004C0EE
:1043C00028E030E00AC0106114FD146020E130E004
:1043D00004C014FD166020E132E017FF08C0F501AB
:1043E000608171818281938144E050E008C0F501D1
:1043F00080819181BC0180E090E042E050E0A40E19
:10440000B51EA101C5D0D82ED2188FE7F82EF12203
:10441000F6FE0BC05EEFF522D91438F4F4FE07C0A7
:10442000F2FC05C08FEEF82202C01D2D01C0192D2F
:10443000F4FE0DC0FE01ED0DF11D8081803319F4F5
:1044400099EEF92208C01F5FF2FE05C003C08F2D50
:10445000867809F01F5F0F2DF3FC13C0F0FE0EC02D
:104460001E1510F09D2C0AC09D2C9E0C911A1E2D1D
:1044700005C080E290E0B3015FD01F5F1E15C8F356
:1044800004C01E1510F4E11A01C0EE2404FF0EC092
:1044900080E390E0B30150D002FF1BC001FD03C0D8
:1044A00088E790E00EC088E590E00BC0802F86780A
:1044B00081F001FF02C08BE201C080E2F7FC8DE2D7
:1044C00090E0B30139D005C080E390E0B30134D06F
:1044D0009A94D914C8F3DA94F101ED0DF11D80819D
:1044E00090E0B30129D0DD20B1F705C080E290E073
:1044F000B30122D0EA94EE20C9F750CEF3016681D1
:104500007781CB012B96E2E10D949901FC01059096
:10451000615070400110D8F7809590958E0F9F1FC5
:104520000895FC016150704001900110D8F780950A
:1045300090958E0F9F1F08950F931F93CF93DF9336
:104540008C01EB018B8181FF1BC082FF0DC02E818E
:104550003F818C819D812817390764F4E881F981B6
:104560000193F983E88306C0E885F985802F1995C2
:10457000892B31F48E819F8101969F838E8302C0A7
:104580000FEF1FEFC801DF91CF911F910F91089599
:10459000FA01AA27283051F1203181F1E8946F9374
:1045A0006E7F6E5F7F4F8F4F9F4FAF4FB1E03ED01A
:1045B000B4E03CD0670F781F891F9A1FA11D680FB8
:1045C000791F8A1F911DA11D6A0F711D811D911DEB
:1045D000A11D20D009F468943F912AE0269F112460
:1045E0003019305D3193DEF6CF010895462F4770C4
:1045F000405D4193B3E00FD0C9F7F6CF462F4F701F
:10460000405D4A3318F0495D31FD4052419302D07C
:10461000A9F7EACFB4E0A695979587957795679522
:10462000BA95C9F700976105710508959B01AC0122
:104630000A2E06945795479537952795BA95C9F749
:10464000620F731F841F951FA01D0895CF93DF93E2
:10465000FC01EC01CA5ADF4FDC01D5968BE10D90CD
:1046600009928150E1F783A994A9EC5AFF4F9183F5
:104670008083E455F040CF018E5A9F4FE05BFF4F9F
:1046800091838083DF91CF910895FC011282138280
:1046900010AA0895FC0180A9882319F081E0828383
:1046A00013820895CF93DF93EC01FC01E955FE4F8F
:1046B0008081882309F461C081508083DE01AA5A79
:1046C000BF4FFE01EB58FF4F8BE101900D928150DF
:1046D000E1F7FE01EC5AFF4FCD58DF4F88819981F9
:1046E000C357D0409183808330E0BE0169557E4F2F
:1046F0003FC0832F90E0AC014F5F5F4FDC01E5E0EE
:10470000AA0FBB1FEA95E1F7A81BB90BAC0FBD1FA1
:10471000FA0125E0EE0FFF1F2A95E1F7E41BF50BE8
:10472000EC0FFD1FAB58BF4FEB58FF4F2BE1019033
:104730000D922150E1F7FC0125E0EE0FFF1F2A95B5
:10474000E1F7E81BF90BEC0FFD1FED58FF4FDA0105
:1047500085E0AA0FBB1F8A95E1F7A41BB50BAC0F30
:10476000BD1FAD58BF4F8D919C91918380833F5F5A
:10477000FB018081381708F4BCCFDF91CF910895F9
:10478000FC0184E193E0918380838781882321F079
:10479000CF0104960C94BE8508950F931F938C014E
:1047A0000E9440940E943C93C80180539E4F0E94F7
:1047B000BE85F801128213828BEF91E00E940D6B8F
:1047C0001F910F910895CF92DF92EF92FF920F9376
:1047D0001F93DF93CF93CDB7DEB76F970FB6F894E3
:1047E000DEBF0FBECDBF8C016B01075A1F4FD80132
:1047F0008C9109551040882321F481E3E82EF12C97
:1048000003C0B2E5EB2EF12CE00EF11E84E193E043
:104810009A8389831C821B8218861D82B7016C5F74
:104820007F4FCE010596A60121E00E94F98C8823D6
:1048300091F5E7E0F2E0949108C08091C00085FF17
:10484000FCCF9093C600319694919923B1F7EDE097
:10485000F2E0949108C08091C00085FFFCCF909356
:10486000C600319694919923B1F709C08091C00098
:1048700085FFFCCF0894C11CD11C9093C600F601A3
:104880009081992399F78091C00085FFFCCF8AE041
:104890008093C60056C0F801E955FE4F80818A30EA
:1048A00008F03EC08F5F8083282F30E0C901019758
:1048B000FC01A5E0EE0FFF1FAA95E1F7E81BF90B3D
:1048C000EB58FF4FE00FF11F21503040AF01415E28
:1048D0005F4FBF018BE1DB010D90BD01DA010D924D
:1048E000AD018150C1F7929182913296968F858F5A
:1048F0007F972115310541F7D801AB58BF4FF7011C
:1049000034968BE101900D928150E1F70D581F4FC5
:10491000F70182819381D8018D939C9303571040B6
:10492000D801AA5ABF4FFE0135968BE101900D9236
:104930008150E1F70C5A1F4F8B819C81F8019183C4
:104940008083CE0101961CDF6F960FB6F894DEBF10
:104950000FBECDBFCF91DF911F910F91FF90EF90D0
:10496000DF90CF900895EF92FF920F931F938C01E9
:1049700090EDE92E91E0F92EE00EF11EC7010E94A4
:104980007185C7010E94BE85F801108211821F91B6
:104990000F91FF90EF9008950F931F938C01845314
:1049A0009E4F0E94F38D00531E4FF80180811F918E
:1049B0000F910895CF92DF92EF92FF920F931F9382
:1049C000CF93DF937C016B01DB010D900020E9F7B1
:1049D0008D0101501040061B170BE0EDF1E0EE0ECB
:1049E000FF1ED7011C92E0E3FEEFEE0EFF1ECB018F
:1049F0006EE470E041DBEC01009731F4F80131978F
:104A0000EC0DFD1D86010CC060E270E035DB8C0111
:104A10000F5F1F4FCE016AE270E02EDBFC01319781
:104A20008DE081838AE082831382C70184539E4F85
:104A3000B8010E94F38D80ED91E0E80EF91ED701D8
:104A40008C91882319F1E7E3F2E0949108C08091FA
:104A5000C00085FFFCCF9093C600319694919923B6
:104A6000B1F7EEE3F2E0949108C08091C00085FFB9
:104A7000FCCF9093C600319694919923B1F7809121
:104A8000C00085FFFCCF8AE08093C600DF91CF9104
:104A90001F910F91FF90EF90DF90CF900895CF93EB
:104AA000DF93EC0188A9882309F43DC0E2E7F2E036
:104AB000949108C08091C00085FFFCCF9093C60000
:104AC000319694919923B1F7CD50DE4F48815981A9
:104AD0006A817B81C35FD1408DEC93E02AE030E0B6
:104AE0000E94F53EE0E7F2E0949108C08091C0009A
:104AF00085FFFCCF9093C600319694919923B1F72E
:104B0000C551DE4F488159816A817B81CB5ED1409E
:104B10008DEC93E02AE030E00E94F53E8091C000E9
:104B200085FFFCCF12C0E0E6F2E0949108C08091CE
:104B3000C00085FFFCCF9093C600319694919923D5
:104B4000B1F78091C00085FFFCCF8AE08093C6005A
:104B5000C655DE4F68816623E1F0E4E5F2E094910A
:104B600008C08091C00085FFFCCF9093C6003196AD
:104B700094919923B1F78DEC93E070E04AE050E016
:104B80000E94443F8091C00085FFFCCF8AE0809363
:104B9000C600DF91CF9108952F923F924F925F927E
:104BA0006F927F928F929F92AF92BF92CF92DF923D
:104BB000EF92FF920F931F93DF93CF93CDB7DEB7A2
:104BC000AD970FB6F894DEBF0FBECDBF5C014B01B1
:104BD0004DA7FC0180A9882309F4D9C130ED432EEB
:104BE00031E0532E4A0C5B1CC2010E94BE85F501C8
:104BF000128213821A8A1D8A198A188A84E193E024
:104C00009F878E8720E5C22ED12CCA0CDB1C81E346
:104C100090E0A80EB91EF601B182A0828FEC9FEF42
:104C2000A80EB91EF40180818F3209F08AC0C40138
:104C30006FE270E021DA7C010894E11CF11C3E0176
:104C40000894611C711C160176C0C7016FE270E008
:104C500013DA6C01009709F480C0E816F90608F031
:104C60007CC08C010E191F09C301B701A80124DA09
:104C7000060D171DF8011082F30107C08091C000D6
:104C800085FFFCCF31969093C60090819923B1F7B0
:104C90008091C00085FFFCCFFAE0F093C600F101DF
:104CA000608171816115710519F460E070E002C0E6
:104CB0006C5F7F4FCE014296A30121E00E94F98CE8
:104CC000882371F5E6E2F3E0949108C08091C0007A
:104CD00085FFFCCF9093C600319694919923B1F74C
:104CE000FE01319607C08091C00085FFFCCF319650
:104CF0009093C60090819923B1F7E4E2F3E0949198
:104D000008C08091C00085FFFCCF9093C60031960B
:104D100094919923B1F78091C00085FFFCCF31C1F8
:104D20008EE090E08C0F9D1FF101918380837601CE
:104D30000894E11CF11C92E0E916F10408F085CF1B
:104D40000BC0E2E5F0E0AE0EBF1EF601B182A0821C
:104D50008EEA9FEFA80EB91E7401F501E05BFF4FCC
:104D60009DA5992309F4AAC060817181611571051F
:104D700019F460E070E002C06C5F7F4FC201A701D0
:104D800021E00E94F98C882309F469C0E1EEF1E08A
:104D9000AE0EBF1EF50140815181628173818AE0B0
:104DA00090E0A80EB91EF50140835183628373839E
:104DB00085E19EEFA80EB91EE6E1F3E0949108C0EC
:104DC0008091C00085FFFCCF9093C60031969491EE
:104DD0009923B1F709C08091C00085FFFCCF0894EA
:104DE000E11CF11C9093C600F7019081992399F77B
:104DF000EEE0F3E0949108C08091C00085FFFCCF05
:104E00009093C600319694919923B1F78DEC93E07D
:104E10002AE030E00E94F53E8091C00085FFFCCF83
:104E20008AE08093C60083EF91E0A80EB91EF501D9
:104E30001082118212821382E0E0F3E0949108C0A4
:104E40008091C00085FFFCCF9093C600319694916D
:104E50009923B1F78091C00085FFFCCF92C0ECEEA2
:104E6000F2E0949108C08091C00085FFFCCF909340
:104E7000C600319694919923B1F709C08091C00082
:104E800085FFFCCF0894E11CF11C9093C600F7014C
:104E90009081992399F7EAEEF2E0949108C080910D
:104EA000C00085FFFCCF9093C60031969491992362
:104EB000B1F78091C00085FFFCCF63C06081718134
:104EC0006115710519F460E070E002C06C5F7F4FFE
:104ED000C201A70126E50E94F98C882379F5E6ED49
:104EE000F2E0949108C08091C00085FFFCCF9093C0
:104EF000C600319694919923B1F709C08091C00002
:104F000085FFFCCF0894E11CF11C9093C600F701CB
:104F10009081992399F7E4EDF2E0949108C0809193
:104F2000C00085FFFCCF9093C600319694919923E1
:104F3000B1F78091C00085FFFCCF23C081E0F5016F
:104F40008083E2ECF2E0949108C08091C00085FF7C
:104F5000FCCF9093C600319694919923B1F709C084
:104F60008091C00085FFFCCF0894811C911C909318
:104F7000C600F4019081992399F78091C00085FFC4
:104F8000FCCF8AE08093C600CE010E96F9DBAD9689
:104F90000FB6F894DEBF0FBECDBFCF91DF911F914A
:104FA0000F91FF90EF90DF90CF90BF90AF909F90C8
:104FB0008F907F906F905F904F903F902F900895CB
:104FC000FC0181E08183CF0140E0E6CD2F923F924A
:104FD0004F925F926F927F928F929F92AF92BF9209
:104FE000CF92DF92EF92FF920F931F93DF93CF93B5
:104FF000CDB7DEB7AC970FB6F894DEBF0FBECDBF0E
:105000006C014B01FC0180A9882309F42FC1C60162
:1050100080539E4F0E94BE85F601128213821A8A27
:105020001D8A198A188A84E193E09F878E8750E54C
:10503000A52EB12CAC0CBD1C21E330E0C20ED31E5A
:10504000F501D182C0822FEC3FEFC20ED31EF401D6
:1050500080818F3209F08EC0C4016FE270E00CD8FD
:105060007C010894E11CF11C3E010894611C711C38
:10507000250142E1242E312C2C0E3D1E76C0C701A5
:105080006FE270E00E943C205C01009709F47EC052
:10509000E816F90608F07AC08C010E191F09C30141
:1050A000B701A80109D8060D171DF8011082F301F8
:1050B00007C08091C00085FFFCCF31969093C60059
:1050C00090819923B1F78091C00085FFFCCFFAE071
:1050D000F093C600F201608171816115710519F4C8
:1050E00060E070E002C06C5F7F4FC101A30121E06E
:1050F0000E94F98C882371F5EEEAF2E0949108C0E1
:105100008091C00085FFFCCF9093C60031969491AA
:105110009923B1F7FE01319607C08091C00085FF49
:10512000FCCF31969093C60090819923B1F7ECEAB9
:10513000F2E0949108C08091C00085FFFCCF90936D
:10514000C600319694919923B1F78091C00085FFF4
:10515000FCCF86C02EE030E02C0F3D1FF2013183E2
:10516000208375010894E11CF11CE114F10409F09D
:1051700086CF0BC082E590E0C80ED91EF501D18222
:10518000C0822EEA3FEFC20ED31E740180E590E08C
:10519000C80ED91EF6018081918120EB3FEFC20E2F
:1051A000D31E009719F480E090E001C00496B70187
:1051B0000E94C58D882331F1EEE9F2E0949108C098
:1051C0008091C00085FFFCCF9093C60031969491EA
:1051D0009923B1F709C08091C00085FFFCCF0894E6
:1051E000E11CF11C9093C600F7019081992399F777
:1051F00023EF31E0C20ED31EF6011082118212821B
:10520000138231C0E6E8F2E0949108C08091C000BA
:1052100085FFFCCF9093C600319694919923B1F706
:1052200009C08091C00085FFFCCF0894E11CF11CEF
:105230009093C600F7019081992399F7E4E8F2E092
:10524000949108C08091C00085FFFCCF9093C60068
:10525000319694919923B1F78091C00085FFFCCFDE
:105260008AE08093C600CE010E968ADAAC960FB61D
:10527000F894DEBF0FBECDBFCF91DF911F910F918C
:10528000FF90EF90DF90CF90BF90AF909F908F9066
:105290007F906F905F904F903F902F900895EF9286
:1052A000FF920F931F93CF93DF938C01FC0110AA01
:1052B00080AD882321F0C801C5960E94BE8569EAA9
:1052C000E62E61E0F62EE00EF11EC70160E045E338
:1052D0000E949083882309F5E7E0F2E0949108C0EA
:1052E0008091C00085FFFCCF9093C60031969491C9
:1052F0009923B1F7E8E6F3E0949108C08091C000EB
:1053000085FFFCCF9093C600319694919923B1F715
:105310008091C00085FFFCCF7DC0E801C255DE4F03
:10532000CE01B70141E00E94908E882341F5CE0165
:10533000B70140E00E94908E882309F5E7E3F2E090
:10534000949108C08091C00085FFFCCF9093C60067
:10535000319694919923B1F7E5E5F3E0949108C073
:105360008091C00085FFFCCF9093C6003196949148
:105370009923B1F78091C00085FFFCCF4BC0C801D5
:10538000C596BE010E949588882309F5E7E3F2E0FF
:10539000949108C08091C00085FFFCCF9093C60017
:1053A000319694919923B1F7E5E4F3E0949108C024
:1053B0008091C00085FFFCCF9093C60031969491F8
:1053C0009923B1F78091C00085FFFCCF23C081E015
:1053D000F80180ABE7E0F2E0949108C08091C00052
:1053E00085FFFCCF9093C600319694919923B1F735
:1053F000EAE3F3E0949108C08091C00085FFFCCF00
:105400009093C600319694919923B1F78091C00092
:1054100085FFFCCF8AE08093C600D801AA5ABF4F0F
:10542000F801F5968BE101900D928150E1F7F801BA
:1054300083A994A90C5A1F4FF801918380830455C6
:105440001040C801C196005B1F4FF8019183808313
:10545000DF91CF911F910F91FF90EF9008952F92C0
:105460003F924F925F926F927F929F92AF92BF92C4
:10547000CF92DF92EF92FF920F931F93DF93CF9320
:10548000CDB7DEB7CC55D0400FB6F894DEBF0FBE17
:10549000CDBF6C01662311F527EF31E0C20ED31E9C
:1054A000D6018C91E9E0FEEFCE0EDF1E882309F4D1
:1054B000E9C02FEE31E0C20ED31ED601ED90FD9073
:1054C0000D911C91E1E1FEEFCE0EDF1E0E9455FA18
:1054D000E616F7060807190708F4D4C027EF31E0ED
:1054E000C20ED31ED6011C92E9E0FEEFCE0EDF1EE7
:1054F000D601D0968C91882339F4C601D0DEF6010E
:1055000080A9882309F4BEC000D000D0EDB7FEB753
:1055100031967E010894E11CF11CADB7BEB712961E
:10552000FC92EE9211978EE292E093838283D601F1
:105530009E968D919C919F97958384830E94932042
:105540008701EDB7FEB736960FB6F894FEBF0FBED3
:10555000EDBF57010AC0D8018C91992787FD90951E
:105560000F947201F80181938F01F50101900020E1
:10557000E9F73197EA19FB09802F8E198E175CF332
:10558000A5E3AA2EB12CAC0CBD1CC50140E050E037
:1055900060E070E00E94A7849924FDE3EF2EF12CD7
:1055A000EC0EFD1E2E010894411C511CEFE16E2EE5
:1055B000712C6C0E7D1E77E2272E72E0372E42C0D2
:1055C000D8018C9190E00F947201F80181938F01C2
:1055D000D7010D900020E9F71197AE19BF09802F70
:1055E0008E198A176CF327968FAD27978E3751F156
:1055F000C701B20145E050E00E944E20009711F52E
:1056000000D000D0EDB7FEB73196ADB7BEB7129659
:105610007C926E92119733822282558244820E943C
:105620009320EDB7FEB736960FB6F894FEBF0FBEC7
:10563000EDBFC3010E94866B83E292E00E940D6B76
:1056400099249394C501B70140E050E00E94B487CB
:10565000181614F48701BCCF992041F48FEF9FEF07
:10566000D6019F969C938E939E9706C0F60186A5C1
:1056700097A5019697A786A72AEA31E0C20ED31E06
:10568000D6011C92C45ADF4F0FB6F894DEBF0FBE8E
:10569000CDBFCF91DF911F910F91FF90EF90DF90E1
:1056A000CF90BF90AF909F907F906F905F904F9002
:1056B0003F902F9008952F923F924F925F926F925A
:1056C0007F928F929F92AF92BF92CF92DF92EF9292
:1056D000FF920F931F93DF93CF93CDB7DEB7C059DF
:1056E000D0400FB6F894DEBF0FBECDBF8C013B019A
:1056F0006A0184E090E0C80ED91EF8017296C7577F
:10570000DF4FF983E883C958D040C8010596CA57CE
:10571000DF4F99838883C658D040C857DF4F18821F
:10572000C858D04036E6E32EF12CEC0EFD1EF701F2
:105730003B96C557DF4FF983E883CB58D04028EF1D
:10574000822E21E0922E800E911E9AEFA92E91E0DA
:10575000B92EA00EB11E8EE0282E312C2C0E3D1E2F
:10576000B7E44B2E512C4C0E5D1EC2010496C3575C
:10577000DF4F99838883CD58D040E7E0F2E09491E1
:10578000C157DF4F9883CF58D040E5E7F3E08491CD
:10579000C057DF4F8883C059D04054C1F70183857B
:1057A000482F50E0BA01687170706031710509F0DE
:1057B00057C1F401208131812130310509F450C1F4
:1057C0002230310509F44CC1F701DE0111969081B8
:1057D000903239F08E2F8E19883011F48EE28D932D
:1057E0009D933196C557DF4F88819981CB58D04022
:1057F000E817F90761F71C921E86F3018081882360
:1058000029F4C10160E072E00E943120C101B301BE
:105810000E943120C101BE016F5F7F4F0E94312085
:10582000C10160E072E00E9431201CA61FA61BA6E9
:105830001AA684E193E099A788A7CE018C96B601B9
:10584000AE014F5F5F4F21E00E94F98C882309F081
:1058500045C0F40180819181892B09F03FC0C15777
:10586000DF4F9881CF58D040E7E0F2E008C0809148
:10587000C00085FFFCCF9093C60031969491992388
:10588000B1F7C057DF4F9881C059D040E5E7F3E04A
:1058900008C08091C00085FFFCCF9093C600319670
:1058A00094919923B1F78091C00085FFFCCFFAE075
:1058B000F093C600FE01319607C08091C00085FFBD
:1058C000FCCF31969093C60090819923B1F78091D7
:1058D000C00085FFFCCF8AE08093C600C357DF4F2E
:1058E000A881B981CD58D040FE01BC968BE10190D2
:1058F0000D928150E1F78AA59BA5F20193838283E3
:1059000084E193E091838083C801B101A201D3DED9
:10591000C2010E94C023CE0188960E94C02392C07B
:10592000953E09F48FC09E3209F48CC09F3509F46E
:1059300089C0F8019289992331F09E3209F482C01E
:105940009F3509F47FC043FD7DC080E06031710563
:1059500009F481E0F80185A7882349F4F7018085DF
:10596000873409F06FC081858E3709F46BC0CA5740
:10597000DF4FA881B981C658D040F70180818032BD
:1059800041F08E2F8E19883011F48EE28D93808134
:105990008D933196C557DF4F88819981CB58D04080
:1059A000E817F90759F71C92F4018081918100975B
:1059B00029F5F30107C08091C00085FFFCCF319627
:1059C0009093C60090819923B1F7CA57DF4FE881C1
:1059D000F981C658D04007C08091C00085FFFCCF38
:1059E00031969093C60090819923B1F78091C000C1
:1059F00085FFFCCFFAE0F093C60024C0813091050A
:105A000039F4F501808191810196918380831AC0D8
:105A10000297C1F4C857DF4FF881C858D0402F2FE4
:105A200030E0F5018081918128173907F1F0C857DE
:105A3000DF4FF881C858D040FF5FC857DF4FF88369
:105A4000C858D040C601B701C757DF4F48815981B8
:105A5000C958D0400E94B48718160CF49FCE05C0D8
:105A6000F7019081992309F05BCFC057DF4F0FB644
:105A7000F894DEBF0FBECDBFCF91DF911F910F9184
:105A8000FF90EF90DF90CF90BF90AF909F908F905E
:105A90007F906F905F904F903F902F900895EF927E
:105AA000FF920F931F93DF93CF93CDB7DEB76F971E
:105AB0000FB6F894DEBF0FBECDBF7C018C01005B3A
:105AC0001F4F8E5A9F4FF8019183808328EF31E05A
:105AD000E20EF31E21E030E0F701219331937F01C4
