:100000000C943B1A0C946C1A0C946C1A0C946C1A89
:100010000C946C1A0C946C1A0C946C1A0C946C1A48
:100020000C946C1A0C946C1A0C946C1A0C946C1A38
:100030000C946C1A0C946C1A0C946C1A0C946C1A28
:100040000C946C1A0C9453B30C946C1A0C946C1A98
:100050000C946C1A0C946C1A0C94E6740C948974BD
:100060000C946C1A0C948E470C946C1A0C946C1AA9
:100070000C946C1A0C946C1A0C946C1A0C946C1AE8
:100080000C946C1A0C946C1A0C946C1A0C946C1AD8
:100090000C946C1A0C946C1A0C946C1A0C941441F9
:1000A0000C946C1A0C946C1A0C946C1A0C946C1AB8
:1000B0000C946C1A0C946C1A0C946C1A0C946C1AA8
:1000C0000C946C1A0C946C1A0C946C1A0C946C1A98
:1000D0000C946C1A0C946C1A0C946C1A0C946C1A88
:1000E0000C946C1A1E342134253429342D343134C7
:1000F0002735353439343E342735433449344D348B
:1001000051345534593427355D34613467342735DB
:100110006D348334853493349534973499349F34D3
:10012000A134A334A534AF34B134B334B534BB34C3
:10013000BD3427352735273527352735273527354A
:1001400027352735273527352735273527352735CF
:1001500027352735273527352735273527352735BF
:1001600027352735273527352735273527352735AF
:10017000273527352735273527352735273527359F
:10018000273527352735273527352735273527358F
:10019000273527352735273527352735273527357F
:1001A000273527352735273527352735C734E83410
:1001B00007730A73F972FD72017341730E73127340
:1001C00018731C73207326732A732E734173347350
:1001D00038733C73B873BD73C273CC73D6734F74EA
:1001E000E073E873F073FA7304740E741D7427746B
:1001F0004F7431743B744574C19FC19FCF9FDD9F85
:10020000F99F07A015A023A034A0EB9F084AD73B75
:100210003BCE016E84BCBFFDC12F3D6C74319ABDD5
:1002200056833DDA3D00C77F11BED9E4BB4C3E91F9
:100230006BAAAABE000000803F05A84CCDB2D44EE8
:10024000B93836A9020C50B9918688083CA6AAAAEA
:100250002ABE000000803F00436172642065727214
:100260006F723A004E6F74205344207072696E743E
:10027000696E67002F005344207072696E74696E56
:1002800067206279746520002E0044656C6574698E
:100290006F6E206661696C65642C2046696C653AF6
:1002A000200046696C652064656C657465643A007D
:1002B0002E006F70656E206661696C65642C204647
:1002C000696C653A2000504944204175746F74751B
:1002D0006E652066696E6973686564212050757467
:1002E00020746865204B702C204B6920616E64205F
:1002F0004B6420636F6E7374616E747320696E74E7
:100300006F20436F6E66696775726174696F6E2ED8
:100310006800504944204175746F74756E6520669D
:1003200061696C6564212074696D656F7574002066
:10033000403A006F6B20543A006F6B20423A0050F5
:100340004944204175746F74756E65206661696CEF
:100350006564212054656D706572617475726520E5
:10036000746F6F206869676800204B643A20002032
:100370004B693A2000204B703A200020436C617397
:1003800069632050494420002054753A2000204BD6
:10039000753A2000206D61783A2000206D696E3A30
:1003A000200020643A200020626961733A200050E6
:1003B0004944204175746F74756E65207374617261
:1003C0007400504944204175746F74756E652066E1
:1003D00061696C65642E2042616420657874727571
:1003E000646572206E756D6265722E000D0A003FA5
:1003F0000056657273696F6E20444556000D0A0001
:10040000556E6B6E6F776E20636F6D6D616E643AC3
:100410002000544553540D0A002200556E6B6E6F38
:10042000776E20636F6D6D616E643A202200456CBB
:10043000656374726F6E6963735F74657374004192
:1004400063746976652045787472756465723A20C4
:1004500000496E76616C69642065787472756465B4
:100460007200540020423A300020423A31006F6B53
:1004700020523A0020633A0020643A0020693A0092
:1004800020703A006F6B002200556E6B6E6F776EB6
:1004900020636F6D6D616E643A2022006F70656E2F
:1004A00000545249474745524544007A5F6D617890
:1004B0003A20006F70656E005452494747455245D7
:1004C0004400795F6D61783A20006F70656E00546A
:1004D000524947474552454400785F6D696E3A205E
:1004E000005265706F7274696E6720656E64737414
:1004F0006F7020737461747573005A3A00593A0032
:1005000020436F756E7420583A2000453A005A3ADD
:1005100000593A00583A004649524D574152455FFA
:100520004E414D453A4D61726C696E20556C74694F
:100530006D616B6572323B20537072696E746572C7
:100540002F6772626C206D617368757020666F72C0
:100550002067656E36204649524D574152455F55DA
:10056000524C3A687474703A2F2F676974687562D8
:100570002E636F6D2F556C74696D616B65722050C1
:10058000524F544F434F4C5F56455253494F4E3A8A
:10059000312E30204D414348494E455F5459504516
:1005A0003A556C74696D616B6572204558545255AB
:1005B0004445525F434F554E543A310A0020423A67
:1005C0000020453A00543A003F0020573A002045A9
:1005D0003A00543A002042403A0020403A00202F8E
:1005E0000020423A00202F006F6B20543A0025690A
:1005F000206D696E2C2025692073656300456E644B
:100600002066696C65206C69737400426567696E69
:100610002066696C65206C69737400435045004323
:100620005045004350450055504554002020506C23
:10063000616E6E6572427566666572427974657345
:100640003A20002046726565204D656D6F72793ADB
:1006500020004E6F76203138203230313600436F23
:100660006D70696C65643A200056657273696F6ECF
:100670002044455600207C20417574686F723A20F2
:10068000004E6F7620313820323031362030373A04
:1006900032323A343300204C6173742055706461F7
:1006A0007465643A2000312E302E30004D61726C3A
:1006B000696E200020536F66747761726520526501
:1006C00073657400205761746368646F67205265B6
:1006D000736574002042726F776E206F75742052BC
:1006E00065736574002045787465726E616C205284
:1006F0006573657400506F7765725570007374612F
:100700007274004D383420582059205A2045006515
:1007100063686F3A00256920686F757273202569D8
:10072000206D696E7574657300446F6E652070721C
:10073000696E74696E672066696C65005072696ED7
:100740007465722073746F707065642064756520C1
:10075000746F206572726F72732E204669782074F0
:100760006865206572726F7220616E6420757365B2
:10077000204D39393920746F207265737461727439
:100780002E202854656D70657261747572652069DC
:10079000732072657365742E20536574206974200C
:1007A00061667465722072657374617274696E67D4
:1007B00029006F6B004E6F204C696E65204E756D81
:1007C000626572207769746820636865636B73750E
:1007D0006D2C204C617374204C696E653A20004E7C
:1007E0006F20436865636B73756D2077697468204B
:1007F0006C696E65206E756D6265722C204C61733C
:1008000074204C696E653A2000636865636B73758C
:100810006D206D69736D617463682C204C61737415
:10082000204C696E653A20004C696E65204E756DEE
:10083000626572206973206E6F74204C617374203E
:100840004C696E65204E756D6265722B312C204CA3
:10085000617374204C696E653A20004572726F7244
:100860003A004D313130006572726F7220777269D3
:1008700074696E6720746F2066696C6500205A3A4F
:100880000020593A0020583A00656E6473746F7006
:1008900073206869743A20006563686F3A00446F9A
:1008A0006E6520736176696E672066696C652E00DF
:1008B0006F6B004D32390043414E43454C0050723E
:1008C00065763A2000000000000000005F00000094
:1008D00007000700147F147F14242A7F2A12231391
:1008E00008646236495522500005030000001C22AE
:1008F00041000041221C00082A1C2A0808083E0862
:100900000800503000000808080808006060000077
:1009100020100804023E5149453E00427F400042FB
:10092000615149462141454B311814127F1027452A
:100930004545393C4A494930017109050336494961
:100940004936064949291E00363600000056360051
:100950000000081422411414141414412214080035
:100960000201510906324979413E7E1111117E7F03
:10097000494949363E414141227F4141221C7F493C
:100980004949417F090901013E414151327F08082F
:10099000087F00417F41002040413F017F08142231
:1009A000417F404040407F0204027F7F0408107F67
:1009B0003E4141413E7F090909063E4151215E7F8A
:1009C00009192946464949493101017F01013F4042
:1009D00040403F1F2040201F7F2018207F631408C5
:1009E00014630304780403615149454300007F41C7
:1009F00041020408102041417F000004020102046A
:100A00004040404040000102040020545454787F8C
:100A1000484444383844444420384444487F385497
:100A2000545418087E090102081454543C7F0804E9
:100A3000047800447D40002040443D00007F1028A1
:100A40004400417F40007C041804787C080404784A
:100A500038444444387C14141408081414187C7C5A
:100A6000080404084854545420043F4440203C40A7
:100A700040207C1C2040201C3C4030403C4428103E
:100A800028440C5050503C4464544C4400083641B7
:100A90000000007F0000004136080008082A1C08FA
:100AA000081C2A080853657474696E6773205374B0
:100AB0006F726564002044002049002020204D33DF
:100AC00030312050005049442073657474696E675A
:100AD000733A00205A0020590020204D3230362031
:100AE0005800486F6D65206F666673657420286DC9
:100AF0006D293A00204500205A002058002042006D
:100B000020540020204D323035205300416476615E
:100B10006E636564207661726961626C65733A2008
:100B2000533D4D696E206665656472617465202869
:100B30006D6D2F73292C20543D4D696E20747261A8
:100B400076656C20666565647261746520286D6DDC
:100B50002F73292C20423D6D696E696D756D207370
:100B600065676D656E742074696D6520286D7329E5
:100B70002C20583D6D6178696D756D205859206A3B
:100B800065726B20286D6D2F73292C20205A3D6DC6
:100B90006178696D756D205A206A65726B20286DC9
:100BA0006D2F73292C2020453D6D6178696D756D21
:100BB0002045206A65726B20286D6D2F73290020F7
:100BC000540020204D323034205300416363656C63
:100BD00065726174696F6E3A20533D616363656C41
:100BE00065726174696F6E2C20543D726574726118
:100BF000637420616363656C65726174696F6E0014
:100C0000204500205A0020590020204D323031204C
:100C100058004D6178696D756D20416363656C6541
:100C2000726174696F6E20286D6D2F7332293A00DE
:100C3000204500205A0020590020204D323033201A
:100C400058004D6178696D756D20666565647261E7
:100C500074657320286D6D2F73293A00204500209C
:100C60005A0020590020204D393220580053746515
:100C700070732070657220756E69743A0056303159
:100C8000300053746F7265642073657474696E67A5
:100C90007320726574726965766564004861726478
:100CA000636F6465642044656661756C7420536588
:100CB0007474696E6773204C6F616465640065636A
:100CC000686F3A002200656E717565696E67202253
:100CD000002200656E717565696E67202200000054
:100CE000574300005243000066430000000000002C
:100CF000000000000000000000000000524300005F
:100D000066436469616D6574657200666C6F770037
:100D100066616E5F7370656564006265645F7465CB
:100D20006D70657261747572650074656D70657261
:100D30006174757265006E616D65005B6D617465EF
:100D40007269616C5D00466F756E64206F6E206322
:100D50006172642E004E6F206578706F7274206629
:100D6000696C650052656164696E672063617264D5
:100D70002E2E2E00506C6561736520696E7365724E
:100D8000742063617264004E6F2053442D434152BE
:100D90004421004578706F727420746F20534400B2
:100DA000496D706F72742066726F6D2053440043FA
:100DB0007573746F6D697A65003C205245545552C5
:100DC0004E00250046616E3A200043004300250096
:100DD000466C6F773A006D6D004C6F6164732061F3
:100DE0006C6C206D6174657269616C73005361761F
:100DF000657320616C6C206D6174657269616C73E0
:100E0000004D6F6469667920746865207365747439
:100E1000696E6773004D4154455249414C0053651A
:100E20006C6563746564206D6174657269616C3AA8
:100E3000004F4B00466C6F772025003F3F3F00532B
:100E4000746F7265206173207072657365740046FB
:100E5000616E004469616D65746572004865617416
:100E60006564206275696C64706C617465005465BA
:100E70006D7065726174757265003C205245545501
:100E8000524E00250025006D6D00430043002500F3
:100E90004D6174657269616C20666C6F7700250026
:100EA00046616E207370656564006D6D004D617400
:100EB000657269616C204469616D65746572004397
:100EC000004275696C64706C6174652054656D7066
:100ED0002E00430054656D70657261747572650013
:100EE0004D4154455249414C003C205245545552C5
:100EF0004E004E65772070726573657400505245E0
:100F000053455453004350450041425300504C4117
:100F1000004D38340047323800473238205A30000C
:100F20004732382058302059300047312046256953
:100F30002045300047393220452569004D34303195
:100F40000000002110422063308440A550C660E7B5
:100F500070088129914AA16BB18CC1ADD1CEE1EF6E
:100F6000F13112100273325222B5529442F772D606
:100F700062399318837BB35AA3BDD39CC3FFF3DEBE
:100F8000E36224433420040114E664C774A4448556
:100F9000546AA54BB528850995EEE5CFF5ACC58D0E
:100FA000D55336722611163006D776F6669556B4A6
:100FB000465BB77AA719973887DFF7FEE79DD7BC5E
:100FC000C7C448E5588668A77840086118022823F6
:100FD00038CCC9EDD98EE9AFF9488969990AA92BAE
:100FE000B9F55AD44AB77A966A711A500A333A1246
:100FF0002AFDDBDCCBBFFB9EEB799B588B3BBB1AFE
:10100000ABA66C877CE44CC55C222C033C600C4195
:101010001CAEED8FFDECCDCDDD2AAD0BBD688D494D
:101020009D977EB66ED55EF44E133E322E511E70E5
:101030000E9FFFBEEFDDDFFCCF1BBF3AAF599F789D
:101040008F8891A981CAB1EBA10CD12DC14EF16F4E
:10105000E18010A100C230E32004502540467067B3
:1010600060B9839893FBA3DAB33DC31CD37FE35EDF
:10107000F3B1029012F322D2323542145277625603
:1010800072EAB5CBA5A89589856EF54FE52CD50DEF
:10109000C5E234C324A01481046674476424540553
:1010A00044DBA7FAB79987B8975FE77EF71DC73C7F
:1010B000D7D326F2369106B01657667676154634A3
:1010C000564CD96DC90EF92FE9C899E9898AB9AB8F
:1010D000A94458654806782768C018E1088238A3F3
:1010E000287DCB5CDB3FEB1EFBF98BD89BBBAB9A1F
:1010F000BB754A545A376A167AF10AD01AB32A9243
:101100003A2EFD0FED6CDD4DCDAABD8BADE89DC92E
:101110008D267C076C645C454CA23C832CE01CC192
:101120000C1FEF3EFF5DCF7CDF9BAFBABFD98FF8BE
:101130009F176E367E554E745E932EB23ED10EF0E2
:101140001E7C3C3E5E2B3D3F2F5B5D3B2C2A225C90
:10115000005072696E7465722068616C7465642EEB
:10116000206B696C6C28292063616C6C65642100BC
:101170005072696E7465722073746F70706564204C
:1011800064756520746F206572726F72732E2046CD
:10119000697820746865206572726F7220616E6470
:1011A00020757365204D39393920746F207265734D
:1011B000746172742E202854656D70657261747547
:1011C00072652069732072657365742E205365748F
:1011D000206974206166746572207265737461722F
:1011E00074696E6729004D32313820496E76616C22
:1011F000696420657874727564657220004D3130C1
:101200003920496E76616C69642065787472756402
:10121000657220004D31303520496E76616C69640D
:1012200020657874727564657220004D3130342009
:10123000496E76616C696420657874727564657254
:101240002000456E6473746F70207374696C6C2039
:101250007072657373656420616674657220626183
:10126000636B696E67206F66662E20456E647374CB
:101270006F7020737475636B3F000000E0400000E6
:10128000E0400000E040456E6473746F70206E6F44
:101290007420707265737365642061667465722072
:1012A000686F6D696E6720646F776E2E20456E647F
:1012B00073746F702062726F6B656E3F00456E6471
:1012C00073746F70206E6F742070726573736564D1
:1012D00020616674657220686F6D696E6720646F47
:1012E000776E2E20456E6473746F702062726F6B20
:1012F000656E3F00FF0101000057430000524300AC
:10130000006643746F20696E73657274206D61743A
:10131000657269616C2E00746865206E6578742052
:101320007374657020697300746865206275696CF8
:1013300064706C617465004E6F772074686174200E
:101340007765206C6576656C65640031312F3231CC
:1013500000434F4E54494E554500556C74696D61BC
:101360006B6572322E00696E7365727420696E202F
:1013700074686973006D6174657269616C20796F5E
:10138000752077696C6C004E6578742C2073656CE1
:10139000656374207468650031322F323100524524
:1013A0004144590053656C65637420746865206D11
:1013B0006174657269616C00206173206D61746590
:1013C0007269616C2C0031332F3231004D4154452C
:1013D0005249414C006973207468697320726967CF
:1013E00068743F00596F7520686176652063686F87
:1013F00073656E0031342F3231004E4F0059455322
:10140000006974206973207573696E672E006F66BA
:10141000206D6174657269616C006B6E6F7773200B
:1014200077686174206B696E64004E6F7720796F06
:10143000757220556C74696D616B6572320031355F
:101440002F323100434F4E54494E5545006D617463
:10145000657269616C206C6F6164696E670070729F
:10146000696E74686561642068656174696E67207F
:10147000666F7200506C6561736520776169742CCA
:101480000031362F32310061626F766520746865F5
:10149000206172726F772E00796F757220556C74AF
:1014A000696D616B6572322C0066726F6D207468B5
:1014B000652072656172206F6600496E7365727493
:1014C000206E6577206D6174657269616C003137DB
:1014D0002F323100434F4E54494E5545004C6F61F9
:1014E00064696E67206D6174657269616C2E2E2E61
:1014F0000031382F32310066726F6D206E6F7A7A4C
:101500006C652E2E2E006D6174657269616C2065AC
:1015100078697473005075736820627574746F6EA7
:10152000207768656E0031392F323100434F4E54B9
:10153000494E5545006D616B652061203344205054
:1015400072696E74210049276D207265616479208B
:101550006C657427730032302F32310041524520C0
:10156000594F552052454144593F00746F207072C5
:10157000696E742069742100616E642070726573F5
:10158000732074686520627574746F6E006F6E20CE
:101590007468652053442D636172640053656C6503
:1015A00063742061207072696E742066696C6500D6
:1015B00032312F3231004C45542753205052494E7E
:1015C000540052656164696E6720636172642E2EF7
:1015D0002E0032312F323100796F757220556C74C4
:1015E000696D616B6572322E2E2E007468617420F5
:1015F00063616D65207769746800506C656173651F
:1016000020696E736572742053442D6361726400A7
:1016100032312F32310052455455524E004144561A
:10162000414E434544004255494C442D7C504C4169
:101630005445003F3F3F00466163746F72792072EA
:10164000657365740052756E74696D65207374619D
:1016500074730056657273696F6E004D6F74696FB5
:101660006E2073657474696E67730052657472617D
:101670006374696F6E2073657474696E6773005369
:1016800065742066616E207370656564004D6F76C9
:1016900065206D6174657269616C00496E73657275
:1016A00074206D6174657269616C00526169736563
:1016B000206275696C64706C617465004C6F77654D
:1016C00072206275696C64706C61746500486F6D3E
:1016D0006520686561640048656174757020627595
:1016E000696C64706C617465004865617475702024
:1016F0006E6F7A7A6C65004C45442073657474692A
:101700006E6773003C2052455455524E0056657228
:1017100073696F6E204445560025004300432F0037
:101720004300432F002500473238205830205930DD
:1017300000250046616E20737065656400473120A6
:1017400046256920582569205925690047323820E7
:101750005830205930004731205A34300047323851
:10176000205A3000473238205A300047323820584B
:101770003020593000473238205A30004144564119
:101780004E434544004300432F00436C69636B2084
:10179000746F2072657475726E004E6F7A7A6C6524
:1017A0002074656D70657261747572653A004300EE
:1017B000432F00436C69636B20746F2072657475EE
:1017C000726E00526F7461746520746F2065787456
:1017D00072756465004E6F7A7A6C652074656D7001
:1017E000657261747572653A00202D20496E7661CC
:1017F0006C6964206578747275646572206E756DAD
:101800006265722021000000000018070100A8078F
:10181000140030082800B8083C0038095000C009FE
:101820006400480A7800C80A8C00480BA000C80B66
:10183000B400480CC800C80CDC00400DF000C00D1E
:101840000401380E1801B00E2C01280F4001A00F22
:1018500054011810680188107C01001190013013A8
:10186000F401481558024017BC0228192003F01A49
:101870008403A81CE803401E4C043A204578747287
:1018800075646572207377697463686564206F6638
:10189000662E204D415854454D502074726967673B
:1018A000657265642021003A20457874727564651C
:1018B00072207377697463686564206F66662E2092
:1018C0004D494E54454D5020747269676765726585
:1018D0006420210054656D706572617475726520B5
:1018E00068656174656420626564207377697463F8
:1018F000686564206F66662E204D415854454D50F2
:1019000020747269676765726564202121004572E1
:10191000726F723A0000002100240027002A002D77
:10192000003000330001010000040107010A01003A
:10193000002200250028002B002E00310034000278
:10194000010000050108010B010505050507050853
:10195000080808020202020A0A0808040404040132
:101960000101010101010103030303030303030454
:101970000707070C0C0C0C0C0C0C0C0202020206E4
:10198000060606060606060B0B0B0B0B0B0B0B01D4
:101990000210202008081020401020408002010280
:1019A0000108040201010204081020408080402048
:1019B0001008040201800402018040201008040283
:1019C0000108040201010204081020408001020401
:1019D000081020408000000A0B02090C0D0E0807B9
:1019E00003040100000000000000000000000000EF
:1019F00000000000000000000000000000000000E7
:101A000000121110000000000000000000000000A3
:101A100000000000000000000000005072657061CE
:101A200072696E6720746F207072696E743A004834
:101A3000656174696E672075702E2E2E0041424FCD
:101A400052540054554E450054696D65206C6566CE
:101A5000740054696D65206C65667420756E6B6EDC
:101A60006F776E004300430048656174696E6720BC
:101A70006275696C64706C61746500430043004872
:101A8000656174696E67005072696E74696E673A59
:101A90000050415553450054554E450054554E4550
:101AA000004348414E47457C4D4154455249414CC5
:101AB00000524553554D457C5052494E5400756C6B
:101AC00074696D616B65722E636F6D2F455230388E
:101AD00000476F20746F3A0072656164696E672019
:101AE00053442D6361726421004572726F722077D6
:101AF00068696C650052455455524E20544F204D34
:101B000041494E006F66207072696E74696E67207D
:101B100061726561005472696564207072696E74E7
:101B2000696E67206F7574004552524F523A0052E9
:101B3000455455524E20544F204D41494E00667237
:101B40006F6D2074686520736C696365722E007315
:101B5000657474696E67207769746820736574743E
:101B6000696E67006F76657272696465206D616386
:101B700068696E6500546869732066696C652077D2
:101B8000696C6C0043414E43454C00434F4E5449F1
:101B90004E55450041626F72742074686520707202
:101BA000696E743F004E4F00594553004300432077
:101BB000005072696E74657220636F6F6C696E6736
:101BC00020646F776E004241434B20544F204D45B7
:101BD0004E5500746865207072696E742E00596FDE
:101BE000752063616E2072656D6F76650050726955
:101BF0006E742066696E6973686564004241434B88
:101C000020544F204D454E55004C454420427269AA
:101C10006768746E6573730052657472616374698A
:101C20006F6E004D6174657269616C20666C6F77D0
:101C30000046616E207370656564004275696C646E
:101C4000706C6174652074656D702E0054656D70E4
:101C500065726174757265005370656564004162F8
:101C60006F7274003C2052455455524E0025002599
:101C70000025004300430043004300250043004388
:101C80002F00436C69636B20746F207265747572EA
:101C90006E004E6F7A7A6C652074656D7065726146
:101CA000747572653A0025004272696768746E65E2
:101CB00073730025004D6174657269616C20666CF8
:101CC0006F7700250046616E20737065656400259E
:101CD000005072696E742073706565640054554ECF
:101CE000450052657472616374206C656E67746838
:101CF000003F3F3F005265747261637420737065EA
:101D00006564003C2052455455524E006D6D2F7352
:101D10006563006D6D006D6D2F73656300526574B2
:101D200072616374207370656564006D6D00526547
:101D30007472616374206C656E67746800524554F8
:101D400052414354494F4E004D36303120583520D2
:101D50005935205A2569204C2569004300432F003E
:101D6000436C69636B20746F2072657475726E00CA
:101D70004275696C64706C6174652074656D702E59
:101D80003A0056657273696F6E20444556004E6F77
:101D90007620313820323031362030373A32323AFC
:101DA00034360052657475726E006D00204D61749A
:101DB0003A003A005072696E74696E673A003A00F0
:101DC0004D616368696E65206F6E20666F723A00C0
:101DD00052657475726E00746F2064656661756C0F
:101DE000743F005265736574206576657279746816
:101DF000696E67004E4F0059455300526574726119
:101E00006374206C656E677468003F3F3F005265E5
:101E10007472616374207370656564003C20524580
:101E20005455524E006D6D2F736563006D6D006DDE
:101E30006D2F7365630052657472616374207370F3
:101E4000656564006D6D0052657472616374206C29
:101E5000656E6774680052455452414354494F4E71
:101E6000003F3F3F0043757272656E74204500432A
:101E7000757272656E74205A0043757272656E7465
:101E800020582F59004D6178207370656564205A81
:101E9000004D61782073706565642059004D61784C
:101EA000207370656564205800582F59204A657268
:101EB0006B00416363656C65726174696F6E003CB1
:101EC0002052455455524E006D41006D41006D4108
:101ED000006D6D2F736563006D6D2F736563006D0D
:101EE0006D2F736563006D6D2F736563006D6D2FCE
:101EF0007365635E32006D410043757272656E7486
:101F00002045006D410043757272656E74205A0061
:101F10006D410043757272656E7420582F59006DC3
:101F20006D2F736563004D61782073706565642063
:101F30005A006D6D2F736563004D61782073706575
:101F400065642059006D6D2F736563004D617820C5
:101F500073706565642058006D6D2F73656300585C
:101F60002F59204A65726B0030306D6D2F73656399
:101F70005E3200416363656C65726174696F6E0007
:101F80004D4F54494F4E003F3F3F0020476C6F7705
:101F9000207768656E20646F6E6500204F6E207735
:101FA00068696C65207072696E74696E67002041A3
:101FB0006C77617973204F66660020416C77617998
:101FC00073204F6E004272696768746E65737300A8
:101FD0003C2052455455524E00250025004272695E
:101FE0006768746E657373004C454400473238204F
:101FF000583020593000473120462569205825693E
:102000002059256900473238205830205930005275
:10201000455455524E0053455454494E475300437E
:1020200048414E474500666F72206D617465726964
:10203000616C2072656D6F76616C004865617469D2
:102040006E67207072696E74686561640053442025
:1020500063617264206F6B006F70656E526F6F7496
:10206000206661696C656400766F6C756D652E69BC
:102070006E6974206661696C6564004572726F7286
:102080003A00534420696E6974206661696C00658A
:1020900063686F3A004D3234004D323320257300AF
:1020A0006175746F25692E67002073656300206D6C
:1020B000696E0020686F75720020686F757273001A
:1020C000627574746F6E20746F20636F6E74696EC6
:1020D000756500556C74696D616B65722120507275
:1020E0006573732074686500737461727475702011
:1020F0006F6620796F75720057656C636F6D652030
:10210000746F2074686520666972737400312F32B1
:102110003100434F4E54494E554500473120462526
:1021200069205A25692058256920592569004732B8
:1021300038205A30205830205930006275696C645C
:10214000706C6174652E006F662061646A757374CB
:10215000696E6720796F7572007468726F75676851
:10216000207468652070726F63657373004920770F
:10217000696C6C20677569646520796F75004341EF
:102180004E43454C00434F4E54494E554500473150
:1021900020462569205A256900473238205A3000E8
:1021A000612066697273742072756E2077697A6136
:1021B00072642E0077616C6B20796F752074687281
:1021C0006F756768006669727374207374617274E6
:1021D000757020492077696C6C0042656361757386
:1021E0006520746869732069732074686500322FF4
:1021F000323100434F4E54494E5545004731204639
:102200002569205A256920582569205925690047E4
:10221000323820583020593000676F696E6720745B
:102220006F20646F2074686174206E6F772E006178
:10223000646A7573746D656E74732C2077652061A4
:102240007265007765206E65656420746F20646F29
:1022500020736F6D65004166746572207472616EE3
:1022600073706F72746174696F6E00332F32310056
:10227000434F4E54494E554500473120462569206D
:102280005A300047312046256920582569205925B4
:102290006900473120462569205A350066726F6D06
:1022A00020746865206275696C64706C6174652E59
:1022B0000061206D696C6C696D6574657220617771
:1022C000617900756E74696C20746865206E6F7A30
:1022D0007A6C6520697300526F746174652074684C
:1022E0006520627574746F6E00342F323100434F75
:1022F0004E54494E554500434F4E54494E554500A6
:10230000473120462569205A30004731204625694B
:102310002058256920592569004731204625692024
:102320005A350066726F6D20746865206275696C3D
:1023300064706C6174652E0069732061206D696C36
:102340006C696D6574657220617761790073637281
:1023500065772074696C6C20746865206E6F7A7A7A
:102360006C65005475726E206C65667420627569C8
:102370006C64706C61746500352F323100434F4ED0
:1023800054494E55450066726F6D20746865206231
:1023900075696C64706C6174652E006973206120CE
:1023A0006D696C6C696D6574657220617761790027
:1023B00073637265772074696C6C20746865206E35
:1023C0006F7A7A6C65005475726E207269676874F2
:1023D000206275696C64706C61746500362F3231EF
:1023E00000434F4E54494E5545004731204625691C
:1023F000205A300047312046256920582569205948
:10240000256900473120462569205A3500746865E2
:10241000206275696C64706C617465206C657665AA
:102420006C2E00706170657220746F2066696E6535
:102430002D74756E65006E6F772075736520612051
:102440007368656574206F660052657065617420FD
:102450007468697320737465702C2062757400371A
:102460002F323100434F4E54494E55450062697436
:1024700020726573697374616E63652E00756E7486
:10248000696C20796F75206665656C2061006275E6
:10249000696C64706C61746520616E64206E6F7A23
:1024A0007A6C6500536C69646520612070617065A9
:1024B00072206265747765656E00382F3231004393
:1024C0004F4E54494E554500434F4E54494E554585
:1024D00000746865206C65667420636F726E657247
:1024E0002E2E2E0052657065617420746869732009
:1024F000666F7200392F323100434F4E54494E55AA
:102500004500473238205A30007468652072696788
:10251000687420636F726E65722E2E2E0052657085
:10252000656174207468697320666F720031302FA2
:10253000323100434F4E54494E554500444F4E45AD
:10254000004D383400473120463132303030205889
:1025500031313020593130005072696E74696E67C4
:102560002077697468205553422E2E2E00756C74A6
:10257000696D616B65722E636F6D2F455230370048
:10258000476F20746F3A0058206F7220592073777C
:102590006974636820737475636B00756C74696D1E
:1025A000616B65722E636F6D2F4552303700476F38
:1025B00020746F3A0058206F722059207377697425
:1025C00063682062726F6B656E00756C74696D6113
:1025D0006B65722E636F6D2F4552303600476F204A
:1025E000746F3A005A207377697463682073747546
:1025F000636B00756C74696D616B65722E636F6DD2
:102600002F4552303500476F20746F3A005A2073BF
:1026100077697463682062726F6B656E00756C74A5
:10262000696D616B65722E636F6D2F45523034009A
:10263000476F20746F3A005361666574792063694F
:10264000726375697400756C74696D616B65722E67
:10265000636F6D2F4552303300476F20746F3A001F
:10266000486561746572206572726F7200756C7472
:10267000696D616B65722E636F6D2F45523032004C
:10268000476F20746F3A0054656D702073656E73E8
:102690006F722042454400756C74696D616B6572A0
:1026A0002E636F6D2F4552303100476F20746F3AA3
:1026B0000054656D702073656E736F7200455252E1
:1026C0004F52202D2053544F50504544004D414906
:1026D0004E54454E414E4345004D415445524941AB
:1026E0004C005052494E540020746F6F206C6F6E36
:1026F0006720657874727573696F6E207072657685
:10270000656E7465640020636F6C64206578747214
:102710007573696F6E2070726576656E746564009E
:102720006563686F3A0024F4D43050C38E20C2A28F
:102730004017828B7011127A910D816CD90AA861B1
:10274000E108C7586607615143061E4B5D05C14548
:10275000A7041A411104093D980371393103403629
:10276000DB0265339102D4305402802E1D02632CAB
:10277000EE01752AC501B028A001102781018F251F
:1027800064012B244B01E0223401AC211F018D2078
:102790000D01801FFC00841EED00971DDF00B81C9A
:1027A000D200E61BC600201BBC00641AB200B2199E
:1027B000A8000A19A0006A189900D11791004017C3
:1027C0008B00B516840031167E00B31579003A15DA
:1027D0007300C7146F0058146A00EE136600881364
:1027E000630025135E00C7125B006C1257001512C0
:1027F0005400C111510070114F0021114B00D6102F
:1028000049008D1047004610440002104200C00FDE
:102810004000800F3E00420F3C00060F3B00CB0EF5
:102820003800930E37005C0E3500270E3400F30D90
:102830003200C10D3100900D3000600D2E00320DC0
:102840002D00050D2C00D90C2B00AE0C2900850C99
:1028500029005C0C2700350C27000E0C2600E80B25
:102860002400C40B2400A00B23007D0B23005A0B73
:102870002100390B2100180B2000F80A1F00D90A8B
:102880001E00BB0A1E009D0A1D00800A1D00630A6F
:102890001C00470A1B002C0A1B00110A1A00F7092A
:1028A0001A00DD091900C4091900AB0919009209C1
:1028B00017007B091800630917004C091600360938
:1028C0001600200916000A091500F5081500E00891
:1028D0001400CC081400B8081400A40814009008D0
:1028E00013007D0812006B081300580812004608F8
:1028F0001200340811002308110012081100010809
:102900001100F0071000E0071000D0071000C0070A
:102910001000B0070F00A107100091070E008307F9
:102920000F0074070F0065070E0057070E004907D8
:102930000E003B070D002E070E0020070D001307A9
:102940000D0006070D00F9060C00ED060D00E0066F
:102950000C00D4060C00C8060C00BC060C00B00627
:102960000C00A4060B0099060C008D060B008206D5
:102970000B0077060B006C060B0061060A00570679
:102980000B004C060A0042060A0038060A002E0612
:102990000A0024060A001A060A00100609000706A3
:1029A0000A00FD050900F4050900EB050900E20530
:1029B0000900D9050900D0050900C7050900BE05B1
:1029C0000900B5050800AD050800A50509009C052E
:1029D0000800940508008C050800840508007C05A3
:1029E0000800740508006C050700650508005D0512
:1029F0000700560508004E0507004705070040057B
:102A0000080038050700310507002A0507002305DF
:102A100007001C050600160507000F05070008053E
:102A2000060002050700FB040600F5040700EE049B
:102A30000600E8040600E2040700DB040600D504F3
:102A40000600CF040600C9040600C3040600BD0446
:102A50000600B7040600B1040500AC040600A60495
:102A60000600A00405009B040600950405009004E0
:102A700006008A04050085040500800406007A0427
:102A8000050075040500700405006B04050066046C
:102A90000500610405005C040500570405005204AC
:102AA00005004D04050048040500430405003E04EC
:102AB00004003A04050035040500300404002C0429
:102AC000050027040400230405001E0404001A0462
:102AD000040016040500110404000D040400090498
:102AE00005000404040000040400FC030400F803CF
:102AF0000400F4030400F0030400EC030400E80302
:102B00000400E4030400E0030400DC030400D80331
:102B10000400D4030400D0030400CC030400C80361
:102B20000300C503030024F404D9201BC40C5C0E6D
:102B30009804C4095F0265077101F405F900FB04FC
:102B4000B30048048700C10369005803550003031C
:102B50004500BE023A008402310053022A002902D5
:102B6000250004022000E4011C00C8011900AF0187
:102B70001700980114008401130071011000610115
:102B8000100051010E0043010D0036010B002B0116
:102B90000B0020010B00150109000C0109000301C5
:102BA0000800FB000800F3000800EB000700E40049
:102BB0000600DE000600D8000600D2000600CC00A9
:102BC0000500C7000500C2000500BD000400B900F3
:102BD0000400B5000400B1000400AD000400A90029
:102BE0000400A5000300A20003009F0004009B0056
:102BF000030098000300950002009300030090007A
:102C000003008D0002008B00030088000200860094
:102C1000020084000300810002007F0002007D00AA
:102C200002007B00020079000200770001007600BC
:102C300002007400020072000100710002006F00C7
:102C400002006D0001006C0002006A0001006900D2
:102C500002006700010066000100650001006400D9
:102C600002006200010061000100600001005F00DD
:102C700002005D0001005C0001005B0001005A00E1
:102C800001005900010058000100570001005600E2
:102C900001005500010054000100530000005300E2
:102CA00001005200010051000100500001004F00DE
:102CB00001004E0000004E0001004D0001004C00DC
:102CC00001004B0000004B0001004A0001004900D8
:102CD00001004800000048000100470001004600D4
:102CE00000004600010045000000450001004400CE
:102CF00001004300000043000100420000004200C8
:102D000001004100000041000100400001003F00BF
:102D100000003F0001003E0000003E0001003D00B9
:102D200000003D0001003C0000003C0000003C00B1
:102D300001003B0000003B0001003A0000003A00A7
:102D4000010039000000390001003800000038009F
:102D50000000380001003700000037000100360095
:102D6000000036000000360001003500000035008C
:102D70000000350001003400000034000000340081
:102D80000100330000003300000033000100320076
:102D9000000032000000320001003100000031006C
:102DA0000000310001003000000030000000300061
:102DB00001002F0000002F0000002F0000002F0056
:102DC00001002E0000002E0000002E0001002D004A
:102DD00000002D0000002D0000002D0001002C003F
:102DE00000002C0000002C0000002C0001002B0033
:102DF00000002B0000002B0000002B0001002A0027
:102E000000002A0000002A0000002A00010029001A
:102E1000000029000000290000002900000029000E
:102E20000100280000002800000028000000280001
:102E300000002800010027000000270000002700F4
:102E400000002700000027000100260000002600E7
:102E500000002600000026000000260001002500DA
:102E600000002500000025000000250000002500CE
:102E700000002500010024000000240000002400C0
:102E800000002400000024000100230000002300B3
:102E900000002300000023000000230000002300A6
:102EA0000000230001002200000022000000220098
:102EB000000022000000220000002200010021008A
:102EC000000021000000210000002100000021007E
:102ED000000021000000210001002000000020006F
:102EE0000000200000002000000020000000200062
:102EF000000020000000200001001F0000001F0053
:102F000000001F0000001F0000001F0000001F0045
:102F100000001F0001001E0000001E0000001E0037
:102F200000001E000000801506060606FEFEFEFEDE
:102F3000FC00000000000000FCFEFEFEFC000000A3
:102F40000EFEFEFEFE0000E0FCFEFEFCE0E00000E7
:102F500000CECECE000000C0C0C0C0C0C080000007
:102F60000000000080C0C0800000000000008080E1
:102F7000C0C0C0C0C0C0C080800000000006FEFE0F
:102F8000FEFE0000000080C0C0C000000000000085
:102F90008080C0C0C080808000000000C0C0C0C071
:102FA0000080C0C0C0C08000000000007FFFFFFFA5
:102FB000FF80000000000080FFFFFFFFFF00000017
:102FC00000FFFFFFFF000000FFFFFFFF0000000009
:102FD00000FFFFFF00000081F1FFFF3F0F3FFFFCFC
:102FE000F0F0FCFF3F0F3FFFFEF880000000C1E162
:102FF000F1F17131010183FFFFFFFC000000FFFFD1
:10300000FFFF000C3EFFFFF7C301000000FCFEFFC6
:103010008703113131333F3F3F1E000001FFFFFFA7
:10302000FF07030101010100000000000001030788
:10303000070F0F0F0F0F0F0F0707070F0F060000E7
:1030400000070F0F07000000070F0F070000000028
:10305000000F0F0F0000060F0F070100000001070F
:103060000F0F070100000001070F0F060000030704
:103070000F0F0E0E060703070F0F07000000070FC4
:103080000F0700000000030F0F0F060000000307EA
:10309000070F0E0E0E0E0E0E06000000000F0F0F93
:1030A0000F0000000000000043616E6E6F74206F1F
:1030B00070656E2073756264697200577269746915
:1030C0006E6720746F2066696C653A20002E006F71
:1030D00070656E206661696C65642C2046696C655C
:1030E0003A20002E006F70656E206661696C656421
:1030F0002C2046696C653A200046696C6520736532
:103100006C6563746564002053697A653A200046F3
:10311000696C65206F70656E65643A20002E006FE3
:1031200070656E206661696C65642C2046696C650B
:103130003A2000526576657273696E67206D61741E
:10314000657269616C0052656D6F7665206D6174A2
:10315000657269616C0043414E43454C00524541E4
:10316000445900250046616E3A2000430043002583
:1031700000466C6F773A006D6D004D4154455249E1
:10318000414C006D6174657269616C20696E736594
:103190007274696F6E00436F6F6C696E6720707236
:1031A000696E746865616420666F72004865617459
:1031B000696E67207072696E746865616420666FFD
:1031C000720061626F766520746865206172726F4B
:1031D000772E00796F7572206D616368696E652C5A
:1031E0000066726F6D20746865206261636B73693D
:1031F0006465206F6600496E73657274206E657732
:10320000206D6174657269616C0043414E43454CA9
:1032100000524541445900466F7277617264696E8D
:1032200067206D6174657269616C00636F6D6573B1
:10323000206F757420746865206E6F7A7A6C6500F3
:10324000576169742074696C6C206D617465726972
:10325000616C0043414E43454C0052454144590086
:10326000696E204D4154455249414C2E54585400EA
:10327000746F207468652053442063617264005346
:1032800061766564206D6174657269616C73004F6D
:103290006B000A0A006469616D657465723D000A1D
:1032A00000666C6F773D000A0066616E5F73706543
:1032B00065643D000A006265645F74656D706572E7
:1032C00061747572653D000A0074656D70657261A8
:1032D000747572653D000A006E616D653D005B6D41
:1032E0006174657269616C5D0A0052656164696E42
:1032F0006720636172642E2E2E00506C65617365C9
:1033000020696E736572742063617264004E6F2071
:1033100053442D43415244210066726F6D207468FE
:10332000652053442063617264004C6F616465647E
:10333000206D6174657269616C73004F6B003C2095
:103340004241434B003C2052455455524E004E6F73
:1033500020696E666F20617661696C61626C6500E0
:103360006D006D004D6174657269616C3A200054A6
:10337000696D653A20003B4D4154455249414C3AF4
:10338000003B54494D453A00466F6C6465720043FA
:10339000616E6E6F7420656E746572207375626401
:1033A00069723A200053442043415244004731207F
:1033B00046313230303020583520593130004732D4
:1033C00038003B464C41564F523A556C746947435E
:1033D0006F6465003B464C41564F523A556C7469D8
:1033E00047436F6465004E6F2066696C65732066A5
:1033F0006F756E6421004F4B004F4B005265616446
:10340000696E6720636172642E2E2E00506C6561B8
:10341000736520696E736572742063617264004E17
:103420006F2053442D434152442100526573656E11
:10343000643A20006F6B004E414E494E4954594941
:103440004E46CDCCCC3D0AD7233C17B7D13877CCEC
:103450002B329595E6241FB14F0A00002041000051
:10346000C84200401C4620BCBE4CCA1B0E5AAEC50A
:103470009D7445D724D711241FBECFEFD1E2DEBF04
:10348000CDBF00E00CBF13E0A0E0B2E0E0E0F8EC5C
:1034900001E00BBF02C007900D92AA31B107D9F726
:1034A00029E1AAE1B3E001C01D92AD32B207E1F714
:1034B0001AE1CAE3DAE100E006C021970109802F92
:1034C000FE010E9417D8C933D10780E00807A9F789
:1034D0000E94CACA0C94EEE30C9400002F923F9213
:1034E0004F925F926F927F928F929F92AF92BF9214
:1034F000CF92DF92EF92FF920F931F93CF93DF93C0
:10350000CDB7DEB7CB56D1090FB6F894DEBF0FBEEC
:10351000CDBF1092450B87E40E946446F82E8823A5
:1035200009F419C40E948A460E9487D96A3071053D
:1035300009F48EC084F46230710581F124F477FFC0
:1035400023C00C948D356330710581F164307105B1
:10355000C1F10C948D356A35710509F4BCC354F47E
:103560006B30710509F40AC16C31710509F47CC135
:103570000C948D356B35710509F4B1C36C3571054B
:1035800009F4B2C30C948D358091F803811106C003
:103590000E9427690E9467680C94693B8091F80338
:1035A000811104C00E948B6A81E007C08091F803FA
:1035B000811107C00E948B6A80E00E9427650C94ED
:1035C000693B80E50E946446882339F00E948A4660
:1035D0000E948CD96B017C0103C0C12CD12C7601D7
:1035E00083E50E946446882361F00E948A4620E0B9
:1035F00030E04AE754E40E940ADC0E948CD96B0157
:103600007C010E943DB30E947D74C60ED71EE81E49
:10361000F91E0E947D746093540770935507809340
:1036200056079093570781E08093450B0E947D7465
:103630006C157D058E059F0510F00C948D350E944C
:1036400020780E9483640E946E9F0E94A7A5EECFFF
:103650008091340781110C948D358091750B909178
:10366000760BA091770BB091780B8093190A909309
:103670001A0AA0931B0AB0931C0A8091790B9091AF
:103680007A0BA0917B0BB0917C0B80931D0A9093D9
:103690001E0AA0931F0AB093200A80917D0B90917F
:1036A0007E0BA0917F0BB091800B8093210A9093A9
:1036B000220AA093230AB093240AC090810BD090D1
:1036C000820BE090830BF090840BE0919D0B24E043
:1036D000E29FF0011124E756F44F208131814281AD
:1036E000538160914B0270914C0280914D029091F8
:1036F0004E020E941FD99B01AC01C701B6010E9476
:1037000042D89B01AC016093250A7093260A8093EE
:10371000270A9093280A80902E0290902F02A09062
:103720003002B09031028091470290914802A091FE
:103730004902B0914A0280932E0290932F02A093E7
:103740003002B0933102C701B6010E9442D86093A3
:10375000360770933707809338079093390781E0D5
:10376000809334070E94676880922E0290922F0205
:10377000A0923002B09231020C948D3580913407C2
:10378000882311F40C948D358091750B9091760BF4
:10379000A091770BB091780B8093190A90931A0A35
:1037A000A0931B0AB0931C0A8091790B90917A0B1D
:1037B000A0917B0BB0917C0B80931D0A90931E0A05
:1037C000A0931F0AB093200A80917D0B90917E0BED
:1037D000A0917F0BB091800B8093210A9093220AD5
:1037E000A093230AB093240A20913607309137071B
:1037F00040913807509139076091810B7091820B8D
:103800008091830B9091840B0E9443D86093250A8A
:103810007093260A8093270A9093280AC0902E025C
:10382000D0902F02E0903002F09031028091160289
:1038300090911702A0911802B091190280932E0264
:1038400090932F02A0933002B0933102109234076C
:103850000E946768C0922E02D0922F02E09230023E
:10386000F09231020C948D3585E08093450B809168
:103870002E0290912F02A0913002B09131028093DC
:103880001C0390931D03A0931E03B0931F0380910C
:1038900045029091460290931B0380931A0384E69D
:1038A00090E090934602809345020E947D7460935D
:1038B000540770935507809356079093570711E06C
:1038C000109315028091750B9091760BA091770B58
:1038D000B091780B8093190A90931A0AA0931B0A4F
:1038E000B0931C0A8091790B90917A0BA0917B0B7D
:1038F000B0917C0B80931D0A90931E0AA0931F0A1F
:10390000B093200A80917D0B90917E0BA0917F0B4C
:10391000B091800B8093210A9093220AA093230AEE
:10392000B093240A8091810B9091820BA091830B1C
:10393000B091840B8093250A9093260AA093270ABE
:10394000B093280A10922E0210922F021092300289
:103950001092310288E50E946446882311F080E0CD
:1039600009C089E50E9464468111F9CF8AE50E9469
:103970006446812780930402882309F4F4C01092DE
:10398000750B1092760B1092770B1092780B1092A9
:10399000790B10927A0B10927B0B10927C0B109289
:1039A0007D0B10927E0B10927F0B1092800B0E9469
:1039B000679280E090E4A1EAB3EC8093190A9093B7
:1039C0001A0AA0931B0AB0931C0A80E090E8ADE9A4
:1039D000B3E480931D0A90931E0AA0931F0AB0932C
:1039E000200A80E090E8ACEAB3E48093210A909347
:1039F000220AA093230AB093240A80E090E8ABEB5C
:103A0000B5E480932E0290932F02A0933002B093DE
:103A100031024DE9C42E4BE0D42EE12CF12C08EC00
:103A200012E425E23AE041E25AE06DE17AE089E110
:103A30009AE00E942EA70E943DB30E94CEB980E07A
:103A400090E00E942C4681E090E00E942C4682E0AB
:103A500090E00E942C460E9467928091750B909195
:103A6000760BA091770BB091780B8093190A909305
:103A70001A0AA0931B0AB0931C0A8091790B9091AB
:103A80007A0BA0917B0BB0917C0B80931D0A9093D5
:103A90001E0AA0931F0AB093200A80917D0B90917B
:103AA0007E0BA0917F0BB091800B8093210A9093A5
:103AB000220AA093230AB093240A20E030E040E7D2
:103AC00052E460912E0270912F0280913002909109
:103AD00031020E941FD97B018C0125E23AE041E2CC
:103AE0005AE06DE17AE089E19AE00E942EA71092F7
:103AF0002E0210922F0210923002109231020E9478
:103B00003DB30E94CEB98091190A90911A0AA091F2
:103B10001B0AB0911C0A8093750B9093760BA093AF
:103B2000770BB093780B80911D0A90911E0AA0919B
:103B30001F0AB091200A8093790B90937A0BA0937F
:103B40007B0BB0937C0B8091210A9091220AA0916B
:103B5000230AB091240A80937D0B90937E0BA0934F
:103B60007F0BB093800B8091040281110C949235ED
:103B70008AE50E94644681110C949235809104027A
:103B800081110C94983588E50E946446882331F0B1
:103B900089E50E94644681110C9498358091040255
:103BA00081110C94643688E50E94644681110C945E
:103BB00064368091040281110C946A3689E50E9472
:103BC000644681110C946A3688E50E946446882315
:103BD000D1F00E947F46672B682B692BA1F00E94D1
:103BE0008A462091C90F3091CA0F4091CB0F509156
:103BF000CC0F0E9443D86093750B7093760B809323
:103C0000770B9093780B89E50E9464468823D1F066
:103C10000E947F46672B682B692BA1F00E948A4681
:103C20002091CD0F3091CE0F4091CF0F5091D00FFA
:103C30000E9443D86093790B70937A0B80937B0B2F
:103C400090937C0B8AE50E9464468823D1F00E9401
:103C50007F46672B682B692BA1F00E948A46209132
:103C6000D10F3091D20F4091D30F5091D40F0E94B9
:103C700043D860937D0B70937E0B80937F0B909362
:103C8000800B0E9467921092150280911C03909104
:103C90001D03A0911E03B0911F0380932E029093E9
:103CA0002F02A0933002B093310280911A039091B9
:103CB0001B0390934602809345020E947D7460939B
:103CC00054077093550780935607909357070E94A7
:103CD000CEB90C948D3510923F070C948D3581E050
:103CE00080933F070C948D3585E40E9464468111D2
:103CF00002C00E943DB321EEC22E22E0D22E35E753
:103D0000E32E3BE0F32E10E0D6018D916D010E9471
:103D100064468823C1F0133061F40E948A46F7019B
:103D2000608371838283938381E89BE00E9422A554
:103D30000AC00E948A46D7016D937D938D939C9310
:103D400013970E9467921F5FB4E0EB0EF11C1430D2
:103D5000D9F60C948D358DE40E946446882311F4C5
:103D60000C9419330E948A460E9487D96C387105D9
:103D700009F404C40CF0AAC06035710509F44BC6FF
:103D80000CF04CC06731710509F4F2C134F56231B1
:103D9000710509F44DC69CF477FF02C00C948D3573
:103DA000623071050CF476C16131710511F00C942B
:103DB0008D3515984698439840980C948D3565310B
:103DC000710509F4C9C10CF0CBC16431710511F062
:103DD0000C948D35EBE0F6E076C16B31710509F49A
:103DE00004C23CF46931710509F4EDC10CF4D6C18B
:103DF000EEC16E31710509F498C234F46C3171056D
:103E000009F461C20C948D356F31710509F4F9C262
:103E10006A32710509F451C30C948D356A36710507
:103E200009F484C524F56435710509F401C654F418
:103E30006235710509F4F3C50CF0F5C50A9A1298BC
:103E40000C948D356C35710509F445C634F465352F
:103E5000710509F425C60C948D356836710509F491
:103E600066C36936710509F4A5C30C948D356337B3
:103E7000710509F4B6C68CF46D36710509F440C4B9
:103E80006237710509F4CEC66B36710511F00C94DA
:103E90008D3510920C100C948D356737710509F42F
:103EA000A3C734F46537710509F4AAC60C948D359F
:103EB0006837710509F494C76937710511F00C94DE
:103EC0008D3581E0809315020C948D35643FE1E0DF
:103ED0007E0711F40C94E32D0CF060C0613D710578
:103EE00011F40C949A284CF56C3C710511F40C9467
:103EF000A7277CF4693C710509F4E9C76B3C71059F
:103F000011F40C9489276E3B710511F00C948D35DA
:103F100050C46E3C710511F40C94292814F40C94CF
:103F2000C9276F3C710511F40C944728603D710559
:103F300011F40C9478280C948D356D3221E07207C1
:103F400011F40C94B32994F46D3D710511F40C94A3
:103F50000F296C3241E0740711F40C9426296C3D52
:103F6000710511F00C948D350C94FE286F3251E0E0
:103F7000750711F40C94942A14F40C947F2A603978
:103F800091E0790711F40C94E02D6139714011F042
:103F90000C948D350E941BB30C948D35603AB3E0C0
:103FA0007B0709F4F9C19CF56935F2E07F0711F44C
:103FB0000C94EC2D94F4663F31E0730711F40C94EB
:103FC000E92D14F40C94E62D673F714011F00C9428
:103FD0008D350E9429490C948D356E3582E0780725
:103FE00011F40C94B4303CF46D35724011F40C941F
:103FF000FB2F0C948D356B38B3E07B0711F40C94D8
:1040000071316B39734009F49EC10C948D35623166
:10401000F7E27F0711F40C94F43124F5603137E2B4
:10402000730711F40C94AF3114F00C94B231673E65
:10403000734011F00C948D351092F803809158075D
:1040400090915907A0915A07B0915B078093F903AB
:104050009093FA03A093FB03B093FC030E941FCA42
:104060000C948D35643187E2780711F40C94753225
:1040700014F40C9445326531A7E27A0711F40C94DC
:10408000A5326A31774211F00C948D35EEE6F4E0FA
:104090000C94DC3281E08093CC0D8091CC0D882390
:1040A00011F40C948D350E9420780E9483640E9444
:1040B0006E9F0E94A7A5F1CF9091C00095FFFCCF05
:1040C0008093C600319684918111F6CF8091C00013
:1040D00085FFFCCF8AE08093C6001092C20F109239
:1040E000C10F40E050E0BA018EEF9DE00E94B5584C
:1040F0008BE1EEEFFDE0DE01159601900D928A95C1
:10410000E1F78091FC0D9091FD0D9C838B8389EEEE
:1041100092E09A838983BE016F5F7F4F87E193E0CE
:104120000E947ABCCE0101960E948061EDEFF5E01D
:104130008491882341F09091C00095FFFCCF80933B
:10414000C6003196F5CF8091C00085FFFCCF8AE094
:104150008093C6000C948D350E94F9900C948D3597
:104160001092CB0D1092CC0D1092F90D0C948D3550
:104170000091FD031091FE030C5F1F4F6AE270E097
:10418000C8010E94CDDB009719F0FC013197108225
:1041900061E0C8010E9493BA0C948D358091F90DAD
:1041A000882329F081E08093CB0D1092CC0D0E94E2
:1041B0007D74609368037093690380936A0390939E
:1041C0006B030C948D350E946DBC0C948D358091E1
:1041D000F90D882311F40C948D358091730F882389
:1041E00011F40C9470360C948D358091F90D882360
:1041F000A9F1E6E7F2E08491882341F09091C000B4
:1042000095FFFCCF8093C6003196F5CF6091BC0F2F
:104210007091BD0F8091BE0F9091BF0F4AE00E9438
:10422000FD8EE4E7F2E08491882341F09091C00094
:1042300095FFFCCF8093C6003196F5CF6091B40F07
:104240007091B50F8091B60F9091B70F4AE00E9420
:10425000FD8E8091C00085FFFCCF11C0E4E6F2E046
:104260008491882341F09091C00095FFFCCF80930A
:10427000C6003196F5CF8091C00085FFFCCF8AE063
:104280008093C6006091730F662311F40C948D35F2
:10429000E8E5F2E08491882341F09091C00095FF19
:1042A000FCCF8093C6003196F5CF70E080E090E0BF
:1042B0000E94728F8091C00085FFFCCF8AE08093BE
:1042C000C6000C948D358091FD039091FE036AE247
:1042D00070E004960E94CDDB8C01892BE1F02091E7
:1042E00018073091190740E6429FC001439F900D87
:1042F00011246EE470E0885E9B4F0E94CDDB60E28B
:1043000070E00E94CDDB01969093FE038093FD0345
:10431000F801319710828091FD039091FE0360E0D7
:1043200004960E9493BA0C948D358091F90D8823E0
:1043300011F40C948D358091730F882311F40C9433
:1043400087360C948D350091FD031091FE030C5FB0
:104350001F4F6AE270E0C8010E94CDDB009719F0A0
:10436000FC013197108261E0C8010E9493BA8091EC
:10437000F90D882329F081E08093CB0D1092CC0DAC
:104380000E947D74609368037093690380936A034D
:1043900090936B030C948D358091FD039091FE03F7
:1043A0006AE270E005960E94CDDB8C01892BE1F07A
:1043B000209118073091190740E6429FC001439FA2
:1043C000900D11246EE470E0885E9B4F0E94CDDB5F
:1043D00060E270E00E94CDDB01969093FE03809333
:1043E000FD03F801319710828091FD039091FE0347
:1043F00021E02093CA0D60E005960E9493BA0C94C8
:104400008D350E947D7460936C0370936D0380936F
:104410006E0390936F0300916803109169032091DC
:104420006A0330916B03601B710B820B930B28EEB8
:1044300033E040E050E00E94B3E3CA01B9012CE34D
:1044400030E040E050E00E94B3E37F936F933F93EE
:104450002F938EEE95E09F938F938E010F5F1F4FEA
:104460001F930F930E9432E0EFE0F7E084910FB6C4
:10447000F894DEBF0FBECDBFEFE0F7E0882349F030
:104480009091C00095FFFCCF8093C6003196849137
:10449000F5CFF8018191882339F09091C00095FF04
:1044A000FCCF8093C600F6CF8091C00085FFFCCF83
:1044B0008AE08093C6000C948D3583E50E946446A3
:1044C000882311F40C948D350E948A460E9487D966
:1044D000F62EE72E862F9E2D8C0180E50E946446E5
:1044E000882331F00F3F110509F010F40C94F837D0
:1044F00088E090E0E0E6F2E0219131912817390759
:1045000011F40C948D3522E0E839F207A9F78730D1
:10451000910519F4F0920C1004C097FF02C00C949E
:104520008D356F2D7E2D0E9491730C948D3588E60C
:1045300090E00E94886181110C948D3583E50E9482
:104540006446882311F40C948D3500915C070E9419
:104550008A4610E00E9487D9F801EE0FFF1FEF5B3B
:10456000F54F718360836138714014F40C948D357C
:1045700081E891E0918380830C948D3583E50E94DE
:104580006446882311F40C948D350E948A460E945B
:1045900087D97093440A6093430A6337710514F412
:1045A0000C948D3583E790E09093440A8093430AFE
:1045B0000C948D3589E690E00E94886181110C94FD
:1045C0008D35E8EEF5E08491882341F09091C000AC
:1045D00095FFFCCF8093C6003196F5CFE0915C0744
:1045E00044E0E49FF0011124E35CF54F60817181A8
:1045F0008281938141E00E94848FE5EEF5E0849111
:10460000882341F09091C00095FFFCCF8093C600B5
:104610003196F5CFE0915C07F0E0EE0FFF1FEF5B06
:10462000F54F60817181072E000C880B990B0E9459
:1046300067E041E00E94848FE1EEF5E084918823F9
:1046400041F09091C00095FFFCCF8093C600319659
:10465000F5CF6091390A70913A0A80913B0A9091A6
:104660003C0A41E00E94848FEEEDF5E084918823BE
:1046700041F09091C00095FFFCCF8093C600319629
:10468000F5CF6091430A7091440A072E000C880B05
:10469000990B0E9467E041E00E94848FEAEDF5E00B
:1046A0008491882341F09091C00095FFFCCF8093C6
:1046B000C6003196F5CFE0915C07F0E0E95BF54F7D
:1046C000608170E080E090E00E94728FE5EDF5E09F
:1046D0008491882341F09091C00095FFFCCF809396
:1046E000C6003196F5CF6091460A70E080E090E018
:1046F0000E94728F8091C00085FFFCCF0C94143310
:104700008DE690E00E94886181110C948D3583E0E4
:104710008093450B83E50E9464468823A9F00091AD
:104720005C070E948A4610E00E9487D9F801EE0FCC
:10473000FF1FEF5BF54F718360836138714024F098
:1047400081E891E0918380830E947D742B013C017C
:10475000E0915C070E2F10E0F801EE0FFF1FEF5BFA
:10476000F54F60817181072E000C880B990B0E9418
:1047700067E0F801EE0FFF1FEE0FFF1FE35CF54F40
:1047800011E020813181428153810E9469DA18163B
:104790000CF010E088248A94982C54016AEC262EA0
:1047A00065E0362E78ECE72E75E0F72E0AE00C94E3
:1047B000943884E08093450B83E50E946446882307
:1047C00089F00E948A460E9487D97093440A6093B8
:1047D000430A6337710534F083E790E09093440A0D
:1047E0008093430A0E947D744B015C0105EC15E047
:1047F00071ECE72E75E0F72EEDEBCE2EE5E0DE2E28
:10480000FAE07F2E8091430A9091440A0297BC01FE
:10481000990F880B990B0E9467E09B01AC01609196
:10482000390A70913A0A80913B0A90913C0A0E94A1
:1048300061E087FF6FC00E947D74DC01CB018819A5
:104840009909AA09BB09893E9340A105B10508F45D
:1048500058C0E0919D0B24E0E29FF0011124E35C3D
:10486000F54F6081718182819381F8012491E5EC9B
:10487000F5E0222349F03091C00035FFFCCF2093B2
:10488000C60031962491F5CF42E00E94848FF70153
:104890008491E1ECF5E0882349F09091C00095FF08
:1048A000FCCF8093C60031968491F5CF60919D0B2B
:1048B00070E080E090E00E94728FF6018491EDEB51
:1048C000F5E0882349F09091C00095FFFCCF8093DC
:1048D000C60031968491F5CF6091390A70913A0AF9
:1048E00080913B0A90913C0A41E00E94848F809124
:1048F000C00085FFFCCF7092C6000E947D744B0102
:104900005C010E9420780E9483640E946E9F0E9436
:10491000A7A578CF0E947D746093540770935507C4
:1049200080935607909357070C948D3583E50E942A
:104930006446882309F461C00E948A466B017C01A9
:1049400080915902682F70E080E090E00E9467E05B
:104950009B01AC01C701B6010E940ADC20E030E0F7
:1049600048EC52E40E941FD920E030E0A9010E94E7
:1049700061E087FD3BC00E948A466B017C0180910B
:104980005902682F70E080E090E00E9467E09B0190
:10499000AC01C701B6010E940ADC20E030E048EC1F
:1049A00052E40E941FD920E030E04FE753E40E9418
:1049B00069DA1816ECF00E948A466B017C0180913E
:1049C0005902682F70E080E090E00E9467E09B0150
:1049D000AC01C701B6010E940ADC20E030E048ECDF
:1049E00052E40E941FD90E948CD903C060E001C02C
:1049F0006FEF60930C100C948D3580915902FFEF8E
:104A00008F9FC001112464E670E00E94E7D7609395
:104A10000C100C948D350A9A129A0C948D351092C4
:104A200043070C948D3581E0809343070C948D35BA
:104A300083E50E9464468823A1F00E948A4620E014
:104A400030E04AE754E40E940ADC0E948CD960936B
:104A50002A0270932B0280932C0290932D020C94C7
:104A60008D3588E50E94644681110C94423989E5B0
:104A70000E94644681110C9442398AE50E94644682
:104A800081110C94423985E40E94644681110C9492
:104A900042390E943DB3409A0E944DB30C948D352B
:104AA00083E50E946446882311F40C948D350E949E
:104AB0008A4620E030E04AE754E40E940ADC0E9483
:104AC0008CD960935007709351078093520790934D
:104AD00053070C948D3551EE852E52E0952E0EEA3B
:104AE0001BE060EFA62E6FE0B62E2DE030E13DAF6B
:104AF0002CAF312CD4018D914D010E946446882346
:104B000009F45EC0B3E03B1254C00E948A462B01F8
:104B10003C0120E030E040EA51E40E9461E087FF80
:104B200041C0A3019201F80160817181828193816A
:104B30000E941FD96B017C019B01AC016091DC0FCD
:104B40007091DD0F8091DE0F9091DF0F0E940ADCE3
:104B50006093DC0F7093DD0F8093DE0F9093DF0F77
:104B6000A7019601D5016D917D918D919C910E9437
:104B70000ADCF5016083718382839383ACADBDADA4
:104B80006D917D918D919C910E9465E0A7019601A8
:104B90000E940ADC0E948CD9ECADFDAD608371836C
:104BA00082839383D8014D925D926D927C9213978C
:104BB00007C00E948A46F8016083718382839383D1
:104BC00033940C5F1F4FF4E0AF0EB11C2CAD3DAD24
:104BD0002C5F3F4F3DAF2CAF34E033128BCF0C94A2
:104BE0008D35E7E1F5E08491882311F40C948D353F
:104BF0009091C00095FFFCCF8093C6003196F3CF13
:104C00008091FD039091FE036AE270E005960E9498
:104C1000CDDB009711F40C948D35FC013197108297
:104C20000C948D35E4E1F5E08491882341F0909176
:104C3000C00095FFFCCF8093C6003196F5CF609100
:104C4000750B7091760B8091770B9091780B42E009
:104C50000E94848FE1E1F5E08491882341F09091F6
:104C6000C00095FFFCCF8093C6003196F5CF6091D0
:104C7000790B70917A0B80917B0B90917C0B42E0C9
:104C80000E94848FEEE0F5E08491882341F09091BA
:104C9000C00095FFFCCF8093C6003196F5CF6091A0
:104CA0007D0B70917E0B80917F0B9091800B42E089
:104CB0000E94848FEBE0F5E08491882341F090918D
:104CC000C00095FFFCCF8093C6003196F5CF609170
:104CD000810B7091820B8091830B9091840B42E049
:104CE0000E94848FE0E0F5E08491882341F0909168
:104CF000C00095FFFCCF8093C6003196F5CF2FB74B
:104D0000F8946091650B7091660B8091670B9091A0
:104D1000680B2FBF0E9467E02091AE0B3091AF0B64
:104D20004091B00B5091B10B0E941FD942E00E94FC
:104D3000848FEDEFF4E08491882341F09091C000DE
:104D400095FFFCCF8093C6003196F5CF2FB7F8942E
:104D50006091690B70916A0B80916B0B90916C0B59
:104D60002FBF0E9467E02091B20B3091B30B4091AE
:104D7000B40B5091B50B0E941FD942E00E94848F62
:104D8000EAEFF4E08491882341F09091C00095FF10
:104D9000FCCF8093C6003196F5CF2FB7F894609181
:104DA0006D0B70916E0B80916F0B9091700B2FBFFC
:104DB0000E9467E02091B60B3091B70B4091B80B81
:104DC0005091B90B0E941FD942E00E94848F8091BC
:104DD000C00085FFFCCF8AE08093C6000C948D351F
:104DE000109215020C948D35E1EEF4E08491882345
:104DF00041F09091C00095FFFCCF8093C6003196A2
:104E0000F5CF8091C00085FFFCCF8AE08093C6007B
:104E1000E9EDF4E08491882341F09091C00095FF82
:104E2000FCCF8093C6003196F5CF009B03C0EAEC1F
:104E3000F4E00AC0EFECF4E007C09091C00095FFE9
:104E4000FCCF8093C600319684918111F6CFE2ECBD
:104E5000F4E08491882341F09091C00095FFFCCF4D
:104E60008093C6003196F5CF049B03C0E3EBF4E0DA
:104E70000AC0E8EBF4E007C09091C00095FFFCCFBA
:104E80008093C600319684918111F6CFEBEAF4E06D
:104E90008491882341F09091C00095FFFCCF8093CE
:104EA000C6003196F5CF079B03C0ECE9F4E00AC0D9
:104EB000E1EAF4E007C09091C00095FFFCCF809339
:104EC000C600319684918111F6CF0C948D353DE169
:104ED000E32E30E1F32E01EE12E044E0D42ED00EAA
:104EE000D8018D918D010E946446882349F00E946B
:104EF0008A460E948CD9F7016083718382839383F1
:104F0000F4E0EF0EF11CD012EBCF0E9444BA0C94E7
:104F10008D3590EFE92E9FE0F92E01EE12E024E0AE
:104F2000D22ED00ED8018D918D010E946446882327
:104F300039F00E948A46F7016083718382839383EC
:104F4000F4E0EF0EF11CD012EDCF0C948D3583E51B
:104F50000E946446882351F00E948A466093E80FBD
:104F60007093E90F8093EA0F9093EB0F84E50E9412
:104F70006446882311F40C948D350E948A46609310
:104F8000EC0F7093ED0F8093EE0F9093EF0F0C9456
:104F90008D3583E50E946446882351F00E948A463D
:104FA000609304107093051080930610909307107F
:104FB00084E50E946446882351F00E948A466093EB
:104FC00008107093091080930A1090930B1082E4DC
:104FD0000E946446882361F00E948A460E948CD910
:104FE000609300107093011080930210909303104F
:104FF00088E50E946446882351F00E948A466093A7
:10500000E40F7093E50F8093E60F9093E70F8AE526
:105010000E946446882351F00E948A466093E00F04
:105020007093E10F8093E20F9093E30F85E40E9469
:105030006446882311F40C948D350E948A4660934F
:10504000DC0F7093DD0F8093DE0F9093DF0F0C94D5
:105050008D3519ECE12E1FE0F12E01EE12E083E018
:10506000D82ED00ED8018D918D010E9464468823E0
:1050700039F00E948A46F7016083718382839383AB
:10508000F4E0EF0EF11CD012EDCF0C948D3583E5DA
:105090000E946446882351F00E948A4660934B0226
:1050A00070934C0280934D0290934E0286E40E94CE
:1050B0006446882351F00E948A46609347027093A9
:1050C00048028093490290934A028AE50E9464460E
:1050D000882311F40C948D350E948A4660931A023D
:1050E00070931B0280931C0290931D020C948D35CB
:1050F00083E50E946446882351F00E948A466093AB
:10510000360770933707809338079093390786E402
:105110000E946446882311F40C948D350E948A46BF
:1051200060931602709317028093180290931902ED
:105130000C948D3583E50E946446882311F40C9409
:105140008D350E948A460E9487D96115710551F0FC
:105150006130710569F481E080933A071092340759
:105160000C948D3510923A07109234070C948D35BB
:10517000EFE0F7E08491882341F09091C00095FF23
:10518000FCCF8093C6003196F5CFE9E8F4E0849136
:10519000882341F09091C00095FFFCCF8093C6001A
:1051A0003196F5CF809118079091190720E6289F36
:1051B000F001299FF00D1124E85EFB4F81918823B7
:1051C00039F09091C00095FFFCCF8093C600F6CFD8
:1051D000E7E8F4E08491882341F09091C00095FFC6
:1051E000FCCF8093C6003196F5CF8091C00085FF3B
:1051F000FCCF8AE08093C6000C948D3583E50E9435
:105200006446882311F40C948D350E948A460E94CE
:1052100087D970934602609345020C948D3583E5DF
:105220000E946446882311F40C948D3500919D0BE7
:1052300010E00E948A46000F111F015B1D4F0E9463
:1052400087D9D8016D937C930C948D3583E50E94AA
:105250006446882331F00E948A460E948CD97B01E3
:1052600003C0AEE6EA2EF12C80E50E946446882356
:1052700011F40C945B390E948A460E948CD98B01F0
:10528000E114F10409F443C0970140E050E060E20A
:1052900071EA87E090E00E94FAD769017A01F22F63
:1052A000ED2DA701013ABFE01B0710F000EA1FE057
:1052B0009801A4EFB1E00E94DFE32F2F3E2F0E9460
:1052C000B3E3B601CC0CDD1CCC0CDD1CE5E0CE1A42
:1052D000D10880E090E0DC0182179307A407B507AE
:1052E00011F40C948D355B9A6230710518F0F6015B
:1052F0003197F1F75B986230710518F0F60131973C
:10530000F1F70196A11DB11DE7CF08EE13E068018A
:10531000E12CF12C0E9458744B015C01C114D104A2
:10532000E104F10411F40C948D350E945874DC01F1
:10533000CB0188199909AA09BB09883E9340A105A8
:10534000B10560F3F1E0CF1AD108E108F10828EEC9
:10535000820E23E0921EA11CB11CC114D104E104F1
:10536000F10419F7DBCF80E50E946446882351F0F1
:105370000E948A4660933602709337028093380207
:105380009093390289E40E946446882381F00E9448
:105390008A462DEB37E346E05DE30E940ADC60932A
:1053A000090270930A0280930B0290930C0284E42A
:1053B0000E946446882381F00E948A462DEB37E3E1
:1053C00046E05DE30E941FD960933202709333027E
:1053D000809334029093350283E40E9464468823CC
:1053E00051F00E948A4660930002709301028093FC
:1053F0000202909303020E94547AE4E8F4E084915C
:10540000882341F09091C00095FFFCCF8093C600A7
:105410003196F5CFE0E8F4E08491882341F0909153
:10542000C00095FFFCCF8093C6003196F5CF609108
:10543000360270913702809138029091390242E031
:105440000E94848FECE7F4E08491882341F09091EE
:10545000C00095FFFCCF8093C6003196F5CF2DEBB1
:1054600037E346E05DE36091090270910A028091A2
:105470000B0290910C020E941FD942E00E94848F7F
:10548000E8E7F4E08491882341F09091C00095FF13
:10549000FCCF8093C6003196F5CF2DEB37E346E085
:1054A0005DE36091320270913302809134029091F9
:1054B00035020E940ADC42E00E94848FE4E7F4E0B7
:1054C0008491882341F09091C00095FFFCCF809398
:1054D000C6003196F5CF6091000270910102809173
:1054E00002029091030242E00E94848F8091C000EA
:1054F00085FFFCCF8AE08093C6000C948D3583E550
:105500000E946446882319F00E948A4603C060E026
:1055100070E0CB016093510270935202809353026A
:10552000909354020C948D3585E40E946446882340
:1055300041F00E948A460E9487D98B0177FF03C001
:1055400011C000E010E028961FAE289729961FAEE4
:10555000299746E12A964FAF2A9753E42B965FAFDF
:105560002B970EC028961FAE289729961FAE299715
:105570008CE82A968FAF2A9792E42B969FAF2B97B1
:1055800083E50E946446882371F00E948A4628962B
:105590006FAF289729967FAF29972A968FAF2A97C2
:1055A0002B969FAF2B9783E40E946446882349F093
:1055B0000E948A460E9487D9A7967FAF6EAFA797B1
:1055C00006C0A5E0B0E0A796BFAFAEAFA7970E9418
:1055D0007D7427966CAF7DAF8EAF9FAF279702305B
:1055E0001105B4F0E2ECF3E08491882341F090914E
:1055F000C00095FFFCCF8093C6003196F5CF809117
:10560000C00085FFFCCF8AE08093C6000C948D35E6
:10561000EFEAF3E08491882341F09091C00095FF78
:10562000FCCF8093C6003196F5CF8091C00085FFF6
:10563000FCCF8AE08093C6000E94D3748FE717FFE7
:1056400064C08093460A27962CAD3DAD4EAD5FAD4C
:10565000279765962CAF3DAF4EAF5FAF6597AB9682
:105660002CAF3DAF4EAF5FAFAB972C961FAE2C97D4
:1056700030E466963FAF66974CE167964FAF679709
:1056800056E468965FAF689769961FAE69976A9609
:105690001FAE6A976B961FAE6B976C961FAE6C979A
:1056A0008FE790E0A0E0B0E023968CAF9DAFAEAF67
:1056B000BFAF23977FE7472E512C612C712CA39607
:1056C0001CAE1DAE1EAE1FAEA39791E06D969FAFB0
:1056D0006D9761961FAE1EAE61971CAE212C312CCA
:1056E0001EAED801A95BB54FA596BFAFAEAFA597CB
:1056F000C801880F991F880F991FFC01E35CF54FC3
:105700006F96FFAFEEAF6F9709C0F801E95BF54FF9
:10571000808399CF0E946E9F0E94A7A58091450A21
:10572000882309F45EC10E94FE7717FF0BC0F09139
:10573000390AFCAF20903A0A30903B0A20913C0A8B
:105740002EAF0EC06F96AEADBFAD6F97BC91BCAF24
:105750006F96EEADFFAD6F9721803280F381FEAF83
:105760002CAD322D432D5EAD69966FAD69976A966B
:105770007FAD6A976B968FAD6B976C969FAD6C976C
:105780000E9469DA181674F02CAD69962FAF6997EC
:105790006A962FAE6A976B963FAE6B973EAD6C964E
:1057A0003FAF6C972CAD322D432D5EAD2C966FAD77
:1057B0002C9766967FAD669767968FAD67976896CC
:1057C0009FAD68970E9461E087FD0EC04CAD2C969E
:1057D0004FAF2C9766962FAE669767963FAE67974A
:1057E0005EAD68965FAF68976D968FAD6D978823B5
:1057F00009F475C028962FAD289729963FAD2997B3
:105800002A964FAD2A972B965FAD2B976CAD722DD4
:10581000832D9EAD0E9469DA18160CF0E2C00E943A
:105820007D74DC01CB0127962CAD3DAD4EAD5FAD57
:105830002797821B930BA40BB50B89389341A105C5
:10584000B10508F4CEC0D301C20123962CAD3DAD05
:105850004EAD5FAD2397821B930BA40BB50BB59593
:10586000A7959795879517FF03C08093460A05C0B3
:10587000A596EEADFFADA59780830E947D746596D9
:105880006CAF7DAF8EAF9FAF65979B01AC01279644
:105890008CAD9DADAEADBFAD2797281B390B4A0B24
:1058A0005B0BA3962CAF3DAF4EAF5FAFA39728968F
:1058B0009FAD289769969FAF69972996AFAD2997B5
:1058C0006A96AFAF6A972A96BFAD2A976B96BFAF1D
:1058D0006B972B96EFAD2B976C96EFAF6C97289646
:1058E0002FAD289729963FAD29972A964FAD2A9735
:1058F0002B965FAD2B976CAD722D832D9EAD0E94C4
:1059000061E087FD02C00C944B3B0E947D74DC017A
:10591000CB0165962CAD3DAD4EAD5FAD6597821B5D
:10592000930BA40BB50B89389341A105B10510F475
:105930000C944B3B0E947D7427966CAF7DAF8EAF6D
:105940009FAF2797DC01CB0165962CAD3DAD4EADE9
:105950005FAD6597821B930BA40BB50B61964EADA3
:105960005FAD61971416150614F40C9472392396E2
:105970008CAD9DADAEADBFAD2397840D951DA61D1D
:10598000B71DB595A7959795879517FD02C00C94FF
:10599000443B8093460A61962EAD3FAD61972F5FE1
:1059A0003F4F61963FAF2EAF619728963FAD289746
:1059B0002C963FAF2C9729964FAD299766964FAFFF
:1059C00066972A965FAD2A9767965FAF67972B9683
:1059D0008FAD2B9768968FAF689791E06D969FAFCC
:1059E0006D9720E030E040EA51E428966FAD2897AB
:1059F00029967FAD29972A968FAD2A972B969FAD32
:105A00002B970E9443D89B01AC016CAD722D832D66
:105A10009EAD0E9469DA1816B4F4EFE3F3E08491C6
:105A2000882341F09091C00095FFFCCF8093C60081
:105A30003196F5CF8091C00085FFFCCF8AE080933E
:105A4000C6000C948D350E947D74DC01CB01AB96B1
:105A50002CAD3DAD4EAD5FADAB97821B930BA40B50
:105A6000B50B813D9740A105B10508F44EC017FF65
:105A700010C0E090460AF12CE9E3F3E0849188231A
:105A8000D9F09091C00095FFFCCF8093C60031966D
:105A9000F5CFA596AEADBFADA597EC90F12CE3E3A5
:105AA000F3E08491882341F09091C00095FFFCCFF2
:105AB0008093C6003196F5CF42E06CAD722D832DF8
:105AC0009EAD0E94848FEFE2F3E08491882341F041
:105AD0009091C00095FFFCCF8093C6003196F5CF22
